{
  "_format": "hh-sol-artifact-1",
  "contractName": "FeeDistributor",
  "sourceName": "contracts/fee-distribution/FeeDistributor.sol",
  "abi": [
    {
      "inputs": [
        {
          "internalType": "contract IVotingEscrow",
          "name": "votingEscrow",
          "type": "address"
        },
        {
          "internalType": "uint256",
          "name": "startTime",
          "type": "uint256"
        }
      ],
      "stateMutability": "nonpayable",
      "type": "constructor"
    },
    {
      "anonymous": false,
      "inputs": [
        {
          "indexed": false,
          "internalType": "address",
          "name": "user",
          "type": "address"
        },
        {
          "indexed": false,
          "internalType": "bool",
          "name": "enabled",
          "type": "bool"
        }
      ],
      "name": "OnlyCallerOptIn",
      "type": "event"
    },
    {
      "anonymous": false,
      "inputs": [
        {
          "indexed": false,
          "internalType": "contract IERC20",
          "name": "token",
          "type": "address"
        },
        {
          "indexed": false,
          "internalType": "uint256",
          "name": "amount",
          "type": "uint256"
        },
        {
          "indexed": false,
          "internalType": "uint256",
          "name": "lastCheckpointTimestamp",
          "type": "uint256"
        }
      ],
      "name": "TokenCheckpointed",
      "type": "event"
    },
    {
      "anonymous": false,
      "inputs": [
        {
          "indexed": false,
          "internalType": "address",
          "name": "user",
          "type": "address"
        },
        {
          "indexed": false,
          "internalType": "contract IERC20",
          "name": "token",
          "type": "address"
        },
        {
          "indexed": false,
          "internalType": "uint256",
          "name": "amount",
          "type": "uint256"
        },
        {
          "indexed": false,
          "internalType": "uint256",
          "name": "userTokenTimeCursor",
          "type": "uint256"
        }
      ],
      "name": "TokensClaimed",
      "type": "event"
    },
    {
      "inputs": [],
      "name": "checkpoint",
      "outputs": [],
      "stateMutability": "nonpayable",
      "type": "function"
    },
    {
      "inputs": [
        {
          "internalType": "contract IERC20",
          "name": "token",
          "type": "address"
        }
      ],
      "name": "checkpointToken",
      "outputs": [],
      "stateMutability": "nonpayable",
      "type": "function"
    },
    {
      "inputs": [
        {
          "internalType": "contract IERC20[]",
          "name": "tokens",
          "type": "address[]"
        }
      ],
      "name": "checkpointTokens",
      "outputs": [],
      "stateMutability": "nonpayable",
      "type": "function"
    },
    {
      "inputs": [
        {
          "internalType": "address",
          "name": "user",
          "type": "address"
        }
      ],
      "name": "checkpointUser",
      "outputs": [],
      "stateMutability": "nonpayable",
      "type": "function"
    },
    {
      "inputs": [
        {
          "internalType": "address",
          "name": "user",
          "type": "address"
        },
        {
          "internalType": "contract IERC20",
          "name": "token",
          "type": "address"
        }
      ],
      "name": "claimToken",
      "outputs": [
        {
          "internalType": "uint256",
          "name": "",
          "type": "uint256"
        }
      ],
      "stateMutability": "nonpayable",
      "type": "function"
    },
    {
      "inputs": [
        {
          "internalType": "address",
          "name": "user",
          "type": "address"
        },
        {
          "internalType": "contract IERC20[]",
          "name": "tokens",
          "type": "address[]"
        }
      ],
      "name": "claimTokens",
      "outputs": [
        {
          "internalType": "uint256[]",
          "name": "",
          "type": "uint256[]"
        }
      ],
      "stateMutability": "nonpayable",
      "type": "function"
    },
    {
      "inputs": [
        {
          "internalType": "contract IERC20",
          "name": "token",
          "type": "address"
        },
        {
          "internalType": "uint256",
          "name": "amount",
          "type": "uint256"
        }
      ],
      "name": "depositToken",
      "outputs": [],
      "stateMutability": "nonpayable",
      "type": "function"
    },
    {
      "inputs": [
        {
          "internalType": "contract IERC20[]",
          "name": "tokens",
          "type": "address[]"
        },
        {
          "internalType": "uint256[]",
          "name": "amounts",
          "type": "uint256[]"
        }
      ],
      "name": "depositTokens",
      "outputs": [],
      "stateMutability": "nonpayable",
      "type": "function"
    },
    {
      "inputs": [],
      "name": "getDomainSeparator",
      "outputs": [
        {
          "internalType": "bytes32",
          "name": "",
          "type": "bytes32"
        }
      ],
      "stateMutability": "view",
      "type": "function"
    },
    {
      "inputs": [
        {
          "internalType": "address",
          "name": "account",
          "type": "address"
        }
      ],
      "name": "getNextNonce",
      "outputs": [
        {
          "internalType": "uint256",
          "name": "",
          "type": "uint256"
        }
      ],
      "stateMutability": "view",
      "type": "function"
    },
    {
      "inputs": [],
      "name": "getTimeCursor",
      "outputs": [
        {
          "internalType": "uint256",
          "name": "",
          "type": "uint256"
        }
      ],
      "stateMutability": "view",
      "type": "function"
    },
    {
      "inputs": [
        {
          "internalType": "contract IERC20",
          "name": "token",
          "type": "address"
        }
      ],
      "name": "getTokenLastBalance",
      "outputs": [
        {
          "internalType": "uint256",
          "name": "",
          "type": "uint256"
        }
      ],
      "stateMutability": "view",
      "type": "function"
    },
    {
      "inputs": [
        {
          "internalType": "contract IERC20",
          "name": "token",
          "type": "address"
        }
      ],
      "name": "getTokenTimeCursor",
      "outputs": [
        {
          "internalType": "uint256",
          "name": "",
          "type": "uint256"
        }
      ],
      "stateMutability": "view",
      "type": "function"
    },
    {
      "inputs": [
        {
          "internalType": "contract IERC20",
          "name": "token",
          "type": "address"
        },
        {
          "internalType": "uint256",
          "name": "timestamp",
          "type": "uint256"
        }
      ],
      "name": "getTokensDistributedInWeek",
      "outputs": [
        {
          "internalType": "uint256",
          "name": "",
          "type": "uint256"
        }
      ],
      "stateMutability": "view",
      "type": "function"
    },
    {
      "inputs": [
        {
          "internalType": "uint256",
          "name": "timestamp",
          "type": "uint256"
        }
      ],
      "name": "getTotalSupplyAtTimestamp",
      "outputs": [
        {
          "internalType": "uint256",
          "name": "",
          "type": "uint256"
        }
      ],
      "stateMutability": "view",
      "type": "function"
    },
    {
      "inputs": [
        {
          "internalType": "address",
          "name": "user",
          "type": "address"
        },
        {
          "internalType": "uint256",
          "name": "timestamp",
          "type": "uint256"
        }
      ],
      "name": "getUserBalanceAtTimestamp",
      "outputs": [
        {
          "internalType": "uint256",
          "name": "",
          "type": "uint256"
        }
      ],
      "stateMutability": "view",
      "type": "function"
    },
    {
      "inputs": [
        {
          "internalType": "address",
          "name": "user",
          "type": "address"
        }
      ],
      "name": "getUserTimeCursor",
      "outputs": [
        {
          "internalType": "uint256",
          "name": "",
          "type": "uint256"
        }
      ],
      "stateMutability": "view",
      "type": "function"
    },
    {
      "inputs": [
        {
          "internalType": "address",
          "name": "user",
          "type": "address"
        },
        {
          "internalType": "contract IERC20",
          "name": "token",
          "type": "address"
        }
      ],
      "name": "getUserTokenTimeCursor",
      "outputs": [
        {
          "internalType": "uint256",
          "name": "",
          "type": "uint256"
        }
      ],
      "stateMutability": "view",
      "type": "function"
    },
    {
      "inputs": [],
      "name": "getVotingEscrow",
      "outputs": [
        {
          "internalType": "contract IVotingEscrow",
          "name": "",
          "type": "address"
        }
      ],
      "stateMutability": "view",
      "type": "function"
    },
    {
      "inputs": [
        {
          "internalType": "address",
          "name": "user",
          "type": "address"
        }
      ],
      "name": "isOnlyCallerEnabled",
      "outputs": [
        {
          "internalType": "bool",
          "name": "",
          "type": "bool"
        }
      ],
      "stateMutability": "view",
      "type": "function"
    },
    {
      "inputs": [
        {
          "internalType": "bool",
          "name": "enabled",
          "type": "bool"
        }
      ],
      "name": "setOnlyCallerCheck",
      "outputs": [],
      "stateMutability": "nonpayable",
      "type": "function"
    },
    {
      "inputs": [
        {
          "internalType": "address",
          "name": "user",
          "type": "address"
        },
        {
          "internalType": "bool",
          "name": "enabled",
          "type": "bool"
        },
        {
          "internalType": "bytes",
          "name": "signature",
          "type": "bytes"
        }
      ],
      "name": "setOnlyCallerCheckWithSignature",
      "outputs": [],
      "stateMutability": "nonpayable",
      "type": "function"
    }
  ],
  "bytecode": "0x6101206040523480156200001257600080fd5b506040516200288938038062002889833981016040819052620000359162000122565b604080518082018252600e81526d2332b2a234b9ba3934b13aba37b960911b602080830191825283518085019094526001808552603160f81b9185019182529251909120608052915190912060a0527f8b73c3c69bb8fe3d512ecc4cf759cc79239f7b179b0ffacaa9a75d522b39400f60c0526002556001600160601b0319606083901b1660e052620000c88162000116565b90506000620000d74262000116565b905080821015620001055760405162461bcd60e51b8152600401620000fc906200015c565b60405180910390fd5b506101008190526003555062000191565b62093a80908190040290565b6000806040838503121562000135578182fd5b82516001600160a01b03811681146200014c578283fd5b6020939093015192949293505050565b6020808252818101527f43616e6e6f74207374617274206265666f72652063757272656e74207765656b604082015260600190565b60805160a05160c05160e05160601c6101005161268862000201600039806109ab5280610b0a5280610b6f5280610eec52508061033e52806108cd5280610a7a5280610c825280611453528061152752806119bc5250806118805250806118c25250806118a152506126886000f3fe608060405234801561001057600080fd5b50600436106101825760003560e01c806390193b7c116100d8578063ca31879d1161008c578063e811f44b11610066578063e811f44b1461030e578063ed24911d14610321578063fcaa54ee1461032957610182565b8063ca31879d146102d5578063d3dc4ca1146102e8578063de681faf146102fb57610182565b8063a1648aa5116100bd578063a1648aa51461029a578063acbc1428146102ba578063c2c4c5c1146102cd57610182565b806390193b7c14610274578063905d10ac1461028757610182565b80634f3c50901161013a57806382aa5ad41161011457806382aa5ad414610239578063876e69a114610241578063887204671461025457610182565b80634f3c5090146102005780637b8d6221146102135780638050a7ee1461022657610182565b80632308805b1161016b5780632308805b146101ba578063338b5dea146101da5780633902b9bc146101ed57610182565b806308b0308a1461018757806314866e08146101a5575b600080fd5b61018f61033c565b60405161019c9190612309565b60405180910390f35b6101b86101b3366004611f6e565b610360565b005b6101cd6101c8366004611f6e565b61037c565b60405161019c9190612422565b6101b86101e83660046120e4565b6103ca565b6101b86101fb366004611f6e565b610416565b6101cd61020e366004612287565b610429565b6101b861022136600461214f565b61043b565b6101cd6102343660046120ac565b61051e565b6101cd610533565b6101cd61024f366004611f6e565b610539565b610267610262366004611f8a565b610577565b60405161019c91906123df565b6101cd610282366004611f6e565b61065a565b6101b861029536600461210f565b610682565b6102ad6102a8366004611f6e565b6106b7565b60405161019c9190612417565b6101cd6102c8366004611f6e565b6106e2565b6101b8610720565b6101cd6102e33660046120ac565b61073a565b6101cd6102f63660046120e4565b610782565b6101cd6103093660046120e4565b6107b7565b6101b861031c3660046121b8565b6107ec565b6101cd6107f6565b6101b8610337366004611fdd565b610805565b7f000000000000000000000000000000000000000000000000000000000000000090565b610368610876565b6103718161088d565b610379610e5d565b50565b73ffffffffffffffffffffffffffffffffffffffff1660009081526005602052604090205470010000000000000000000000000000000090046fffffffffffffffffffffffffffffffff1690565b6103d2610876565b6103dd826000610e64565b6103ff73ffffffffffffffffffffffffffffffffffffffff831633308461128e565b61040a826001610e64565b610412610e5d565b5050565b61041e610876565b610371816001610e64565b60009081526004602052604090205490565b610443610876565b61044d8382611331565b8260005b8181101561050e5761048486868381811061046857fe5b905060200201602081019061047d9190611f6e565b6000610e64565b6104db333086868581811061049557fe5b905060200201358989868181106104a857fe5b90506020020160208101906104bd9190611f6e565b73ffffffffffffffffffffffffffffffffffffffff1692919061128e565b6105068686838181106104ea57fe5b90506020020160208101906104ff9190611f6e565b6001610e64565b600101610451565b5050610518610e5d565b50505050565b600061052a838361133e565b90505b92915050565b60035490565b73ffffffffffffffffffffffffffffffffffffffff1660009081526007602052604090205468010000000000000000900467ffffffffffffffff1690565b6060610581610876565b8361058b816113d6565b610593611428565b61059c8561088d565b8260608167ffffffffffffffff811180156105b657600080fd5b506040519080825280602002602001820160405280156105e0578160200160208202803683370190505b50905060005b82811015610646576105fd87878381811061046857fe5b6106278888888481811061060d57fe5b90506020020160208101906106229190611f6e565b6115d2565b82828151811061063357fe5b60209081029190910101526001016105e6565b5092505050610653610e5d565b9392505050565b73ffffffffffffffffffffffffffffffffffffffff1660009081526020819052604090205490565b61068a610876565b8060005b818110156106ad576106a58484838181106104ea57fe5b60010161068e565b5050610412610e5d565b73ffffffffffffffffffffffffffffffffffffffff1660009081526001602052604090205460ff1690565b73ffffffffffffffffffffffffffffffffffffffff1660009081526005602052604090205468010000000000000000900467ffffffffffffffff1690565b610728610876565b610730611428565b610738610e5d565b565b6000610744610876565b8261074e816113d6565b610756611428565b61075f8461088d565b61076a836000610e64565b600061077685856115d2565b9250505061052d610e5d565b73ffffffffffffffffffffffffffffffffffffffff919091166000908152600660209081526040808320938352929052205490565b73ffffffffffffffffffffffffffffffffffffffff919091166000908152600860209081526040808320938352929052205490565b61037933826117ef565b600061080061187c565b905090565b60007fbd291ffccec065968fe20c5f8debdad73ab50837733f357eeae8814178015a9084846108338761065a565b604051602001610846949392919061242b565b60405160208183030381529060405280519060200120905061086c8482846101f8611919565b61051884846117ef565b610887600280541415610190611946565b60028055565b6040517f010ae75700000000000000000000000000000000000000000000000000000000815260009073ffffffffffffffffffffffffffffffffffffffff7f0000000000000000000000000000000000000000000000000000000000000000169063010ae75790610902908590600401612309565b60206040518083038186803b15801561091a57600080fd5b505afa15801561092e573d6000803e3d6000fd5b505050506040513d601f19601f82011682018060405250810190610952919061229f565b90508061095f5750610379565b73ffffffffffffffffffffffffffffffffffffffff82166000908152600760205260408120805490916801000000000000000090910467ffffffffffffffff1690816109d9576109d2857f0000000000000000000000000000000000000000000000000000000000000000600087611954565b9050610a2c565b4282106109e95750505050610379565b50815470010000000000000000000000000000000090046fffffffffffffffffffffffffffffffff1660148185031115610a2c57610a2985838387611954565b90505b80610a35575060015b610a3d611ee5565b6040517f28d09d4700000000000000000000000000000000000000000000000000000000815273ffffffffffffffffffffffffffffffffffffffff7f000000000000000000000000000000000000000000000000000000000000000016906328d09d4790610ab190899086906004016123b9565b60806040518083038186803b158015610ac957600080fd5b505afa158015610add573d6000803e3d6000fd5b505050506040513d601f19601f82011682018060405250810190610b019190612230565b905082610bd5577f00000000000000000000000000000000000000000000000000000000000000004211610b6a576040517f08c379a0000000000000000000000000000000000000000000000000000000008152600401610b6190612572565b60405180910390fd5b610ba07f0000000000000000000000000000000000000000000000000000000000000000610b9b8360400151611a75565b611a85565b84547fffffffffffffffffffffffffffffffffffffffffffffffff00000000000000001667ffffffffffffffff821617855592505b610bdd611ee5565b60005b6032811015610dc25782604001518510158015610bfd5750868411155b15610d115760018401935082915086841115610c455760405180608001604052806000600f0b81526020016000600f0b81526020016000815260200160008152509250610d0c565b6040517f28d09d4700000000000000000000000000000000000000000000000000000000815273ffffffffffffffffffffffffffffffffffffffff7f000000000000000000000000000000000000000000000000000000000000000016906328d09d4790610cb9908b9088906004016123b9565b60806040518083038186803b158015610cd157600080fd5b505afa158015610ce5573d6000803e3d6000fd5b505050506040513d601f19601f82011682018060405250810190610d099190612230565b92505b610dba565b428510610d1d57610dc2565b6000826040015186039050600081846020015102600f0b8460000151600f0b13610d48576000610d59565b81846020015102846000015103600f0b5b905080158015610d6857508886115b15610d7f57610d7642611a75565b96505050610dc2565b73ffffffffffffffffffffffffffffffffffffffff8a1660009081526008602090815260408083208a84529091529020555062093a80909401935b600101610be0565b505083546fffffffffffffffffffffffffffffffff167fffffffffffffffffffffffffffffffffffffffffffffffffffffffffffffffff9290920167ffffffffffffffff90811670010000000000000000000000000000000002929092177fffffffffffffffffffffffffffffffff0000000000000000ffffffffffffffff1668010000000000000000939092169290920217909155505050565b6001600255565b73ffffffffffffffffffffffffffffffffffffffff82166000908152600560205260408120805490916801000000000000000090910467ffffffffffffffff169081610f4857429150610eb642611a91565b83547fffffffffffffffffffffffffffffffffffffffffffffffff00000000000000001667ffffffffffffffff919091161783557f00000000000000000000000000000000000000000000000000000000000000004211610f43576040517f08c379a0000000000000000000000000000000000000000000000000000000008152600401610b6190612572565b610f9a565b814203905083610f9a576000610f5d83611a91565b610f6642611a91565b14905060006201518042610f7942611a75565b03109050818015610f88575080155b15610f97575050505050610412565b50505b82547fffffffffffffffffffffffffffffffff0000000000000000ffffffffffffffff16680100000000000000004267ffffffffffffffff16021783556040517f70a0823100000000000000000000000000000000000000000000000000000000815260009073ffffffffffffffffffffffffffffffffffffffff8716906370a082319061102c903090600401612309565b60206040518083038186803b15801561104457600080fd5b505afa158015611058573d6000803e3d6000fd5b505050506040513d601f19601f8201168201806040525081019061107c919061229f565b84549091506000906110b590839070010000000000000000000000000000000090046fffffffffffffffffffffffffffffffff16611a9d565b9050806110c6575050505050610412565b6fffffffffffffffffffffffffffffffff821115611110576040517f08c379a0000000000000000000000000000000000000000000000000000000008152600401610b619061253b565b84546fffffffffffffffffffffffffffffffff808416700100000000000000000000000000000000029116178555600061114985611a91565b73ffffffffffffffffffffffffffffffffffffffff8916600090815260066020526040812091925090815b6014811015611246578362093a80019250824210156111e4578615801561119a57508742145b156111b85760008481526020839052604090208054860190556111df565b868842038602816111c557fe5b600086815260208590526040902080549290910490910190555b611246565b861580156111f157508783145b1561120f576000848152602083905260409020805486019055611236565b8688840386028161121c57fe5b600086815260208590526040902080549290910490910190555b9196508692508291600101611174565b507f9b7f1a85a4c9b4e59e1b6527d9969c50cdfb3a1a467d0c4a51fb0ed8bf07f1308a858960405161127a9392919061250d565b60405180910390a150505050505050505050565b610518846323b872dd60e01b8585856040516024016112af9392919061232a565b604080517fffffffffffffffffffffffffffffffffffffffffffffffffffffffffffffffe08184030181529190526020810180517bffffffffffffffffffffffffffffffffffffffffffffffffffffffff167fffffffff0000000000000000000000000000000000000000000000000000000090931692909217909152611aab565b6104128183146067611946565b73ffffffffffffffffffffffffffffffffffffffff8083166000908152600960209081526040808320938516835292905290812054801561138057905061052d565b73ffffffffffffffffffffffffffffffffffffffff808516600090815260076020908152604080832054938716835260059091529020546113ce9167ffffffffffffffff9081169116611a85565b949350505050565b73ffffffffffffffffffffffffffffffffffffffff811660009081526001602052604090205460ff1615610379576103793373ffffffffffffffffffffffffffffffffffffffff831614610191611946565b600354600061143642611a91565b90508082118061144557504281145b15611451575050610738565b7f000000000000000000000000000000000000000000000000000000000000000073ffffffffffffffffffffffffffffffffffffffff1663c2c4c5c16040518163ffffffff1660e01b8152600401600060405180830381600087803b1580156114b957600080fd5b505af11580156114cd573d6000803e3d6000fd5b5050505060005b60148110156115cb57818311156114ea576115cb565b6040517fbd85b03900000000000000000000000000000000000000000000000000000000815273ffffffffffffffffffffffffffffffffffffffff7f0000000000000000000000000000000000000000000000000000000000000000169063bd85b0399061155c908690600401612422565b60206040518083038186803b15801561157457600080fd5b505afa158015611588573d6000803e3d6000fd5b505050506040513d601f19601f820116820180604052508101906115ac919061229f565b60008481526004602052604090205562093a80909201916001016114d4565b5050600355565b73ffffffffffffffffffffffffffffffffffffffff8116600090815260056020526040812081611602858561133e565b60035473ffffffffffffffffffffffffffffffffffffffff8716600090815260076020526040812054929350916116829161165c91611657919068010000000000000000900467ffffffffffffffff16611b58565b611a75565b845461167d9068010000000000000000900467ffffffffffffffff16611a91565b611b58565b73ffffffffffffffffffffffffffffffffffffffff8087166000908152600660209081526040808320938b16835260089091528120929350909190805b6014811015611713578486106116d457611713565b600086815260046020908152604080832054868352818420549288905292205402816116fc57fe5b62093a8097909701960491909101906001016116bf565b5073ffffffffffffffffffffffffffffffffffffffff808a166000908152600960209081526040808320938c1683529290522085905580156117e35785546fffffffffffffffffffffffffffffffff700100000000000000000000000000000000808304821684900382160291161786556117a573ffffffffffffffffffffffffffffffffffffffff89168a83611b64565b7fff097c7d8b1957a4ff09ef1361b5fb54dcede3941ba836d0beb9d10bec725de6898983886040516117da9493929190612383565b60405180910390a15b98975050505050505050565b73ffffffffffffffffffffffffffffffffffffffff82166000908152600160205260409081902080547fffffffffffffffffffffffffffffffffffffffffffffffffffffffffffffff0016831515179055517fac9874a7a931a3f5c9f202c6d9cf40de5d21506993c9f9c38ca8265add89584c90611870908490849061235b565b60405180910390a15050565b60007f00000000000000000000000000000000000000000000000000000000000000007f00000000000000000000000000000000000000000000000000000000000000007f00000000000000000000000000000000000000000000000000000000000000006118e9611b88565b306040516020016118fe95949392919061245e565b60405160208183030381529060405280519060200120905090565b6105188484847fffffffffffffffffffffffffffffffffffffffffffffffffffffffffffffffff85611b8c565b816104125761041281611bf0565b60008282825b6080811015611a695781831061196f57611a69565b600282840181010461197f611ee5565b6040517f28d09d4700000000000000000000000000000000000000000000000000000000815273ffffffffffffffffffffffffffffffffffffffff7f000000000000000000000000000000000000000000000000000000000000000016906328d09d47906119f3908d9086906004016123b9565b60806040518083038186803b158015611a0b57600080fd5b505afa158015611a1f573d6000803e3d6000fd5b505050506040513d601f19601f82011682018060405250810190611a439190612230565b905088816040015111611a5857819450611a5f565b6001820393505b505060010161195a565b50909695505050505050565b600061052d62093a7f8301611a91565b80820390821002900390565b62093a80908190040290565b600061052a83836001611c1a565b600060608373ffffffffffffffffffffffffffffffffffffffff1683604051611ad491906122b7565b6000604051808303816000865af19150503d8060008114611b11576040519150601f19603f3d011682016040523d82523d6000602084013e611b16565b606091505b50915091506000821415611b2e573d6000803e3d6000fd5b610518815160001480611b50575081806020019051810190611b5091906121d4565b6101a2611946565b80820390821102900390565b611b838363a9059cbb60e01b84846040516024016112af9291906123b9565b505050565b4690565b6000611b9785611c30565b9050611bad611ba7878387611c69565b83611946565b611bbc428410156101b8611946565b50505073ffffffffffffffffffffffffffffffffffffffff9092166000908152602081905260409020805460010190555050565b610379817f42414c0000000000000000000000000000000000000000000000000000000000611d71565b6000611c298484111583611946565b5050900390565b6000611c3a61187c565b82604051602001611c4c9291906122d3565b604051602081830303815290604052805190602001209050919050565b6000611c8a8473ffffffffffffffffffffffffffffffffffffffff16611dec565b15611d5f576040517f1626ba7e000000000000000000000000000000000000000000000000000000008082529073ffffffffffffffffffffffffffffffffffffffff861690631626ba7e90611ce59087908790600401612497565b60206040518083038186803b158015611cfd57600080fd5b505afa158015611d11573d6000803e3d6000fd5b505050506040513d601f19601f82011682018060405250810190611d3591906121f0565b7fffffffff0000000000000000000000000000000000000000000000000000000016149050610653565b611d6a848484611df2565b9050610653565b7f08c379a000000000000000000000000000000000000000000000000000000000600090815260206004526007602452600a808404818106603090810160081b958390069590950190829004918206850160101b01602363ffffff0060e086901c160160181b0190930160c81b60445260e882901c90606490fd5b3b151590565b6000611e0482516041146101b9611946565b60208281015160408085015160608601518251600080825295019283905292939092811a91600190611e3d9089908590889088906124ef565b6020604051602081039080840390855afa158015611e5f573d6000803e3d6000fd5b50506040517fffffffffffffffffffffffffffffffffffffffffffffffffffffffffffffffe0015191505073ffffffffffffffffffffffffffffffffffffffff8116158015906117e357508773ffffffffffffffffffffffffffffffffffffffff168173ffffffffffffffffffffffffffffffffffffffff161498975050505050505050565b60405180608001604052806000600f0b81526020016000600f0b815260200160008152602001600081525090565b60008083601f840112611f24578182fd5b50813567ffffffffffffffff811115611f3b578182fd5b6020830191508360208083028501011115611f5557600080fd5b9250929050565b8051600f81900b811461052d57600080fd5b600060208284031215611f7f578081fd5b813561065381612622565b600080600060408486031215611f9e578182fd5b8335611fa981612622565b9250602084013567ffffffffffffffff811115611fc4578283fd5b611fd086828701611f13565b9497909650939450505050565b600080600060608486031215611ff1578283fd5b8335611ffc81612622565b925060208481013561200d81612644565b9250604085013567ffffffffffffffff80821115612029578384fd5b818701915087601f83011261203c578384fd5b81358181111561204a578485fd5b61207a847fffffffffffffffffffffffffffffffffffffffffffffffffffffffffffffffe0601f840116016125cf565b9150808252888482850101111561208f578485fd5b808484018584013784848284010152508093505050509250925092565b600080604083850312156120be578182fd5b82356120c981612622565b915060208301356120d981612622565b809150509250929050565b600080604083850312156120f6578182fd5b823561210181612622565b946020939093013593505050565b60008060208385031215612121578182fd5b823567ffffffffffffffff811115612137578283fd5b61214385828601611f13565b90969095509350505050565b60008060008060408587031215612164578081fd5b843567ffffffffffffffff8082111561217b578283fd5b61218788838901611f13565b9096509450602087013591508082111561219f578283fd5b506121ac87828801611f13565b95989497509550505050565b6000602082840312156121c9578081fd5b813561065381612644565b6000602082840312156121e5578081fd5b815161065381612644565b600060208284031215612201578081fd5b81517fffffffff0000000000000000000000000000000000000000000000000000000081168114610653578182fd5b600060808284031215612241578081fd5b61224b60806125cf565b6122558484611f5c565b81526122648460208501611f5c565b602082015260408301516040820152606083015160608201528091505092915050565b600060208284031215612298578081fd5b5035919050565b6000602082840312156122b0578081fd5b5051919050565b600082516122c98184602087016125f6565b9190910192915050565b7f190100000000000000000000000000000000000000000000000000000000000081526002810192909252602282015260420190565b73ffffffffffffffffffffffffffffffffffffffff91909116815260200190565b73ffffffffffffffffffffffffffffffffffffffff9384168152919092166020820152604081019190915260600190565b73ffffffffffffffffffffffffffffffffffffffff9290921682521515602082015260400190565b73ffffffffffffffffffffffffffffffffffffffff94851681529290931660208301526040820152606081019190915260800190565b73ffffffffffffffffffffffffffffffffffffffff929092168252602082015260400190565b6020808252825182820181905260009190848201906040850190845b81811015611a69578351835292840192918401916001016123fb565b901515815260200190565b90815260200190565b93845273ffffffffffffffffffffffffffffffffffffffff92909216602084015215156040830152606082015260800190565b94855260208501939093526040840191909152606083015273ffffffffffffffffffffffffffffffffffffffff16608082015260a00190565b60008382526040602083015282518060408401526124bc8160608501602087016125f6565b601f017fffffffffffffffffffffffffffffffffffffffffffffffffffffffffffffffe016919091016060019392505050565b93845260ff9290921660208401526040830152606082015260800190565b73ffffffffffffffffffffffffffffffffffffffff9390931683526020830191909152604082015260600190565b6020808252601e908201527f4d6178696d756d20746f6b656e2062616c616e63652065786365656465640000604082015260600190565b60208082526024908201527f46656520646973747269627574696f6e20686173206e6f74207374617274656460408201527f2079657400000000000000000000000000000000000000000000000000000000606082015260800190565b60405181810167ffffffffffffffff811182821017156125ee57600080fd5b604052919050565b60005b838110156126115781810151838201526020016125f9565b838111156105185750506000910152565b73ffffffffffffffffffffffffffffffffffffffff8116811461037957600080fd5b801515811461037957600080fdfea2646970667358221220050ba554abc43bed7be9609de57ba3804fb725f17956052e5dc0660f638be72b64736f6c63430007010033",
  "linkReferences": {},
  "deployedLinkReferences": {}
}