{
  "_format": "hh-sol-artifact-1",
  "contractName": "GovernanceToken",
  "sourceName": "contracts/liquidity-mining/governance/GovernanceToken.sol",
  "abi": [
    {
      "inputs": [
        {
          "internalType": "string",
          "name": "name",
          "type": "string"
        },
        {
          "internalType": "string",
          "name": "symbol",
          "type": "string"
        }
      ],
      "stateMutability": "nonpayable",
      "type": "constructor"
    },
    {
      "anonymous": false,
      "inputs": [
        {
          "indexed": true,
          "internalType": "address",
          "name": "owner",
          "type": "address"
        },
        {
          "indexed": true,
          "internalType": "address",
          "name": "spender",
          "type": "address"
        },
        {
          "indexed": false,
          "internalType": "uint256",
          "name": "value",
          "type": "uint256"
        }
      ],
      "name": "Approval",
      "type": "event"
    },
    {
      "anonymous": false,
      "inputs": [
        {
          "indexed": true,
          "internalType": "bytes32",
          "name": "role",
          "type": "bytes32"
        },
        {
          "indexed": true,
          "internalType": "address",
          "name": "account",
          "type": "address"
        },
        {
          "indexed": true,
          "internalType": "address",
          "name": "sender",
          "type": "address"
        }
      ],
      "name": "RoleGranted",
      "type": "event"
    },
    {
      "anonymous": false,
      "inputs": [
        {
          "indexed": true,
          "internalType": "bytes32",
          "name": "role",
          "type": "bytes32"
        },
        {
          "indexed": true,
          "internalType": "address",
          "name": "account",
          "type": "address"
        },
        {
          "indexed": true,
          "internalType": "address",
          "name": "sender",
          "type": "address"
        }
      ],
      "name": "RoleRevoked",
      "type": "event"
    },
    {
      "anonymous": false,
      "inputs": [
        {
          "indexed": false,
          "internalType": "uint256",
          "name": "id",
          "type": "uint256"
        }
      ],
      "name": "Snapshot",
      "type": "event"
    },
    {
      "anonymous": false,
      "inputs": [
        {
          "indexed": true,
          "internalType": "address",
          "name": "from",
          "type": "address"
        },
        {
          "indexed": true,
          "internalType": "address",
          "name": "to",
          "type": "address"
        },
        {
          "indexed": false,
          "internalType": "uint256",
          "name": "value",
          "type": "uint256"
        }
      ],
      "name": "Transfer",
      "type": "event"
    },
    {
      "inputs": [],
      "name": "DEFAULT_ADMIN_ROLE",
      "outputs": [
        {
          "internalType": "bytes32",
          "name": "",
          "type": "bytes32"
        }
      ],
      "stateMutability": "view",
      "type": "function"
    },
    {
      "inputs": [],
      "name": "DOMAIN_SEPARATOR",
      "outputs": [
        {
          "internalType": "bytes32",
          "name": "",
          "type": "bytes32"
        }
      ],
      "stateMutability": "view",
      "type": "function"
    },
    {
      "inputs": [],
      "name": "MINTER_ROLE",
      "outputs": [
        {
          "internalType": "bytes32",
          "name": "",
          "type": "bytes32"
        }
      ],
      "stateMutability": "view",
      "type": "function"
    },
    {
      "inputs": [],
      "name": "PERMIT_TYPEHASH",
      "outputs": [
        {
          "internalType": "bytes32",
          "name": "",
          "type": "bytes32"
        }
      ],
      "stateMutability": "view",
      "type": "function"
    },
    {
      "inputs": [],
      "name": "SNAPSHOT_ROLE",
      "outputs": [
        {
          "internalType": "bytes32",
          "name": "",
          "type": "bytes32"
        }
      ],
      "stateMutability": "view",
      "type": "function"
    },
    {
      "inputs": [
        {
          "internalType": "address",
          "name": "owner",
          "type": "address"
        },
        {
          "internalType": "address",
          "name": "spender",
          "type": "address"
        }
      ],
      "name": "allowance",
      "outputs": [
        {
          "internalType": "uint256",
          "name": "",
          "type": "uint256"
        }
      ],
      "stateMutability": "view",
      "type": "function"
    },
    {
      "inputs": [
        {
          "internalType": "address",
          "name": "spender",
          "type": "address"
        },
        {
          "internalType": "uint256",
          "name": "amount",
          "type": "uint256"
        }
      ],
      "name": "approve",
      "outputs": [
        {
          "internalType": "bool",
          "name": "",
          "type": "bool"
        }
      ],
      "stateMutability": "nonpayable",
      "type": "function"
    },
    {
      "inputs": [
        {
          "internalType": "address",
          "name": "account",
          "type": "address"
        }
      ],
      "name": "balanceOf",
      "outputs": [
        {
          "internalType": "uint256",
          "name": "",
          "type": "uint256"
        }
      ],
      "stateMutability": "view",
      "type": "function"
    },
    {
      "inputs": [
        {
          "internalType": "address",
          "name": "account",
          "type": "address"
        },
        {
          "internalType": "uint256",
          "name": "snapshotId",
          "type": "uint256"
        }
      ],
      "name": "balanceOfAt",
      "outputs": [
        {
          "internalType": "uint256",
          "name": "",
          "type": "uint256"
        }
      ],
      "stateMutability": "view",
      "type": "function"
    },
    {
      "inputs": [
        {
          "internalType": "uint256",
          "name": "amount",
          "type": "uint256"
        }
      ],
      "name": "burn",
      "outputs": [],
      "stateMutability": "nonpayable",
      "type": "function"
    },
    {
      "inputs": [
        {
          "internalType": "address",
          "name": "account",
          "type": "address"
        },
        {
          "internalType": "uint256",
          "name": "amount",
          "type": "uint256"
        }
      ],
      "name": "burnFrom",
      "outputs": [],
      "stateMutability": "nonpayable",
      "type": "function"
    },
    {
      "inputs": [],
      "name": "decimals",
      "outputs": [
        {
          "internalType": "uint8",
          "name": "",
          "type": "uint8"
        }
      ],
      "stateMutability": "view",
      "type": "function"
    },
    {
      "inputs": [
        {
          "internalType": "address",
          "name": "spender",
          "type": "address"
        },
        {
          "internalType": "uint256",
          "name": "subtractedValue",
          "type": "uint256"
        }
      ],
      "name": "decreaseAllowance",
      "outputs": [
        {
          "internalType": "bool",
          "name": "",
          "type": "bool"
        }
      ],
      "stateMutability": "nonpayable",
      "type": "function"
    },
    {
      "inputs": [
        {
          "internalType": "bytes32",
          "name": "role",
          "type": "bytes32"
        }
      ],
      "name": "getRoleAdmin",
      "outputs": [
        {
          "internalType": "bytes32",
          "name": "",
          "type": "bytes32"
        }
      ],
      "stateMutability": "view",
      "type": "function"
    },
    {
      "inputs": [
        {
          "internalType": "bytes32",
          "name": "role",
          "type": "bytes32"
        },
        {
          "internalType": "uint256",
          "name": "index",
          "type": "uint256"
        }
      ],
      "name": "getRoleMember",
      "outputs": [
        {
          "internalType": "address",
          "name": "",
          "type": "address"
        }
      ],
      "stateMutability": "view",
      "type": "function"
    },
    {
      "inputs": [
        {
          "internalType": "bytes32",
          "name": "role",
          "type": "bytes32"
        }
      ],
      "name": "getRoleMemberCount",
      "outputs": [
        {
          "internalType": "uint256",
          "name": "",
          "type": "uint256"
        }
      ],
      "stateMutability": "view",
      "type": "function"
    },
    {
      "inputs": [
        {
          "internalType": "bytes32",
          "name": "role",
          "type": "bytes32"
        },
        {
          "internalType": "address",
          "name": "account",
          "type": "address"
        }
      ],
      "name": "grantRole",
      "outputs": [],
      "stateMutability": "nonpayable",
      "type": "function"
    },
    {
      "inputs": [
        {
          "internalType": "bytes32",
          "name": "role",
          "type": "bytes32"
        },
        {
          "internalType": "address",
          "name": "account",
          "type": "address"
        }
      ],
      "name": "hasRole",
      "outputs": [
        {
          "internalType": "bool",
          "name": "",
          "type": "bool"
        }
      ],
      "stateMutability": "view",
      "type": "function"
    },
    {
      "inputs": [
        {
          "internalType": "address",
          "name": "spender",
          "type": "address"
        },
        {
          "internalType": "uint256",
          "name": "addedValue",
          "type": "uint256"
        }
      ],
      "name": "increaseAllowance",
      "outputs": [
        {
          "internalType": "bool",
          "name": "",
          "type": "bool"
        }
      ],
      "stateMutability": "nonpayable",
      "type": "function"
    },
    {
      "inputs": [
        {
          "internalType": "address",
          "name": "to",
          "type": "address"
        },
        {
          "internalType": "uint256",
          "name": "amount",
          "type": "uint256"
        }
      ],
      "name": "mint",
      "outputs": [],
      "stateMutability": "nonpayable",
      "type": "function"
    },
    {
      "inputs": [],
      "name": "name",
      "outputs": [
        {
          "internalType": "string",
          "name": "",
          "type": "string"
        }
      ],
      "stateMutability": "view",
      "type": "function"
    },
    {
      "inputs": [
        {
          "internalType": "address",
          "name": "",
          "type": "address"
        }
      ],
      "name": "nonces",
      "outputs": [
        {
          "internalType": "uint256",
          "name": "",
          "type": "uint256"
        }
      ],
      "stateMutability": "view",
      "type": "function"
    },
    {
      "inputs": [
        {
          "internalType": "address",
          "name": "owner",
          "type": "address"
        },
        {
          "internalType": "address",
          "name": "spender",
          "type": "address"
        },
        {
          "internalType": "uint256",
          "name": "value",
          "type": "uint256"
        },
        {
          "internalType": "uint256",
          "name": "deadline",
          "type": "uint256"
        },
        {
          "internalType": "uint8",
          "name": "v",
          "type": "uint8"
        },
        {
          "internalType": "bytes32",
          "name": "r",
          "type": "bytes32"
        },
        {
          "internalType": "bytes32",
          "name": "s",
          "type": "bytes32"
        }
      ],
      "name": "permit",
      "outputs": [],
      "stateMutability": "nonpayable",
      "type": "function"
    },
    {
      "inputs": [
        {
          "internalType": "bytes32",
          "name": "role",
          "type": "bytes32"
        },
        {
          "internalType": "address",
          "name": "account",
          "type": "address"
        }
      ],
      "name": "renounceRole",
      "outputs": [],
      "stateMutability": "nonpayable",
      "type": "function"
    },
    {
      "inputs": [
        {
          "internalType": "bytes32",
          "name": "role",
          "type": "bytes32"
        },
        {
          "internalType": "address",
          "name": "account",
          "type": "address"
        }
      ],
      "name": "revokeRole",
      "outputs": [],
      "stateMutability": "nonpayable",
      "type": "function"
    },
    {
      "inputs": [],
      "name": "snapshot",
      "outputs": [],
      "stateMutability": "nonpayable",
      "type": "function"
    },
    {
      "inputs": [],
      "name": "symbol",
      "outputs": [
        {
          "internalType": "string",
          "name": "",
          "type": "string"
        }
      ],
      "stateMutability": "view",
      "type": "function"
    },
    {
      "inputs": [],
      "name": "totalSupply",
      "outputs": [
        {
          "internalType": "uint256",
          "name": "",
          "type": "uint256"
        }
      ],
      "stateMutability": "view",
      "type": "function"
    },
    {
      "inputs": [
        {
          "internalType": "uint256",
          "name": "snapshotId",
          "type": "uint256"
        }
      ],
      "name": "totalSupplyAt",
      "outputs": [
        {
          "internalType": "uint256",
          "name": "",
          "type": "uint256"
        }
      ],
      "stateMutability": "view",
      "type": "function"
    },
    {
      "inputs": [
        {
          "internalType": "address",
          "name": "recipient",
          "type": "address"
        },
        {
          "internalType": "uint256",
          "name": "amount",
          "type": "uint256"
        }
      ],
      "name": "transfer",
      "outputs": [
        {
          "internalType": "bool",
          "name": "",
          "type": "bool"
        }
      ],
      "stateMutability": "nonpayable",
      "type": "function"
    },
    {
      "inputs": [
        {
          "internalType": "address",
          "name": "sender",
          "type": "address"
        },
        {
          "internalType": "address",
          "name": "recipient",
          "type": "address"
        },
        {
          "internalType": "uint256",
          "name": "amount",
          "type": "uint256"
        }
      ],
      "name": "transferFrom",
      "outputs": [
        {
          "internalType": "bool",
          "name": "",
          "type": "bool"
        }
      ],
      "stateMutability": "nonpayable",
      "type": "function"
    },
    {
      "inputs": [],
      "name": "version",
      "outputs": [
        {
          "internalType": "string",
          "name": "",
          "type": "string"
        }
      ],
      "stateMutability": "view",
      "type": "function"
    }
  ],
  "bytecode": "0x60c06040527f6e71edae12b1b97f4d1f60370fef10105fa2faae0126114a169c64845d6126c960a0523480156200003557600080fd5b506040516200248438038062002484833981810160405260408110156200005b57600080fd5b81019080805160405193929190846401000000008211156200007c57600080fd5b9083019060208201858111156200009257600080fd5b8251640100000000811182820188101715620000ad57600080fd5b82525081516020918201929091019080838360005b83811015620000dc578181015183820152602001620000c2565b50505050905090810190601f1680156200010a5780820380516001836020036101000a031916815260200191505b50604052602001805160405193929190846401000000008211156200012e57600080fd5b9083019060208201858111156200014457600080fd5b82516401000000008111828201881017156200015f57600080fd5b82525081516020918201929091019080838360005b838110156200018e57818101518382015260200162000174565b50505050905090810190601f168015620001bc5780820380516001836020036101000a031916815260200191505b50604052505082518391508290620001dc90600490602085019062000494565b508051620001f290600590602084019062000494565b50506006805460ff19166012179055506200022a60006200021b6001600160e01b036200035716565b6001600160e01b036200035c16565b604080516a4d494e5445525f524f4c4560a81b8152905190819003600b01902062000262906200021b6001600160e01b036200035716565b604080516c534e415053484f545f524f4c4560981b8152905190819003600d0190206200029c906200021b6001600160e01b036200035716565b6000620002b16001600160e01b036200037516565b905060405180806200243260529139604080519182900360520182208651602097880120838301835260018452603160f81b93880193909352815180880191909152808201929092527fc89efdaa54c0f20c7adf612882df0950f5a951637e0307cdcb4c672f298b8bc660608301526080808301949094523060a0808401919091528151808403909101815260c090920190528051940193909320905250620005369050565b335b90565b6200037182826001600160e01b036200037916565b5050565b4690565b6000828152602081815260409091206200039e91839062000f3e620003fb821b17901c565b156200037157620003b76001600160e01b036200035716565b6001600160a01b0316816001600160a01b0316837f2f8788117e7eff1d82e926ec794901d17c78024a50270940304540a733656f0d60405160405180910390a45050565b60006200041b836001600160a01b0384166001600160e01b036200042416565b90505b92915050565b60006200043b83836001600160e01b036200047c16565b62000473575081546001818101845560008481526020808220909301849055845484825282860190935260409020919091556200041e565b5060006200041e565b60009081526001919091016020526040902054151590565b828054600181600116156101000203166002900490600052602060002090601f016020900481019282601f10620004d757805160ff191683800117855562000507565b8280016001018555821562000507579182015b8281111562000507578251825591602001919060010190620004ea565b506200051592915062000519565b5090565b6200035991905b8082111562000515576000815560010162000520565b60805160a051611ece62000564600039806108655280610d6c5250806108925280610dd95250611ece6000f3fe608060405234801561001057600080fd5b50600436106101f05760003560e01c806370a082311161010f578063a217fddf116100a2578063d505accf11610071578063d505accf146105e5578063d539139314610636578063d547741f1461063e578063dd62ed3e1461066a576101f0565b8063a217fddf14610568578063a457c2d714610570578063a9059cbb1461059c578063ca15c873146105c8576101f0565b806391d14854116100de57806391d148541461050f57806395d89b411461053b5780639711715a14610543578063981b24d01461054b576101f0565b806370a082311461045857806379cc67901461047e5780637ecebe00146104aa5780639010d07c146104d0576101f0565b80633644e5151161018757806342966c681161015657806342966c68146103ff5780634ee2cd7e1461041c57806354fd4d50146104485780637028e2cd14610450576101f0565b80633644e5151461037357806336568abe1461037b57806339509351146103a757806340c10f19146103d3576101f0565b8063248a9ca3116101c3578063248a9ca3146103025780632f2ff15d1461031f57806330adf81f1461034d578063313ce56714610355576101f0565b806306fdde03146101f5578063095ea7b31461027257806318160ddd146102b257806323b872dd146102cc575b600080fd5b6101fd610698565b6040805160208082528351818301528351919283929083019185019080838360005b8381101561023757818101518382015260200161021f565b50505050905090810190601f1680156102645780820380516001836020036101000a031916815260200191505b509250505060405180910390f35b61029e6004803603604081101561028857600080fd5b506001600160a01b03813516906020013561072e565b604080519115158252519081900360200190f35b6102ba61074c565b60408051918252519081900360200190f35b61029e600480360360608110156102e257600080fd5b506001600160a01b03813581169160208101359091169060400135610752565b6102ba6004803603602081101561031857600080fd5b50356107df565b61034b6004803603604081101561033557600080fd5b50803590602001356001600160a01b03166107f7565b005b6102ba610863565b61035d610887565b6040805160ff9092168252519081900360200190f35b6102ba610890565b61034b6004803603604081101561039157600080fd5b50803590602001356001600160a01b03166108b4565b61029e600480360360408110156103bd57600080fd5b506001600160a01b038135169060200135610915565b61034b600480360360408110156103e957600080fd5b506001600160a01b038135169060200135610969565b61034b6004803603602081101561041557600080fd5b50356109e2565b6102ba6004803603604081101561043257600080fd5b506001600160a01b0381351690602001356109f6565b6101fd610a3f565b6102ba610a5c565b6102ba6004803603602081101561046e57600080fd5b50356001600160a01b0316610a81565b61034b6004803603604081101561049457600080fd5b506001600160a01b038135169060200135610a9c565b6102ba600480360360208110156104c057600080fd5b50356001600160a01b0316610afc565b6104f3600480360360408110156104e657600080fd5b5080359060200135610b0e565b604080516001600160a01b039092168252519081900360200190f35b61029e6004803603604081101561052557600080fd5b50803590602001356001600160a01b0316610b33565b6101fd610b51565b61034b610bb2565b6102ba6004803603602081101561056157600080fd5b5035610c2d565b6102ba610c5d565b61029e6004803603604081101561058657600080fd5b506001600160a01b038135169060200135610c62565b61029e600480360360408110156105b257600080fd5b506001600160a01b038135169060200135610cd0565b6102ba600480360360208110156105de57600080fd5b5035610ce4565b61034b600480360360e08110156105fb57600080fd5b506001600160a01b03813581169160208101359091169060408101359060608101359060ff6080820135169060a08101359060c00135610cfb565b6102ba610e97565b61034b6004803603604081101561065457600080fd5b50803590602001356001600160a01b0316610eba565b6102ba6004803603604081101561068057600080fd5b506001600160a01b0381358116916020013516610f13565b60048054604080516020601f60026000196101006001881615020190951694909404938401819004810282018101909252828152606093909290918301828280156107245780601f106106f957610100808354040283529160200191610724565b820191906000526020600020905b81548152906001019060200180831161070757829003601f168201915b5050505050905090565b600061074261073b610f53565b8484610f57565b5060015b92915050565b60035490565b600061075f848484611043565b6107d58461076b610f53565b6107d085604051806060016040528060288152602001611d8f602891396001600160a01b038a166000908152600260205260408120906107a9610f53565b6001600160a01b03168152602081019190915260400160002054919063ffffffff61106016565b610f57565b5060019392505050565b6000818152602081905260409020600201545b919050565b60008281526020819052604090206002015461081a90610815610f53565b610b33565b6108555760405162461bcd60e51b815260040180806020018281038252602f815260200180611c82602f913960400191505060405180910390fd5b61085f82826110f7565b5050565b7f000000000000000000000000000000000000000000000000000000000000000081565b60065460ff1690565b7f000000000000000000000000000000000000000000000000000000000000000081565b6108bc610f53565b6001600160a01b0316816001600160a01b03161461090b5760405162461bcd60e51b815260040180806020018281038252602f815260200180611e6a602f913960400191505060405180910390fd5b61085f8282611166565b6000610742610922610f53565b846107d08560026000610933610f53565b6001600160a01b03908116825260208083019390935260409182016000908120918c16815292529020549063ffffffff6111d516565b604080516a4d494e5445525f524f4c4560a81b8152905190819003600b01902061099590610815610f53565b6109d8576040805162461bcd60e51b815260206004820152600f60248201526e4552525f4d494e5445525f524f4c4560881b604482015290519081900360640190fd5b61085f828261122f565b6109f36109ed610f53565b8261124a565b50565b6001600160a01b038216600090815260076020526040812081908190610a1d908590611265565b9150915081610a3457610a2f85610a81565b610a36565b805b95945050505050565b604051806040016040528060018152602001603160f81b81525081565b604080516c534e415053484f545f524f4c4560981b8152905190819003600d01902081565b6001600160a01b031660009081526001602052604090205490565b6000610ad982604051806060016040528060248152602001611db760249139610acc86610ac7610f53565b610f13565b919063ffffffff61106016565b9050610aed83610ae7610f53565b83610f57565b610af7838361124a565b505050565b600b6020526000908152604090205481565b6000828152602081905260408120610b2c908363ffffffff61136816565b9392505050565b6000828152602081905260408120610b2c908363ffffffff61137416565b60058054604080516020601f60026000196101006001881615020190951694909404938401819004810282018101909252828152606093909290918301828280156107245780601f106106f957610100808354040283529160200191610724565b604080516c534e415053484f545f524f4c4560981b8152905190819003600d019020610be090610815610f53565b610c25576040805162461bcd60e51b81526020600482015260116024820152704552525f534e415053484f545f524f4c4560781b604482015290519081900360640190fd5b6109f3611389565b6000806000610c3d846008611265565b9150915081610c5357610c4e61074c565b610c55565b805b949350505050565b600081565b6000610742610c6f610f53565b846107d085604051806060016040528060258152602001611e456025913960026000610c99610f53565b6001600160a01b03908116825260208083019390935260409182016000908120918d1681529252902054919063ffffffff61106016565b6000610742610cdd610f53565b8484611043565b6000818152602081905260408120610746906113dd565b83421115610d42576040805162461bcd60e51b815260206004820152600f60248201526e4552525f455850495245445f53494760881b604482015290519081900360640190fd5b6001600160a01b038088166000818152600b602090815260409182902080546001810190915582517f00000000000000000000000000000000000000000000000000000000000000008184015280840194909452938a1660608401526080830189905260a083019390935260c08083018890528151808403909101815260e08301825280519084012061190160f01b6101008401527f0000000000000000000000000000000000000000000000000000000000000000610102840152610122808401919091528151808403909101815261014290920190528051910120610e2b818585856113e8565b6001600160a01b0316886001600160a01b031614610e82576040805162461bcd60e51b815260206004820152600f60248201526e4552525f494e56414c49445f53494760881b604482015290519081900360640190fd5b610e8d888888610f57565b5050505050505050565b604080516a4d494e5445525f524f4c4560a81b8152905190819003600b01902081565b600082815260208190526040902060020154610ed890610815610f53565b61090b5760405162461bcd60e51b8152600401808060200182810382526030815260200180611d3d6030913960400191505060405180910390fd5b6001600160a01b03918216600090815260026020908152604080832093909416825291909152205490565b6000610b2c836001600160a01b03841661155d565b3390565b6001600160a01b038316610f9c5760405162461bcd60e51b8152600401808060200182810382526024815260200180611e216024913960400191505060405180910390fd5b6001600160a01b038216610fe15760405162461bcd60e51b8152600401808060200182810382526022815260200180611cd36022913960400191505060405180910390fd5b6001600160a01b03808416600081815260026020908152604080832094871680845294825291829020859055815185815291517f8c5be1e5ebec7d5bd14f71427d1e84f3dd0314c0f7b2291e5b200ac8c7c3b9259281900390910190a3505050565b61104c836115a7565b611055826115a7565b610af78383836115d1565b600081848411156110ef5760405162461bcd60e51b81526004018080602001828103825283818151815260200191508051906020019080838360005b838110156110b457818101518382015260200161109c565b50505050905090810190601f1680156110e15780820380516001836020036101000a031916815260200191505b509250505060405180910390fd5b505050900390565b6000828152602081905260409020611115908263ffffffff610f3e16565b1561085f57611122610f53565b6001600160a01b0316816001600160a01b0316837f2f8788117e7eff1d82e926ec794901d17c78024a50270940304540a733656f0d60405160405180910390a45050565b6000828152602081905260409020611184908263ffffffff61173a16565b1561085f57611191610f53565b6001600160a01b0316816001600160a01b0316837ff6391f5c32d9c69d2a47ea670b442974b53935d1edc7fd64eb21e047a839171b60405160405180910390a45050565b600082820183811015610b2c576040805162461bcd60e51b815260206004820152601b60248201527f536166654d6174683a206164646974696f6e206f766572666c6f770000000000604482015290519081900360640190fd5b611238826115a7565b61124061174f565b61085f828261175e565b611253826115a7565b61125b61174f565b61085f828261185c565b600080600084116112b6576040805162461bcd60e51b815260206004820152601660248201527504552433230536e617073686f743a20696420697320360541b604482015290519081900360640190fd5b6112c0600a611964565b841115611314576040805162461bcd60e51b815260206004820152601d60248201527f4552433230536e617073686f743a206e6f6e6578697374656e74206964000000604482015290519081900360640190fd5b6000611326848663ffffffff61196816565b845490915081141561133f575060009150819050611361565b600184600101828154811061135057fe5b906000526020600020015492509250505b9250929050565b6000610b2c8383611a09565b6000610b2c836001600160a01b038416611a6d565b6000611395600a611a85565b60006113a1600a611964565b6040805182815290519192507f8030e83b04d87bef53480e26263266d6ca66863aa8506aca6f2559d18aa1cb67919081900360200190a1905090565b600061074682611964565b60007f7fffffffffffffffffffffffffffffff5d576e7357a4501ddfe92f46681b20a08211156114495760405162461bcd60e51b8152600401808060200182810382526022815260200180611d1b6022913960400191505060405180910390fd5b8360ff16601b1415801561146157508360ff16601c14155b1561149d5760405162461bcd60e51b8152600401808060200182810382526022815260200180611d6d6022913960400191505060405180910390fd5b604080516000808252602080830180855289905260ff88168385015260608301879052608083018690529251909260019260a080820193601f1981019281900390910190855afa1580156114f5573d6000803e3d6000fd5b5050604051601f1901519150506001600160a01b038116610a36576040805162461bcd60e51b815260206004820152601860248201527f45434453413a20696e76616c6964207369676e61747572650000000000000000604482015290519081900360640190fd5b60006115698383611a6d565b61159f57508154600181810184556000848152602080822090930184905584548482528286019093526040902091909155610746565b506000610746565b6001600160a01b03811660009081526007602052604090206109f3906115cc83610a81565b611a8e565b6001600160a01b0383166116165760405162461bcd60e51b8152600401808060200182810382526025815260200180611dfc6025913960400191505060405180910390fd5b6001600160a01b03821661165b5760405162461bcd60e51b8152600401808060200182810382526023815260200180611c5f6023913960400191505060405180910390fd5b611666838383610af7565b6116a981604051806060016040528060268152602001611cf5602691396001600160a01b038616600090815260016020526040902054919063ffffffff61106016565b6001600160a01b0380851660009081526001602052604080822093909355908416815220546116de908263ffffffff6111d516565b6001600160a01b0380841660008181526001602090815260409182902094909455805185815290519193928716927fddf252ad1be2c89b69c2b068fc378daa952ba7f163c4a11628f55a4df523b3ef92918290030190a3505050565b6000610b2c836001600160a01b038416611ada565b61175c60086115cc61074c565b565b6001600160a01b0382166117b9576040805162461bcd60e51b815260206004820152601f60248201527f45524332303a206d696e7420746f20746865207a65726f206164647265737300604482015290519081900360640190fd5b6117c560008383610af7565b6003546117d8908263ffffffff6111d516565b6003556001600160a01b038216600090815260016020526040902054611804908263ffffffff6111d516565b6001600160a01b03831660008181526001602090815260408083209490945583518581529351929391927fddf252ad1be2c89b69c2b068fc378daa952ba7f163c4a11628f55a4df523b3ef9281900390910190a35050565b6001600160a01b0382166118a15760405162461bcd60e51b8152600401808060200182810382526021815260200180611ddb6021913960400191505060405180910390fd5b6118ad82600083610af7565b6118f081604051806060016040528060228152602001611cb1602291396001600160a01b038516600090815260016020526040902054919063ffffffff61106016565b6001600160a01b03831660009081526001602052604090205560035461191c908263ffffffff611ba016565b6003556040805182815290516000916001600160a01b038516917fddf252ad1be2c89b69c2b068fc378daa952ba7f163c4a11628f55a4df523b3ef9181900360200190a35050565b5490565b815460009061197957506000610746565b82546000905b808210156119c85760006119938383611be2565b9050848682815481106119a257fe5b906000526020600020015411156119bb578091506119c2565b8060010192505b5061197f565b6000821180156119f05750838560018403815481106119e357fe5b9060005260206000200154145b15611a015750600019019050610746565b509050610746565b81546000908210611a4b5760405162461bcd60e51b8152600401808060200182810382526022815260200180611c3d6022913960400191505060405180910390fd5b826000018281548110611a5a57fe5b9060005260206000200154905092915050565b60009081526001919091016020526040902054151590565b80546001019055565b6000611a9a600a611964565b905080611aa684611c07565b1015610af7578254600180820185556000858152602080822090930193909355938401805494850181558252902090910155565b60008181526001830160205260408120548015611b965783546000198083019190810190600090879083908110611b0d57fe5b9060005260206000200154905080876000018481548110611b2a57fe5b600091825260208083209091019290925582815260018981019092526040902090840190558654879080611b5a57fe5b60019003818190600052602060002001600090559055866001016000878152602001908152602001600020600090556001945050505050610746565b6000915050610746565b6000610b2c83836040518060400160405280601e81526020017f536166654d6174683a207375627472616374696f6e206f766572666c6f770000815250611060565b60006002808306600285060181611bf557fe5b04600283046002850401019392505050565b8054600090611c18575060006107f2565b815482906000198101908110611c2a57fe5b906000526020600020015490506107f256fe456e756d657261626c655365743a20696e646578206f7574206f6620626f756e647345524332303a207472616e7366657220746f20746865207a65726f2061646472657373416363657373436f6e74726f6c3a2073656e646572206d75737420626520616e2061646d696e20746f206772616e7445524332303a206275726e20616d6f756e7420657863656564732062616c616e636545524332303a20617070726f766520746f20746865207a65726f206164647265737345524332303a207472616e7366657220616d6f756e7420657863656564732062616c616e636545434453413a20696e76616c6964207369676e6174757265202773272076616c7565416363657373436f6e74726f6c3a2073656e646572206d75737420626520616e2061646d696e20746f207265766f6b6545434453413a20696e76616c6964207369676e6174757265202776272076616c756545524332303a207472616e7366657220616d6f756e74206578636565647320616c6c6f77616e636545524332303a206275726e20616d6f756e74206578636565647320616c6c6f77616e636545524332303a206275726e2066726f6d20746865207a65726f206164647265737345524332303a207472616e736665722066726f6d20746865207a65726f206164647265737345524332303a20617070726f76652066726f6d20746865207a65726f206164647265737345524332303a2064656372656173656420616c6c6f77616e63652062656c6f77207a65726f416363657373436f6e74726f6c3a2063616e206f6e6c792072656e6f756e636520726f6c657320666f722073656c66a264697066735822122031082c4439132f17785de82bb4b8dccf31f6d164f050d12c07a504496f2ba5aa64736f6c63430006080033454950373132446f6d61696e28737472696e67206e616d652c737472696e672076657273696f6e2c75696e7432353620636861696e49642c6164647265737320766572696679696e67436f6e747261637429",
  "linkReferences": {},
  "deployedLinkReferences": {}
}