{
  "_format": "hh-sol-artifact-1",
  "contractName": "ProtocolFeesCollector",
  "sourceName": "contracts/ProtocolFeesCollector.sol",
  "abi": [
    {
      "inputs": [
        {
          "internalType": "contract IVault",
          "name": "_vault",
          "type": "address"
        }
      ],
      "stateMutability": "nonpayable",
      "type": "constructor"
    },
    {
      "anonymous": false,
      "inputs": [
        {
          "indexed": false,
          "internalType": "uint256",
          "name": "newFlashLoanFeePercentage",
          "type": "uint256"
        }
      ],
      "name": "FlashLoanFeePercentageChanged",
      "type": "event"
    },
    {
      "anonymous": false,
      "inputs": [
        {
          "indexed": false,
          "internalType": "uint256",
          "name": "newSwapFeePercentage",
          "type": "uint256"
        }
      ],
      "name": "SwapFeePercentageChanged",
      "type": "event"
    },
    {
      "inputs": [
        {
          "internalType": "bytes4",
          "name": "selector",
          "type": "bytes4"
        }
      ],
      "name": "getActionId",
      "outputs": [
        {
          "internalType": "bytes32",
          "name": "",
          "type": "bytes32"
        }
      ],
      "stateMutability": "view",
      "type": "function"
    },
    {
      "inputs": [],
      "name": "getAuthorizer",
      "outputs": [
        {
          "internalType": "contract IAuthorizer",
          "name": "",
          "type": "address"
        }
      ],
      "stateMutability": "view",
      "type": "function"
    },
    {
      "inputs": [
        {
          "internalType": "contract IERC20[]",
          "name": "tokens",
          "type": "address[]"
        }
      ],
      "name": "getCollectedFeeAmounts",
      "outputs": [
        {
          "internalType": "uint256[]",
          "name": "feeAmounts",
          "type": "uint256[]"
        }
      ],
      "stateMutability": "view",
      "type": "function"
    },
    {
      "inputs": [],
      "name": "getFlashLoanFeePercentage",
      "outputs": [
        {
          "internalType": "uint256",
          "name": "",
          "type": "uint256"
        }
      ],
      "stateMutability": "view",
      "type": "function"
    },
    {
      "inputs": [],
      "name": "getSwapFeePercentage",
      "outputs": [
        {
          "internalType": "uint256",
          "name": "",
          "type": "uint256"
        }
      ],
      "stateMutability": "view",
      "type": "function"
    },
    {
      "inputs": [
        {
          "internalType": "uint256",
          "name": "newFlashLoanFeePercentage",
          "type": "uint256"
        }
      ],
      "name": "setFlashLoanFeePercentage",
      "outputs": [],
      "stateMutability": "nonpayable",
      "type": "function"
    },
    {
      "inputs": [
        {
          "internalType": "uint256",
          "name": "newSwapFeePercentage",
          "type": "uint256"
        }
      ],
      "name": "setSwapFeePercentage",
      "outputs": [],
      "stateMutability": "nonpayable",
      "type": "function"
    },
    {
      "inputs": [],
      "name": "vault",
      "outputs": [
        {
          "internalType": "contract IVault",
          "name": "",
          "type": "address"
        }
      ],
      "stateMutability": "view",
      "type": "function"
    },
    {
      "inputs": [
        {
          "internalType": "contract IERC20[]",
          "name": "tokens",
          "type": "address[]"
        },
        {
          "internalType": "uint256[]",
          "name": "amounts",
          "type": "uint256[]"
        },
        {
          "internalType": "address",
          "name": "recipient",
          "type": "address"
        }
      ],
      "name": "withdrawCollectedFees",
      "outputs": [],
      "stateMutability": "nonpayable",
      "type": "function"
    }
  ],
  "bytecode": "0x60c060405234801561001057600080fd5b50604051610b7a380380610b7a83398101604081905261002f9161004d565b30608052600160005560601b6001600160601b03191660a05261007b565b60006020828403121561005e578081fd5b81516001600160a01b0381168114610074578182fd5b9392505050565b60805160a05160601c610ad46100a66000398061040352806105095250806102975250610ad46000f3fe608060405234801561001057600080fd5b50600436106100935760003560e01c8063851c1bb311610066578063851c1bb3146100f1578063aaabadc514610104578063d877845c14610119578063e42abf3514610121578063fbfa77cf1461014157610093565b806338e9922e1461009857806355c67628146100ad5780636b6b9f69146100cb5780636daefab6146100de575b600080fd5b6100ab6100a6366004610948565b610149565b005b6100b56101a8565b6040516100c29190610a3a565b60405180910390f35b6100ab6100d9366004610948565b6101ae565b6100ab6100ec366004610795565b610201565b6100b56100ff3660046108e8565b610293565b61010c6102e5565b6040516100c291906109c9565b6100b56102f4565b61013461012f366004610816565b6102fa565b6040516100c291906109f6565b61010c610401565b610151610425565b6101686706f05b59d3b20000821115610258610456565b60018190556040517fa9ba3ffe0b6c366b81232caab38605a0699ad5398d6cce76f91ee809e322dafc9061019d908390610a3a565b60405180910390a150565b60015490565b6101b6610425565b6101cc662386f26fc10000821115610259610456565b60028190556040517f5a0b7386237e7f07fa741efc64e59c9387d2cccafec760efed4d53387f20e19a9061019d908390610a3a565b610209610468565b610211610425565b61021b8483610481565b60005b8481101561028357600086868381811061023457fe5b9050602002016020810190610249919061092c565b9050600085858481811061025957fe5b6020029190910135915061027990506001600160a01b038316858361048e565b505060010161021e565b5061028c6104fe565b5050505050565b60007f0000000000000000000000000000000000000000000000000000000000000000826040516020016102c8929190610978565b604051602081830303815290604052805190602001209050919050565b60006102ef610505565b905090565b60025490565b6060815167ffffffffffffffff8111801561031457600080fd5b5060405190808252806020026020018201604052801561033e578160200160208202803683370190505b50905060005b82518110156103fb5782818151811061035957fe5b60200260200101516001600160a01b03166370a08231306040518263ffffffff1660e01b815260040161038c91906109c9565b60206040518083038186803b1580156103a457600080fd5b505afa1580156103b8573d6000803e3d6000fd5b505050506040513d601f19601f820116820180604052508101906103dc9190610960565b8282815181106103e857fe5b6020908102919091010152600101610344565b50919050565b7f000000000000000000000000000000000000000000000000000000000000000081565b600061043c6000356001600160e01b031916610293565b905061045361044b8233610598565b610191610456565b50565b81610464576104648161062a565b5050565b61047a60026000541415610190610456565b6002600055565b6104648183146067610456565b6104f98363a9059cbb60e01b84846040516024016104ad9291906109dd565b60408051601f198184030181529190526020810180517bffffffffffffffffffffffffffffffffffffffffffffffffffffffff166001600160e01b03199093169290921790915261063a565b505050565b6001600055565b60007f00000000000000000000000000000000000000000000000000000000000000006001600160a01b031663aaabadc56040518163ffffffff1660e01b815260040160206040518083038186803b15801561056057600080fd5b505afa158015610574573d6000803e3d6000fd5b505050506040513d601f19601f820116820180604052508101906102ef9190610910565b60006105a2610505565b6001600160a01b0316639be2a8848484306040518463ffffffff1660e01b81526004016105d193929190610a43565b60206040518083038186803b1580156105e957600080fd5b505afa1580156105fd573d6000803e3d6000fd5b505050506040513d601f19601f8201168201806040525081019061062191906108c1565b90505b92915050565b610453816210905360ea1b6106e0565b60006060836001600160a01b0316836040516106569190610990565b6000604051808303816000865af19150503d8060008114610693576040519150601f19603f3d011682016040523d82523d6000602084013e610698565b606091505b509150915060008214156106b0573d6000803e3d6000fd5b6106da8151600014806106d25750818060200190518101906106d291906108c1565b6101a2610456565b50505050565b62461bcd60e51b600090815260206004526007602452600a808404818106603090810160081b958390069590950190829004918206850160101b01602363ffffff0060e086901c160160181b0190930160c81b60445260e882901c90606490fd5b60008083601f840112610752578182fd5b50813567ffffffffffffffff811115610769578182fd5b602083019150836020808302850101111561078357600080fd5b9250929050565b803561062481610a89565b6000806000806000606086880312156107ac578081fd5b853567ffffffffffffffff808211156107c3578283fd5b6107cf89838a01610741565b909750955060208801359150808211156107e7578283fd5b506107f488828901610741565b909450925050604086013561080881610a89565b809150509295509295909350565b60006020808385031215610828578182fd5b823567ffffffffffffffff8082111561083f578384fd5b818501915085601f830112610852578384fd5b813581811115610860578485fd5b8381029150610870848301610a62565b8181528481019084860184860187018a101561088a578788fd5b8795505b838610156108b4576108a08a8261078a565b83526001959095019491860191860161088e565b5098975050505050505050565b6000602082840312156108d2578081fd5b815180151581146108e1578182fd5b9392505050565b6000602082840312156108f9578081fd5b81356001600160e01b0319811681146108e1578182fd5b600060208284031215610921578081fd5b81516108e181610a89565b60006020828403121561093d578081fd5b81356108e181610a89565b600060208284031215610959578081fd5b5035919050565b600060208284031215610971578081fd5b5051919050565b9182526001600160e01b031916602082015260240190565b60008251815b818110156109b05760208186018101518583015201610996565b818111156109be5782828501525b509190910192915050565b6001600160a01b0391909116815260200190565b6001600160a01b03929092168252602082015260400190565b6020808252825182820181905260009190848201906040850190845b81811015610a2e57835183529284019291840191600101610a12565b50909695505050505050565b90815260200190565b9283526001600160a01b03918216602084015216604082015260600190565b60405181810167ffffffffffffffff81118282101715610a8157600080fd5b604052919050565b6001600160a01b038116811461045357600080fdfea2646970667358221220ccfa65eb83ed7d0bab69299686539e4f3c49b087d278cdefeea8b8421fafb4e364736f6c63430007010033",
  "linkReferences": {},
  "deployedLinkReferences": {}
}