{
  "_format": "hh-sol-artifact-1",
  "contractName": "WeightedPool",
  "sourceName": "contracts/WeightedPool.sol",
  "abi": [
    {
      "inputs": [
        {
          "components": [
            {
              "internalType": "string",
              "name": "name",
              "type": "string"
            },
            {
              "internalType": "string",
              "name": "symbol",
              "type": "string"
            },
            {
              "internalType": "contract IERC20[]",
              "name": "tokens",
              "type": "address[]"
            },
            {
              "internalType": "uint256[]",
              "name": "normalizedWeights",
              "type": "uint256[]"
            },
            {
              "internalType": "contract IRateProvider[]",
              "name": "rateProviders",
              "type": "address[]"
            },
            {
              "internalType": "address[]",
              "name": "assetManagers",
              "type": "address[]"
            },
            {
              "internalType": "uint256",
              "name": "swapFeePercentage",
              "type": "uint256"
            }
          ],
          "internalType": "struct WeightedPool.NewPoolParams",
          "name": "params",
          "type": "tuple"
        },
        {
          "internalType": "contract IVault",
          "name": "vault",
          "type": "address"
        },
        {
          "internalType": "contract IProtocolFeePercentagesProvider",
          "name": "protocolFeeProvider",
          "type": "address"
        },
        {
          "internalType": "uint256",
          "name": "pauseWindowDuration",
          "type": "uint256"
        },
        {
          "internalType": "uint256",
          "name": "bufferPeriodDuration",
          "type": "uint256"
        },
        {
          "internalType": "address",
          "name": "owner",
          "type": "address"
        }
      ],
      "stateMutability": "nonpayable",
      "type": "constructor"
    },
    {
      "anonymous": false,
      "inputs": [
        {
          "indexed": true,
          "internalType": "address",
          "name": "owner",
          "type": "address"
        },
        {
          "indexed": true,
          "internalType": "address",
          "name": "spender",
          "type": "address"
        },
        {
          "indexed": false,
          "internalType": "uint256",
          "name": "value",
          "type": "uint256"
        }
      ],
      "name": "Approval",
      "type": "event"
    },
    {
      "anonymous": false,
      "inputs": [
        {
          "indexed": false,
          "internalType": "bool",
          "name": "paused",
          "type": "bool"
        }
      ],
      "name": "PausedStateChanged",
      "type": "event"
    },
    {
      "anonymous": false,
      "inputs": [
        {
          "indexed": false,
          "internalType": "bytes32",
          "name": "feeCache",
          "type": "bytes32"
        }
      ],
      "name": "ProtocolFeePercentageCacheUpdated",
      "type": "event"
    },
    {
      "anonymous": false,
      "inputs": [
        {
          "indexed": false,
          "internalType": "bool",
          "name": "enabled",
          "type": "bool"
        }
      ],
      "name": "RecoveryModeStateChanged",
      "type": "event"
    },
    {
      "anonymous": false,
      "inputs": [
        {
          "indexed": false,
          "internalType": "uint256",
          "name": "swapFeePercentage",
          "type": "uint256"
        }
      ],
      "name": "SwapFeePercentageChanged",
      "type": "event"
    },
    {
      "anonymous": false,
      "inputs": [
        {
          "indexed": true,
          "internalType": "address",
          "name": "from",
          "type": "address"
        },
        {
          "indexed": true,
          "internalType": "address",
          "name": "to",
          "type": "address"
        },
        {
          "indexed": false,
          "internalType": "uint256",
          "name": "value",
          "type": "uint256"
        }
      ],
      "name": "Transfer",
      "type": "event"
    },
    {
      "inputs": [],
      "name": "DOMAIN_SEPARATOR",
      "outputs": [
        {
          "internalType": "bytes32",
          "name": "",
          "type": "bytes32"
        }
      ],
      "stateMutability": "view",
      "type": "function"
    },
    {
      "inputs": [
        {
          "internalType": "address",
          "name": "owner",
          "type": "address"
        },
        {
          "internalType": "address",
          "name": "spender",
          "type": "address"
        }
      ],
      "name": "allowance",
      "outputs": [
        {
          "internalType": "uint256",
          "name": "",
          "type": "uint256"
        }
      ],
      "stateMutability": "view",
      "type": "function"
    },
    {
      "inputs": [
        {
          "internalType": "address",
          "name": "spender",
          "type": "address"
        },
        {
          "internalType": "uint256",
          "name": "amount",
          "type": "uint256"
        }
      ],
      "name": "approve",
      "outputs": [
        {
          "internalType": "bool",
          "name": "",
          "type": "bool"
        }
      ],
      "stateMutability": "nonpayable",
      "type": "function"
    },
    {
      "inputs": [
        {
          "internalType": "address",
          "name": "account",
          "type": "address"
        }
      ],
      "name": "balanceOf",
      "outputs": [
        {
          "internalType": "uint256",
          "name": "",
          "type": "uint256"
        }
      ],
      "stateMutability": "view",
      "type": "function"
    },
    {
      "inputs": [],
      "name": "decimals",
      "outputs": [
        {
          "internalType": "uint8",
          "name": "",
          "type": "uint8"
        }
      ],
      "stateMutability": "view",
      "type": "function"
    },
    {
      "inputs": [
        {
          "internalType": "address",
          "name": "spender",
          "type": "address"
        },
        {
          "internalType": "uint256",
          "name": "amount",
          "type": "uint256"
        }
      ],
      "name": "decreaseAllowance",
      "outputs": [
        {
          "internalType": "bool",
          "name": "",
          "type": "bool"
        }
      ],
      "stateMutability": "nonpayable",
      "type": "function"
    },
    {
      "inputs": [],
      "name": "disableRecoveryMode",
      "outputs": [],
      "stateMutability": "nonpayable",
      "type": "function"
    },
    {
      "inputs": [],
      "name": "enableRecoveryMode",
      "outputs": [],
      "stateMutability": "nonpayable",
      "type": "function"
    },
    {
      "inputs": [],
      "name": "getATHRateProduct",
      "outputs": [
        {
          "internalType": "uint256",
          "name": "",
          "type": "uint256"
        }
      ],
      "stateMutability": "view",
      "type": "function"
    },
    {
      "inputs": [
        {
          "internalType": "bytes4",
          "name": "selector",
          "type": "bytes4"
        }
      ],
      "name": "getActionId",
      "outputs": [
        {
          "internalType": "bytes32",
          "name": "",
          "type": "bytes32"
        }
      ],
      "stateMutability": "view",
      "type": "function"
    },
    {
      "inputs": [],
      "name": "getActualSupply",
      "outputs": [
        {
          "internalType": "uint256",
          "name": "",
          "type": "uint256"
        }
      ],
      "stateMutability": "view",
      "type": "function"
    },
    {
      "inputs": [],
      "name": "getAuthorizer",
      "outputs": [
        {
          "internalType": "contract IAuthorizer",
          "name": "",
          "type": "address"
        }
      ],
      "stateMutability": "view",
      "type": "function"
    },
    {
      "inputs": [],
      "name": "getDomainSeparator",
      "outputs": [
        {
          "internalType": "bytes32",
          "name": "",
          "type": "bytes32"
        }
      ],
      "stateMutability": "view",
      "type": "function"
    },
    {
      "inputs": [],
      "name": "getInvariant",
      "outputs": [
        {
          "internalType": "uint256",
          "name": "",
          "type": "uint256"
        }
      ],
      "stateMutability": "view",
      "type": "function"
    },
    {
      "inputs": [],
      "name": "getLastPostJoinExitInvariant",
      "outputs": [
        {
          "internalType": "uint256",
          "name": "",
          "type": "uint256"
        }
      ],
      "stateMutability": "view",
      "type": "function"
    },
    {
      "inputs": [
        {
          "internalType": "address",
          "name": "account",
          "type": "address"
        }
      ],
      "name": "getNextNonce",
      "outputs": [
        {
          "internalType": "uint256",
          "name": "",
          "type": "uint256"
        }
      ],
      "stateMutability": "view",
      "type": "function"
    },
    {
      "inputs": [],
      "name": "getNormalizedWeights",
      "outputs": [
        {
          "internalType": "uint256[]",
          "name": "",
          "type": "uint256[]"
        }
      ],
      "stateMutability": "view",
      "type": "function"
    },
    {
      "inputs": [],
      "name": "getOwner",
      "outputs": [
        {
          "internalType": "address",
          "name": "",
          "type": "address"
        }
      ],
      "stateMutability": "view",
      "type": "function"
    },
    {
      "inputs": [],
      "name": "getPausedState",
      "outputs": [
        {
          "internalType": "bool",
          "name": "paused",
          "type": "bool"
        },
        {
          "internalType": "uint256",
          "name": "pauseWindowEndTime",
          "type": "uint256"
        },
        {
          "internalType": "uint256",
          "name": "bufferPeriodEndTime",
          "type": "uint256"
        }
      ],
      "stateMutability": "view",
      "type": "function"
    },
    {
      "inputs": [],
      "name": "getPoolId",
      "outputs": [
        {
          "internalType": "bytes32",
          "name": "",
          "type": "bytes32"
        }
      ],
      "stateMutability": "view",
      "type": "function"
    },
    {
      "inputs": [
        {
          "internalType": "uint256",
          "name": "feeType",
          "type": "uint256"
        }
      ],
      "name": "getProtocolFeePercentageCache",
      "outputs": [
        {
          "internalType": "uint256",
          "name": "",
          "type": "uint256"
        }
      ],
      "stateMutability": "view",
      "type": "function"
    },
    {
      "inputs": [],
      "name": "getProtocolFeesCollector",
      "outputs": [
        {
          "internalType": "contract IProtocolFeesCollector",
          "name": "",
          "type": "address"
        }
      ],
      "stateMutability": "view",
      "type": "function"
    },
    {
      "inputs": [
        {
          "internalType": "uint256",
          "name": "feeType",
          "type": "uint256"
        }
      ],
      "name": "getProviderFeeId",
      "outputs": [
        {
          "internalType": "uint256",
          "name": "",
          "type": "uint256"
        }
      ],
      "stateMutability": "view",
      "type": "function"
    },
    {
      "inputs": [],
      "name": "getRateProviders",
      "outputs": [
        {
          "internalType": "contract IRateProvider[]",
          "name": "",
          "type": "address[]"
        }
      ],
      "stateMutability": "view",
      "type": "function"
    },
    {
      "inputs": [],
      "name": "getScalingFactors",
      "outputs": [
        {
          "internalType": "uint256[]",
          "name": "",
          "type": "uint256[]"
        }
      ],
      "stateMutability": "view",
      "type": "function"
    },
    {
      "inputs": [],
      "name": "getSwapFeePercentage",
      "outputs": [
        {
          "internalType": "uint256",
          "name": "",
          "type": "uint256"
        }
      ],
      "stateMutability": "view",
      "type": "function"
    },
    {
      "inputs": [],
      "name": "getVault",
      "outputs": [
        {
          "internalType": "contract IVault",
          "name": "",
          "type": "address"
        }
      ],
      "stateMutability": "view",
      "type": "function"
    },
    {
      "inputs": [],
      "name": "inRecoveryMode",
      "outputs": [
        {
          "internalType": "bool",
          "name": "",
          "type": "bool"
        }
      ],
      "stateMutability": "view",
      "type": "function"
    },
    {
      "inputs": [
        {
          "internalType": "address",
          "name": "spender",
          "type": "address"
        },
        {
          "internalType": "uint256",
          "name": "addedValue",
          "type": "uint256"
        }
      ],
      "name": "increaseAllowance",
      "outputs": [
        {
          "internalType": "bool",
          "name": "",
          "type": "bool"
        }
      ],
      "stateMutability": "nonpayable",
      "type": "function"
    },
    {
      "inputs": [],
      "name": "name",
      "outputs": [
        {
          "internalType": "string",
          "name": "",
          "type": "string"
        }
      ],
      "stateMutability": "view",
      "type": "function"
    },
    {
      "inputs": [
        {
          "internalType": "address",
          "name": "owner",
          "type": "address"
        }
      ],
      "name": "nonces",
      "outputs": [
        {
          "internalType": "uint256",
          "name": "",
          "type": "uint256"
        }
      ],
      "stateMutability": "view",
      "type": "function"
    },
    {
      "inputs": [
        {
          "internalType": "bytes32",
          "name": "poolId",
          "type": "bytes32"
        },
        {
          "internalType": "address",
          "name": "sender",
          "type": "address"
        },
        {
          "internalType": "address",
          "name": "recipient",
          "type": "address"
        },
        {
          "internalType": "uint256[]",
          "name": "balances",
          "type": "uint256[]"
        },
        {
          "internalType": "uint256",
          "name": "lastChangeBlock",
          "type": "uint256"
        },
        {
          "internalType": "uint256",
          "name": "protocolSwapFeePercentage",
          "type": "uint256"
        },
        {
          "internalType": "bytes",
          "name": "userData",
          "type": "bytes"
        }
      ],
      "name": "onExitPool",
      "outputs": [
        {
          "internalType": "uint256[]",
          "name": "",
          "type": "uint256[]"
        },
        {
          "internalType": "uint256[]",
          "name": "",
          "type": "uint256[]"
        }
      ],
      "stateMutability": "nonpayable",
      "type": "function"
    },
    {
      "inputs": [
        {
          "internalType": "bytes32",
          "name": "poolId",
          "type": "bytes32"
        },
        {
          "internalType": "address",
          "name": "sender",
          "type": "address"
        },
        {
          "internalType": "address",
          "name": "recipient",
          "type": "address"
        },
        {
          "internalType": "uint256[]",
          "name": "balances",
          "type": "uint256[]"
        },
        {
          "internalType": "uint256",
          "name": "lastChangeBlock",
          "type": "uint256"
        },
        {
          "internalType": "uint256",
          "name": "protocolSwapFeePercentage",
          "type": "uint256"
        },
        {
          "internalType": "bytes",
          "name": "userData",
          "type": "bytes"
        }
      ],
      "name": "onJoinPool",
      "outputs": [
        {
          "internalType": "uint256[]",
          "name": "",
          "type": "uint256[]"
        },
        {
          "internalType": "uint256[]",
          "name": "",
          "type": "uint256[]"
        }
      ],
      "stateMutability": "nonpayable",
      "type": "function"
    },
    {
      "inputs": [
        {
          "components": [
            {
              "internalType": "enum IVault.SwapKind",
              "name": "kind",
              "type": "uint8"
            },
            {
              "internalType": "contract IERC20",
              "name": "tokenIn",
              "type": "address"
            },
            {
              "internalType": "contract IERC20",
              "name": "tokenOut",
              "type": "address"
            },
            {
              "internalType": "uint256",
              "name": "amount",
              "type": "uint256"
            },
            {
              "internalType": "bytes32",
              "name": "poolId",
              "type": "bytes32"
            },
            {
              "internalType": "uint256",
              "name": "lastChangeBlock",
              "type": "uint256"
            },
            {
              "internalType": "address",
              "name": "from",
              "type": "address"
            },
            {
              "internalType": "address",
              "name": "to",
              "type": "address"
            },
            {
              "internalType": "bytes",
              "name": "userData",
              "type": "bytes"
            }
          ],
          "internalType": "struct IPoolSwapStructs.SwapRequest",
          "name": "request",
          "type": "tuple"
        },
        {
          "internalType": "uint256",
          "name": "balanceTokenIn",
          "type": "uint256"
        },
        {
          "internalType": "uint256",
          "name": "balanceTokenOut",
          "type": "uint256"
        }
      ],
      "name": "onSwap",
      "outputs": [
        {
          "internalType": "uint256",
          "name": "",
          "type": "uint256"
        }
      ],
      "stateMutability": "nonpayable",
      "type": "function"
    },
    {
      "inputs": [],
      "name": "pause",
      "outputs": [],
      "stateMutability": "nonpayable",
      "type": "function"
    },
    {
      "inputs": [
        {
          "internalType": "address",
          "name": "owner",
          "type": "address"
        },
        {
          "internalType": "address",
          "name": "spender",
          "type": "address"
        },
        {
          "internalType": "uint256",
          "name": "value",
          "type": "uint256"
        },
        {
          "internalType": "uint256",
          "name": "deadline",
          "type": "uint256"
        },
        {
          "internalType": "uint8",
          "name": "v",
          "type": "uint8"
        },
        {
          "internalType": "bytes32",
          "name": "r",
          "type": "bytes32"
        },
        {
          "internalType": "bytes32",
          "name": "s",
          "type": "bytes32"
        }
      ],
      "name": "permit",
      "outputs": [],
      "stateMutability": "nonpayable",
      "type": "function"
    },
    {
      "inputs": [
        {
          "internalType": "bytes32",
          "name": "poolId",
          "type": "bytes32"
        },
        {
          "internalType": "address",
          "name": "sender",
          "type": "address"
        },
        {
          "internalType": "address",
          "name": "recipient",
          "type": "address"
        },
        {
          "internalType": "uint256[]",
          "name": "balances",
          "type": "uint256[]"
        },
        {
          "internalType": "uint256",
          "name": "lastChangeBlock",
          "type": "uint256"
        },
        {
          "internalType": "uint256",
          "name": "protocolSwapFeePercentage",
          "type": "uint256"
        },
        {
          "internalType": "bytes",
          "name": "userData",
          "type": "bytes"
        }
      ],
      "name": "queryExit",
      "outputs": [
        {
          "internalType": "uint256",
          "name": "bptIn",
          "type": "uint256"
        },
        {
          "internalType": "uint256[]",
          "name": "amountsOut",
          "type": "uint256[]"
        }
      ],
      "stateMutability": "nonpayable",
      "type": "function"
    },
    {
      "inputs": [
        {
          "internalType": "bytes32",
          "name": "poolId",
          "type": "bytes32"
        },
        {
          "internalType": "address",
          "name": "sender",
          "type": "address"
        },
        {
          "internalType": "address",
          "name": "recipient",
          "type": "address"
        },
        {
          "internalType": "uint256[]",
          "name": "balances",
          "type": "uint256[]"
        },
        {
          "internalType": "uint256",
          "name": "lastChangeBlock",
          "type": "uint256"
        },
        {
          "internalType": "uint256",
          "name": "protocolSwapFeePercentage",
          "type": "uint256"
        },
        {
          "internalType": "bytes",
          "name": "userData",
          "type": "bytes"
        }
      ],
      "name": "queryJoin",
      "outputs": [
        {
          "internalType": "uint256",
          "name": "bptOut",
          "type": "uint256"
        },
        {
          "internalType": "uint256[]",
          "name": "amountsIn",
          "type": "uint256[]"
        }
      ],
      "stateMutability": "nonpayable",
      "type": "function"
    },
    {
      "inputs": [
        {
          "internalType": "uint256",
          "name": "swapFeePercentage",
          "type": "uint256"
        }
      ],
      "name": "setSwapFeePercentage",
      "outputs": [],
      "stateMutability": "nonpayable",
      "type": "function"
    },
    {
      "inputs": [],
      "name": "symbol",
      "outputs": [
        {
          "internalType": "string",
          "name": "",
          "type": "string"
        }
      ],
      "stateMutability": "view",
      "type": "function"
    },
    {
      "inputs": [],
      "name": "totalSupply",
      "outputs": [
        {
          "internalType": "uint256",
          "name": "",
          "type": "uint256"
        }
      ],
      "stateMutability": "view",
      "type": "function"
    },
    {
      "inputs": [
        {
          "internalType": "address",
          "name": "recipient",
          "type": "address"
        },
        {
          "internalType": "uint256",
          "name": "amount",
          "type": "uint256"
        }
      ],
      "name": "transfer",
      "outputs": [
        {
          "internalType": "bool",
          "name": "",
          "type": "bool"
        }
      ],
      "stateMutability": "nonpayable",
      "type": "function"
    },
    {
      "inputs": [
        {
          "internalType": "address",
          "name": "sender",
          "type": "address"
        },
        {
          "internalType": "address",
          "name": "recipient",
          "type": "address"
        },
        {
          "internalType": "uint256",
          "name": "amount",
          "type": "uint256"
        }
      ],
      "name": "transferFrom",
      "outputs": [
        {
          "internalType": "bool",
          "name": "",
          "type": "bool"
        }
      ],
      "stateMutability": "nonpayable",
      "type": "function"
    },
    {
      "inputs": [],
      "name": "unpause",
      "outputs": [],
      "stateMutability": "nonpayable",
      "type": "function"
    },
    {
      "inputs": [],
      "name": "updateProtocolFeePercentageCache",
      "outputs": [],
      "stateMutability": "nonpayable",
      "type": "function"
    }
  ],
  "bytecode": "0x6106406040523480156200001257600080fd5b50604051620079d3380380620079d3833981016040819052620000359162001585565b856040015151866080015185604051806060016040528060008152602001600281526020016003815250888a600001518b602001518c604001518d60a001518e60c001518c8c8c600089875160021480156200008f575081155b6200009c5760016200009f565b60025b8a8a8a8a8a8a8a8a828289898d85336001600160a01b031660001b8480604051806040016040528060018152602001603160f81b81525087878160039080519060200190620000f09291906200124f565b508051620001069060049060208401906200124f565b50506005805460ff19166012179055508151602092830120608052805191012060a052507f8b73c3c69bb8fe3d512ecc4cf759cc79239f7b179b0ffacaa9a75d522b39400f60c05260e0526001600160601b0319606091821b81166101005291901b166101205250620001859050630163f50083111561019462000ab0565b620001996276a70082111561019562000ab0565b4290910161014081905201610160528551620001bb906002111560c862000ab0565b620001d5620001c962000ac5565b8751111560c962000ab0565b620001e08462000aca565b6000620001fb8b8b898962000b5e60201b620014241760201c565b90508061018081815250508a6001600160a01b031663d2946c2b6040518163ffffffff1660e01b815260040160206040518083038186803b1580156200024057600080fd5b505afa15801562000255573d6000803e3d6000fd5b505050506040513d601f19601f820116820180604052508101906200027b919062001566565b6001600160a01b03166101a0816001600160a01b031660601b81525050505050505050505050505050505050505050505050816001600160a01b03166101c0816001600160a01b031660601b815250506000620002f0826040015160088060000101600862000b8d60201b620014441760201c565b6200031183602001516008600001600862000b8d60201b620014441760201c565b6200032f84600001516000600862000b8d60201b620014441760201c565b17176101e0819052905062000345838262000ba2565b506200035a915050600883111560c962000ab0565b6200037282825162000e2860201b620014571760201c565b6200037d8162000e37565b151560f81b61030052805181906000906200039457fe5b60200260200101516001600160a01b0316610200816001600160a01b031660601b8152505080600181518110620003c757fe5b60200260200101516001600160a01b0316610220816001600160a01b031660601b8152505060028211620003fd57600062000414565b806002815181106200040b57fe5b60200260200101515b60601b6001600160601b0319166102405260038211620004365760006200044d565b806003815181106200044457fe5b60200260200101515b60601b6001600160601b03191661026052600482116200046f57600062000486565b806004815181106200047d57fe5b60200260200101515b60601b6001600160601b0319166102805260058211620004a8576000620004bf565b80600581518110620004b657fe5b60200260200101515b60601b6001600160601b0319166102a05260068211620004e1576000620004f8565b80600681518110620004ef57fe5b60200260200101515b60601b6001600160601b0319166102c052600782116200051a57600062000531565b806007815181106200052857fe5b60200260200101515b6001600160a01b03166102e0816001600160a01b031660601b81525050505060008660400151519050620005768188606001515162000e2860201b620014571760201c565b6103208190526000805b828160ff161015620005f057600089606001518260ff1681518110620005a257fe5b60200260200101519050620005ca662386f26fc1000082101561012e62000ab060201b60201c565b620005e4818462000e9360201b620014681790919060201c565b92505060010162000580565b5062000609670de0b6b3a7640000821461013462000ab0565b87604001516000815181106200061b57fe5b60200260200101516001600160a01b0316610340816001600160a01b031660601b8152505087604001516001815181106200065257fe5b60200260200101516001600160a01b0316610360816001600160a01b031660601b815250506002821162000688576000620006a3565b87604001516002815181106200069a57fe5b60200260200101515b60601b6001600160601b0319166103805260038211620006c5576000620006e0565b8760400151600381518110620006d757fe5b60200260200101515b60601b6001600160601b0319166103a05260048211620007025760006200071d565b87604001516004815181106200071457fe5b60200260200101515b60601b6001600160601b0319166103c052600582116200073f5760006200075a565b87604001516005815181106200075157fe5b60200260200101515b60601b6001600160601b0319166103e052600682116200077c57600062000797565b87604001516006815181106200078e57fe5b60200260200101515b60601b6001600160601b0319166104005260078211620007b9576000620007d4565b8760400151600781518110620007cb57fe5b60200260200101515b6001600160a01b0316610420816001600160a01b031660601b815250506200081b88604001516000815181106200080757fe5b602002602001015162000eb060201b60201c565b610440526040880151805162000838919060019081106200080757fe5b61046052600282116200084d57600062000863565b6200086388604001516002815181106200080757fe5b6104805260038211620008785760006200088e565b6200088e88604001516003815181106200080757fe5b6104a05260048211620008a3576000620008b9565b620008b988604001516004815181106200080757fe5b6104c05260058211620008ce576000620008e4565b620008e488604001516005815181106200080757fe5b6104e05260068211620008f95760006200090f565b6200090f88604001516006815181106200080757fe5b6105005260078211620009245760006200093a565b6200093a88604001516007815181106200080757fe5b61052052606088015180516000906200094f57fe5b6020026020010151610540818152505087606001516001815181106200097157fe5b602002602001015161056081815250506002821162000992576000620009ad565b8760600151600281518110620009a457fe5b60200260200101515b6105805260038211620009c2576000620009dd565b8760600151600381518110620009d457fe5b60200260200101515b6105a05260048211620009f257600062000a0d565b876060015160048151811062000a0457fe5b60200260200101515b6105c0526005821162000a2257600062000a3d565b876060015160058151811062000a3457fe5b60200260200101515b6105e0526006821162000a5257600062000a6d565b876060015160068151811062000a6457fe5b60200260200101515b610600526007821162000a8257600062000a9d565b876060015160078151811062000a9457fe5b60200260200101515b6106205250620018469650505050505050565b8162000ac15762000ac18162000f7f565b5050565b600890565b62000ae362000ad862000f94565b82101560cb62000ab0565b62000afc62000af162000f9d565b82111560ca62000ab0565b62000b1e8160c0603f60085462000fa960201b6200147a17909392919060201c565b6008556040517fa9ba3ffe0b6c366b81232caab38605a0699ad5398d6cce76f91ee809e322dafc9062000b5390839062001731565b60405180910390a150565b600062000b768362000fce60201b6200149d1760201c565b62000b848585858562000fda565b95945050505050565b600062000b9c848484620010d4565b50501b90565b6000826001600160a01b0316631a7c326362000bd160006008866200113460201b620014a7179092919060201c565b6040518263ffffffff1660e01b815260040162000bef919062001731565b60206040518083038186803b15801562000c0857600080fd5b505afa15801562000c1d573d6000803e3d6000fd5b505050506040513d601f19601f8201168201806040525081019062000c4391906200154d565b905060006001600160a01b038416631a7c326362000c708560088062001134602090811b620014a717901c565b6040518263ffffffff1660e01b815260040162000c8e919062001731565b60206040518083038186803b15801562000ca757600080fd5b505afa15801562000cbc573d6000803e3d6000fd5b505050506040513d601f19601f8201168201806040525081019062000ce291906200154d565b905060006001600160a01b038516631a7c326362000d10866010600862001134602090811b620014a717901c565b6040518263ffffffff1660e01b815260040162000d2e919062001731565b60206040518083038186803b15801562000d4757600080fd5b505afa15801562000d5c573d6000803e3d6000fd5b505050506040513d601f19601f8201168201806040525081019062000d8291906200154d565b9050600062000da58260408060000101604062000b8d60201b620014441760201c565b62000dc2846040600001604062000b8d60201b620014441760201c565b62000ddc866000604062000b8d60201b620014441760201c565b17179050806009819055507fc3f0acc358200d8e08ac6ce20bc2f9f27893a344f813bf682b7859b3e521502e8160405162000e18919062001731565b60405180910390a1505050505050565b62000ac1828214606762000ab0565b6000805b825181101562000e885760006001600160a01b031683828151811062000e5d57fe5b60200260200101516001600160a01b03161462000e7f57600091505062000e8e565b60010162000e3b565b50600190505b919050565b600082820162000ea7848210158362000ab0565b90505b92915050565b60006001600160a01b03821630141562000ed45750670de0b6b3a764000062000e8e565b6000826001600160a01b031663313ce5676040518163ffffffff1660e01b815260040160206040518083038186803b15801562000f1057600080fd5b505afa15801562000f25573d6000803e3d6000fd5b505050506040513d601f19601f8201168201806040525081019062000f4b91906200170e565b60ff169050600062000f6a6012836200114360201b620014b61760201c565b600a0a670de0b6b3a764000002949350505050565b62000f91816210905360ea1b6200115b565b50565b64e8d4a5100090565b67016345785d8a000090565b600062000fb8848484620010d4565b506001901b60001901811b1992909216911b1790565b8062000ac181620011bc565b600080856001600160a01b03166309b2760f866040518263ffffffff1660e01b81526004016200100b9190620017c8565b602060405180830381600087803b1580156200102657600080fd5b505af11580156200103b573d6000803e3d6000fd5b505050506040513d601f19601f820116820180604052508101906200106191906200154d565b604051633354e3e960e11b81529091506001600160a01b038716906366a9c7d29062001096908490889088906004016200173a565b600060405180830381600087803b158015620010b157600080fd5b505af1158015620010c6573d6000803e3d6000fd5b509298975050505050505050565b620010e56101008310606462000ab0565b6200111e600182101580156200111657506200111260ff84610100036200124360201b620014cc1760201c565b8211155b606462000ab0565b6200112f83821c156101b462000ab0565b505050565b6001901b6000190191901c1690565b60006200115583831115600162000ab0565b50900390565b62461bcd60e51b600090815260206004526007602452600a808404818106603090810160081b958390069590950190829004918206850160101b01602363ffffff0060e086901c160160181b0190930160c81b60445260e882901c90606490fd5b600281511015620011cd5762000f91565b600081600081518110620011dd57fe5b602002602001015190506000600190505b82518110156200112f5760008382815181106200120757fe5b6020026020010151905062001238816001600160a01b0316846001600160a01b031610606562000ab060201b60201c565b9150600101620011ee565b80820390821102900390565b828054600181600116156101000203166002900490600052602060002090601f016020900481019282601f106200129257805160ff1916838001178555620012c2565b82800160010185558215620012c2579182015b82811115620012c2578251825591602001919060010190620012a5565b50620012d0929150620012d4565b5090565b5b80821115620012d05760008155600101620012d5565b805162000eaa8162001830565b600082601f83011262001309578081fd5b8151620013206200131a8262001804565b620017dd565b8181529150602080830190848101818402860182018710156200134257600080fd5b60005b848110156200136e5781516200135b8162001830565b8452928201929082019060010162001345565b505050505092915050565b600082601f8301126200138a578081fd5b81516200139b6200131a8262001804565b818152915060208083019084810181840286018201871015620013bd57600080fd5b60005b848110156200136e578151620013d68162001830565b84529282019290820190600101620013c0565b600082601f830112620013fa578081fd5b81516200140b6200131a8262001804565b8181529150602080830190848101818402860182018710156200142d57600080fd5b60005b848110156200136e578151620014468162001830565b8452928201929082019060010162001430565b600082601f8301126200146a578081fd5b81516200147b6200131a8262001804565b8181529150602080830190848101818402860182018710156200149d57600080fd5b60005b848110156200136e57815184529282019290820190600101620014a0565b600082601f830112620014cf578081fd5b81516001600160401b03811115620014e5578182fd5b6020620014fb601f8301601f19168201620017dd565b925081835284818386010111156200151257600080fd5b60005b828110156200153257848101820151848201830152810162001515565b82811115620015445760008284860101525b50505092915050565b6000602082840312156200155f578081fd5b5051919050565b60006020828403121562001578578081fd5b815162000ea78162001830565b60008060008060008060c087890312156200159e578182fd5b86516001600160401b0380821115620015b5578384fd5b9088019060e0828b031215620015c9578384fd5b620015d560e0620017dd565b825182811115620015e4578586fd5b620015f28c828601620014be565b82525060208301518281111562001607578586fd5b620016158c828601620014be565b6020830152506040830151828111156200162d578586fd5b6200163b8c82860162001379565b60408301525060608301518281111562001653578586fd5b620016618c82860162001459565b60608301525060808301518281111562001679578586fd5b620016878c828601620013e9565b60808301525060a0830151828111156200169f578586fd5b620016ad8c828601620012f8565b60a08301525060c083015160c0820152809850505050620016d28860208901620012eb565b9450620016e38860408901620012eb565b93506060870151925060808701519150620017028860a08901620012eb565b90509295509295509295565b60006020828403121562001720578081fd5b815160ff8116811462000ea7578182fd5b90815260200190565b60006060820185835260206060818501528186518084526080860191508288019350845b81811015620017865762001773855162001824565b835293830193918301916001016200175e565b505084810360408601528551808252908201925081860190845b81811015620010c657620017b5835162001824565b85529383019391830191600101620017a0565b6020810160038310620017d757fe5b91905290565b6040518181016001600160401b0381118282101715620017fc57600080fd5b604052919050565b60006001600160401b038211156200181a578081fd5b5060209081020190565b6001600160a01b031690565b6001600160a01b038116811462000f9157600080fd5b60805160a05160c05160e0516101005160601c6101205160601c6101405161016051610180516101a05160601c6101c05160601c6101e0516102005160601c6102205160601c6102405160601c6102605160601c6102805160601c6102a05160601c6102c05160601c6102e05160601c6103005160f81c610320516103405160601c6103605160601c6103805160601c6103a05160601c6103c05160601c6103e05160601c6104005160601c6104205160601c6104405161046051610480516104a0516104c0516104e05161050051610520516105405161056051610580516105a0516105c0516105e0516106005161062051615ef762001adc6000398061221f528061358a5250806121dc528061352952508061219952806134c8525080612156528061346752508061211352806134065250806120d052806133a552508061208d528061334452508061205352806132e3525080612bba525080612b96525080612b72525080612b4e525080612b2a525080612b06525080612ae2525080612abe525080612519528061354f5250806124d752806134ee525080612495528061348d525080612453528061342c52508061241152806133cb5250806123cf528061336a52508061238d528061330952508061234452806132a85250806119ac52508061382f5250806109ca5280613a905250806109735280613a4452508061091c52806139f85250806108c552806139ac52508061086e528061396052508061080952806138ff5250806107b252806138ae52508061076452806138705250806106aa5280610b7b525080610689525080611203525080610aca5250806117f15250806117cd525080610ee5525080610ec1525080610e0f5250806128355250806128775250806128565250615ef76000f3fe608060405234801561001057600080fd5b50600436106102ff5760003560e01c80637ecebe001161019c578063a9059cbb116100ee578063d2946c2b11610097578063dd62ed3e11610071578063dd62ed3e146105ab578063ed24911d146105be578063f89f27ed146105c6576102ff565b8063d2946c2b1461057d578063d505accf14610585578063d5c096c414610598576102ff565b8063b35056b8116100c8578063b35056b814610565578063b7b814fc1461056d578063c0ff1a1514610575576102ff565b8063a9059cbb14610542578063aaabadc514610555578063b10962781461055d576102ff565b8063893d20e81161015057806395d89b411161012a57806395d89b41146105145780639d2c110c1461051c578063a457c2d71461052f576102ff565b8063893d20e8146104e45780638d928af8146104f957806390193b7c14610501576102ff565b8063851c1bb311610181578063851c1bb3146104b6578063876f303b146104c957806387ec6817146104d1576102ff565b80637ecebe001461049b5780638456cb59146104ae576102ff565b806338e9922e1161025557806354a844ba1161020957806370464016116101e3578063704640161461045457806370a082311461046757806374f3b0091461047a576102ff565b806354a844ba1461042357806355c676281461042b5780636028bfd414610433576102ff565b8063395093511161023a57806339509351146103f55780633f4ba83a146104085780634df77ce014610410576102ff565b806338e9922e146103da57806338fff2d0146103ed576102ff565b80631dd746ea116102b757806323ef89ed1161029157806323ef89ed146103b5578063313ce567146103bd5780633644e515146103d2576102ff565b80631dd746ea14610378578063238a2d591461038d57806323b872dd146103a2576102ff565b80630da0669c116102e85780630da0669c1461034257806318160ddd1461034c5780631c0de05114610361576102ff565b806306fdde0314610304578063095ea7b314610322575b600080fd5b61030c6105ce565b6040516103199190615dd0565b60405180910390f35b6103356103303660046155be565b610665565b6040516103199190615c6d565b61034a61067c565b005b6103546106d0565b6040516103199190615c90565b6103696106d6565b60405161031993929190615c78565b6103806106ff565b6040516103199190615c35565b61039561070e565b6040516103199190615be8565b6103356103b036600461550e565b610a1d565b610354610a93565b6103c5610a99565b6040516103199190615e3c565b610354610aa2565b61034a6103e8366004615ac3565b610aac565b610354610ac8565b6103356104033660046155be565b610aec565b61034a610b27565b61035461041e366004615ac3565b610b39565b61034a610bab565b610354610bff565b6104466104413660046156ed565b610c12565b604051610319929190615e23565b610354610462366004615ac3565b610c49565b6103546104753660046154ba565b610cab565b61048d6104883660046156ed565b610cc6565b604051610319929190615c48565b6103546104a93660046154ba565b610dee565b61034a610df9565b6103546104c43660046157ea565b610e0b565b610354610e5d565b6104466104df3660046156ed565b610e99565b6104ec610ebf565b6040516103199190615bd4565b6104ec610ee3565b61035461050f3660046154ba565b610f07565b61030c610f22565b61035461052a3660046159c7565b610f83565b61033561053d3660046155be565b61107c565b6103356105503660046155be565b6110ba565b6104ec6110c7565b6103546110d1565b6103356110e9565b61034a6110fa565b610354611144565b6104ec611201565b61034a61059336600461554e565b611225565b61048d6105a63660046156ed565b6112b0565b6103546105b93660046154d6565b6113d3565b610354611410565b61038061141a565b60038054604080516020601f600260001961010060018816150201909516949094049384018190048102820181019092528281526060939092909183018282801561065a5780601f1061062f5761010080835404028352916020019161065a565b820191906000526020600020905b81548152906001019060200180831161063d57829003601f168201915b505050505090505b90565b60006106723384846114d8565b5060015b92915050565b610684611540565b6106ce7f00000000000000000000000000000000000000000000000000000000000000007f000000000000000000000000000000000000000000000000000000000000000061159a565b565b60025490565b60008060006106e36117ae565b1592506106ee6117cb565b91506106f86117ef565b9050909192565b6060610709611813565b905090565b6060600061071a6119aa565b905060608167ffffffffffffffff8111801561073557600080fd5b5060405190808252806020026020018201604052801561075f578160200160208202803683370190505b5090507f00000000000000000000000000000000000000000000000000000000000000008160008151811061079057fe5b60200260200101906001600160a01b031690816001600160a01b0316815250507f0000000000000000000000000000000000000000000000000000000000000000816001815181106107de57fe5b60200260200101906001600160a01b031690816001600160a01b031681525050600282111561085a577f00000000000000000000000000000000000000000000000000000000000000008160028151811061083557fe5b60200260200101906001600160a01b031690816001600160a01b031681525050610863565b91506106629050565b600382111561085a577f00000000000000000000000000000000000000000000000000000000000000008160038151811061089a57fe5b60200260200101906001600160a01b031690816001600160a01b031681525050600482111561085a577f0000000000000000000000000000000000000000000000000000000000000000816004815181106108f157fe5b60200260200101906001600160a01b031690816001600160a01b031681525050600582111561085a577f00000000000000000000000000000000000000000000000000000000000000008160058151811061094857fe5b60200260200101906001600160a01b031690816001600160a01b031681525050600682111561085a577f00000000000000000000000000000000000000000000000000000000000000008160068151811061099f57fe5b60200260200101906001600160a01b031690816001600160a01b031681525050600782111561085a577f0000000000000000000000000000000000000000000000000000000000000000816007815181106109f657fe5b60200260200101906001600160a01b031690816001600160a01b0316815250505b91505090565b600080610a2a85336113d3565b9050610a4e336001600160a01b0387161480610a465750838210155b61019e6119ce565b610a598585856119dc565b336001600160a01b03861614801590610a7457506000198114155b15610a8657610a8685338584036114d8565b60019150505b9392505050565b600a5490565b60055460ff1690565b6000610709611410565b610ab4611abc565b610abc611b02565b610ac581611b15565b50565b7f000000000000000000000000000000000000000000000000000000000000000090565b3360008181526001602090815260408083206001600160a01b03871684529091528120549091610672918590610b229086611468565b6114d8565b610b2f611abc565b6106ce6000611b8e565b60008082610b4957506000610b76565b6002831415610b5a57506008610b76565b6003831415610b6b57506010610b76565b610b766101bb611c1f565b610ba27f00000000000000000000000000000000000000000000000000000000000000008260086114a7565b9150505b919050565b610bb3611abc565b610bbb611c49565b610bc56001611c5d565b7feff3d4d215b42bf0960be9c6d5e05c22cba4df6627a3a523e2acee733b5854c86001604051610bf59190615c6d565b60405180910390a1565b6008546000906107099060c0603f6114a7565b60006060610c288651610c236119aa565b611457565b610c3d89898989898989611cb4611d16611d85565b97509795505050505050565b6000610c536110e9565b15610c6057506000610ba6565b600082610c6f57506000610c9c565b6002831415610c8057506040610c9c565b6003831415610c9157506080610c9c565b610c9c6101bb611c1f565b600954610ba2908260406114a7565b6001600160a01b031660009081526020819052604090205490565b60608088610cf0610cd5610ee3565b6001600160a01b0316336001600160a01b03161460cd6119ce565b610d05610cfb610ac8565b82146101f46119ce565b60606000610d1286611f1c565b15610d3a57610d1f611f4b565b610d3189610d2b6106d0565b88611f5e565b92509050610d8c565b610d42611f82565b6060610d4c611813565b9050610d588a82611f8a565b610d7c8d8d8d8d8d610d686110e9565b610d72578d610d75565b60005b878e611cb4565b93509150610d8a8382611d16565b505b610d968b82611ff3565b81895167ffffffffffffffff81118015610daf57600080fd5b50604051908082528060200260200182016040528015610dd9578160200160208202803683370190505b509450945050505b5097509795505050505050565b600061067682610f07565b610e01611abc565b6106ce6001611b8e565b60007f000000000000000000000000000000000000000000000000000000000000000082604051602001610e40929190615b5e565b604051602081830303815290604052805190602001209050919050565b600080610e686106d0565b90506000610e85610e77611144565b610e7f611ffd565b8461224b565b509050610e928282611468565b9250505090565b60006060610eaa8651610c236119aa565b610c3d8989898989898961228e6122d7611d85565b7f000000000000000000000000000000000000000000000000000000000000000090565b7f000000000000000000000000000000000000000000000000000000000000000090565b6001600160a01b031660009081526006602052604090205490565b60048054604080516020601f600260001961010060018816150201909516949094049384018190048102820181019092528281526060939092909183018282801561065a5780601f1061062f5761010080835404028352916020019161065a565b60008360800151610f95610cd5610ee3565b610fa0610cfb610ac8565b610fa8611f82565b6000610fb78660200151612340565b90506000610fc88760400151612340565b9050610fd48683612564565b9550610fe08582612564565b9450600087516001811115610ff157fe5b141561103d576110048760600151612570565b606088018190526110159083612564565b60608801526000611027888888612591565b905061103381836125c4565b9450505050611074565b61104b876060015182612564565b6060880152600061105d8888886125d0565b905061106981846125fb565b905061103381612607565b509392505050565b60008061108933856113d3565b90508083106110a35761109e338560006114d8565b6110b0565b6110b033858584036114d8565b5060019392505050565b60006106723384846119dc565b6000610709612623565b6000610709600060c06110e261269d565b91906114a7565b6008546000906107099060ff6126a3565b611102611abc565b61110a611f4b565b6111146000611c5d565b7feff3d4d215b42bf0960be9c6d5e05c22cba4df6627a3a523e2acee733b5854c86000604051610bf59190615c6d565b60006060611150610ee3565b6001600160a01b031663f94d4668611166610ac8565b6040518263ffffffff1660e01b81526004016111829190615c90565b60006040518083038186803b15801561119a57600080fd5b505afa1580156111ae573d6000803e3d6000fd5b505050506040513d6000823e601f3d908101601f191682016040526111d691908101906155e9565b509150506111eb816111e6611813565b611f8a565b60606111f5611ffd565b9050610e9281836126aa565b7f000000000000000000000000000000000000000000000000000000000000000090565b60007f6e71edae12b1b97f4d1f60370fef10105fa2faae0126114a169c64845d6126c98888886112548c610f07565b8960405160200161126a96959493929190615cb8565b60405160208183030381529060405280519060200120905061129b888261129287878761271c565b886101f861275b565b6112a68888886114d8565b5050505050505050565b606080886112bf610cd5610ee3565b6112ca610cfb610ac8565b6112d2611f82565b60606112dc611813565b90506112e66106d0565b61139357600060606112fb8d8d8d868b6127b2565b9150915061131461130a6127f5565b83101560cc6119ce565b61132660006113216127f5565b6127fc565b6113398b6113326127f5565b84036127fc565b61134381846122d7565b808a5167ffffffffffffffff8111801561135c57600080fd5b50604051908082528060200260200182016040528015611386578160200160208202803683370190505b5095509550505050610de1565b61139d8882611f8a565b600060606113c58d8d8d8d8d6113b16110e9565b6113bb578d6113be565b60005b898e61228e565b915091506113398b836127fc565b60006113dd610ee3565b6001600160a01b0316826001600160a01b031614156113ff5750600019610676565b6114098383612806565b9050610676565b6000610709612831565b6060610709611ffd565b600061142f8361149d565b61143b858585856128ce565b95945050505050565b60006114518484846129d7565b50501b90565b61146481831460676119ce565b5050565b6000828201610a8c84821015836119ce565b60006114878484846129d7565b506001901b60001901811b1992909216911b1790565b8061146481612a1e565b6001901b6000190191901c1690565b60006114c68383111560016119ce565b50900390565b80820390821102900390565b6001600160a01b0380841660008181526001602090815260408083209487168084529490915290819020849055517f8c5be1e5ebec7d5bd14f71427d1e84f3dd0314c0f7b2291e5b200ac8c7c3b92590611533908590615c90565b60405180910390a3505050565b611548611b02565b6000611552611144565b905060008061157083611563611ffd565b61156b6106d0565b61224b565b9150915061157d82612a97565b61158683612aae565b80156115955761159581612ab7565b505050565b60006001600160a01b038316631a7c32636115b7848460086114a7565b6040518263ffffffff1660e01b81526004016115d39190615c90565b60206040518083038186803b1580156115eb57600080fd5b505afa1580156115ff573d6000803e3d6000fd5b505050506040513d601f19601f8201168201806040525081019061162391906156d5565b905060006001600160a01b038416631a7c3263611642856008806114a7565b6040518263ffffffff1660e01b815260040161165e9190615c90565b60206040518083038186803b15801561167657600080fd5b505afa15801561168a573d6000803e3d6000fd5b505050506040513d601f19601f820116820180604052508101906116ae91906156d5565b905060006001600160a01b038516631a7c32636116ce86601060086114a7565b6040518263ffffffff1660e01b81526004016116ea9190615c90565b60206040518083038186803b15801561170257600080fd5b505afa158015611716573d6000803e3d6000fd5b505050506040513d601f19601f8201168201806040525081019061173a91906156d5565b9050600061174b8260806040611444565b61175784604080611444565b6117648660006040611444565b17179050806009819055507fc3f0acc358200d8e08ac6ce20bc2f9f27893a344f813bf682b7859b3e521502e8160405161179e9190615c90565b60405180910390a1505050505050565b60006117b86117ef565b42118061070957505060075460ff161590565b7f000000000000000000000000000000000000000000000000000000000000000090565b7f000000000000000000000000000000000000000000000000000000000000000090565b6060600061181f6119aa565b905060608167ffffffffffffffff8111801561183a57600080fd5b50604051908082528060200260200182016040528015611864578160200160208202803683370190505b50905061186f612abc565b8160008151811061187c57fe5b602002602001018181525050611890612ae0565b8160018151811061189d57fe5b602002602001018181525050600282111561085a576118ba612b04565b816002815181106118c757fe5b602002602001018181525050600382111561085a576118e4612b28565b816003815181106118f157fe5b602002602001018181525050600482111561085a5761190e612b4c565b8160048151811061191b57fe5b602002602001018181525050600582111561085a57611938612b70565b8160058151811061194557fe5b602002602001018181525050600682111561085a57611962612b94565b8160068151811061196f57fe5b602002602001018181525050600782111561085a5761198c612bb8565b8160078151811061199957fe5b602002602001018181525050610a17565b7f000000000000000000000000000000000000000000000000000000000000000090565b816114645761146481611c1f565b6119f36001600160a01b03841615156101986119ce565b611a0a6001600160a01b03831615156101996119ce565b611a15838383611595565b6001600160a01b038316600090815260208190526040902054611a3b90826101a0612bdc565b6001600160a01b038085166000908152602081905260408082209390935590841681522054611a6a9082611468565b6001600160a01b0380841660008181526020819052604090819020939093559151908516907fddf252ad1be2c89b69c2b068fc378daa952ba7f163c4a11628f55a4df523b3ef90611533908590615c90565b6000611aeb6000357fffffffff0000000000000000000000000000000000000000000000000000000016610e0b565b9050610ac5611afa8233612bf2565b6101916119ce565b6106ce611b0d6117ae565b6101926119ce565b611b2a611b20612cdb565b82101560cb6119ce565b611b3f611b35612ce4565b82111560ca6119ce565b600854611b50908260c0603f61147a565b6008556040517fa9ba3ffe0b6c366b81232caab38605a0699ad5398d6cce76f91ee809e322dafc90611b83908390615c90565b60405180910390a150565b8015611bae57611ba9611b9f6117cb565b42106101936119ce565b611bc3565b611bc3611bb96117ef565b42106101a96119ce565b600780547fffffffffffffffffffffffffffffffffffffffffffffffffffffffffffffff00168215151790556040517f9e3a5e37224532dea67b89face185703738a228a6e8a23dee546960180d3be6490611b83908390615c6d565b610ac5817f42414c0000000000000000000000000000000000000000000000000000000000612cf0565b6106ce611c546110e9565b156101b56119ce565b600854611c6c908260ff612d6b565b6008556040517feff3d4d215b42bf0960be9c6d5e05c22cba4df6627a3a523e2acee733b5854c890611c9f908390615c6d565b60405180910390a180610ac557610ac5612d7a565b6000606080611cc1611ffd565b9050600080611cd08a84612dc2565b9150915060006060611ce68e8d878c888d612e22565b9092509050611d02838d838888611cfd81896114b6565b612eb5565b909e909d509b505050505050505050505050565b81518151611d25908290611457565b60005b81811015611d7f57611d60848281518110611d3f57fe5b6020026020010151848381518110611d5357fe5b6020026020010151612ed9565b848281518110611d6c57fe5b6020908102919091010152600101611d28565b50505050565b333014611e74576000306001600160a01b0316600036604051611da9929190615b8e565b6000604051808303816000865af19150503d8060008114611de6576040519150601f19603f3d011682016040523d82523d6000602084013e611deb565b606091505b505090508060008114611dfa57fe5b60046000803e6000517fffffffff00000000000000000000000000000000000000000000000000000000167f43adbafb000000000000000000000000000000000000000000000000000000008114611e56573d6000803e3d6000fd5b506020600460003e604060205260243d03602460403e601c3d016000f35b611e7c611f82565b6060611e86611813565b9050611e928782611f8a565b60006060611eaa8c8c8c8c8c8c898d8d63ffffffff16565b91509150611ebc81848663ffffffff16565b8051601f1982018390526343adbafb7fffffffffffffffffffffffffffffffffffffffffffffffffffffffffffffffc08301526020027fffffffffffffffffffffffffffffffffffffffffffffffffffffffffffffffdc82016044820181fd5b6000808251118015610676575060ff801682806020019051810190611f419190615adb565b60ff161492915050565b6106ce611f566110e9565b6101b66119ce565b60006060611f6b83612f2c565b9150611f78858584612f42565b9050935093915050565b6106ce611b02565b81518151611f99908290611457565b60005b81811015611d7f57611fd4848281518110611fb357fe5b6020026020010151848381518110611fc757fe5b6020026020010151612ff1565b848281518110611fe057fe5b6020908102919091010152600101611f9c565b6114648282613024565b606060006120096119aa565b905060608167ffffffffffffffff8111801561202457600080fd5b5060405190808252806020026020018201604052801561204e578160200160208202803683370190505b5090507f00000000000000000000000000000000000000000000000000000000000000008160008151811061207f57fe5b6020026020010181815250507f0000000000000000000000000000000000000000000000000000000000000000816001815181106120b957fe5b602002602001018181525050600282111561085a577f0000000000000000000000000000000000000000000000000000000000000000816002815181106120fc57fe5b602002602001018181525050600382111561085a577f00000000000000000000000000000000000000000000000000000000000000008160038151811061213f57fe5b602002602001018181525050600482111561085a577f00000000000000000000000000000000000000000000000000000000000000008160048151811061218257fe5b602002602001018181525050600582111561085a577f0000000000000000000000000000000000000000000000000000000000000000816005815181106121c557fe5b602002602001018181525050600682111561085a577f00000000000000000000000000000000000000000000000000000000000000008160068151811061220857fe5b602002602001018181525050600782111561085a577f00000000000000000000000000000000000000000000000000000000000000008160078151811061199957fe5b60008060006122638661225e6000610c49565b6130f0565b905060008061227187613116565b9150915061228186838501613186565b9890975095505050505050565b600060608061229b611ffd565b90506000806122aa8a84612dc2565b91509150600060606122c08e8d878c888d6131a3565b9092509050611d02838d838888611cfd8189611468565b815181516122e6908290611457565b60005b81811015611d7f5761232184828151811061230057fe5b602002602001015184838151811061231457fe5b602002602001015161321f565b84828151811061232d57fe5b60209081029190910101526001016122e9565b60007f00000000000000000000000000000000000000000000000000000000000000006001600160a01b0316826001600160a01b0316141561238b57612384612abc565b9050610ba6565b7f00000000000000000000000000000000000000000000000000000000000000006001600160a01b0316826001600160a01b031614156123cd57612384612ae0565b7f00000000000000000000000000000000000000000000000000000000000000006001600160a01b0316826001600160a01b0316141561240f57612384612b04565b7f00000000000000000000000000000000000000000000000000000000000000006001600160a01b0316826001600160a01b0316141561245157612384612b28565b7f00000000000000000000000000000000000000000000000000000000000000006001600160a01b0316826001600160a01b0316141561249357612384612b4c565b7f00000000000000000000000000000000000000000000000000000000000000006001600160a01b0316826001600160a01b031614156124d557612384612b70565b7f00000000000000000000000000000000000000000000000000000000000000006001600160a01b0316826001600160a01b0316141561251757612384612b94565b7f00000000000000000000000000000000000000000000000000000000000000006001600160a01b0316826001600160a01b0316141561255957612384612bb8565b610ba6610135611c1f565b6000610a8c8383612ff1565b60008061258561257e610bff565b849061326c565b9050610ba283826114b6565b60006125bc836125a486602001516132a4565b846125b288604001516132a4565b88606001516135ae565b949350505050565b6000610a8c8383612ed9565b60006125bc836125e386602001516132a4565b846125f188604001516132a4565b8860600151613629565b6000610a8c838361321f565b600061067661261c612617610bff565b61369f565b839061321f565b600061262d610ee3565b6001600160a01b031663aaabadc56040518163ffffffff1660e01b815260040160206040518083038186803b15801561266557600080fd5b505afa158015612679573d6000803e3d6000fd5b505050506040513d601f19601f82011682018060405250810190610709919061582a565b60085490565b1c60011690565b670de0b6b3a764000060005b835181101561270c576127026126fb8583815181106126d157fe5b60200260200101518584815181106126e557fe5b60200260200101516136b190919063ffffffff16565b8390612ff1565b91506001016126b6565b50610676600082116101376119ce565b60408051604180825260808201909252606091829190602082018180368337019050509050836020820152826040820152846060820153949350505050565b600061276685613762565b905061277c61277687838761377e565b836119ce565b61278b428410156101b86119ce565b5050506001600160a01b039092166000908152600660205260409020805460010190555050565b600060606127be61382d565b6127da576127da6127d56127d0611ffd565b613851565b612ab7565b6127e78787878787613ab4565b915091509550959350505050565b620f424090565b6114648282613b44565b6001600160a01b03918216600090815260016020908152604080832093909416825291909152205490565b60007f00000000000000000000000000000000000000000000000000000000000000007f00000000000000000000000000000000000000000000000000000000000000007f000000000000000000000000000000000000000000000000000000000000000061289e613bd7565b306040516020016128b3959493929190615d72565b60405160208183030381529060405280519060200120905090565b600080856001600160a01b03166309b2760f866040518263ffffffff1660e01b81526004016128fd9190615dbc565b602060405180830381600087803b15801561291757600080fd5b505af115801561292b573d6000803e3d6000fd5b505050506040513d601f19601f8201168201806040525081019061294f91906156d5565b6040517f66a9c7d20000000000000000000000000000000000000000000000000000000081529091506001600160a01b038716906366a9c7d29061299b90849088908890600401615cec565b600060405180830381600087803b1580156129b557600080fd5b505af11580156129c9573d6000803e3d6000fd5b509298975050505050505050565b6129e6610100831060646119ce565b612a0f60018210158015612a085750612a0460ff84610100036114cc565b8211155b60646119ce565b61159583821c156101b46119ce565b600281511015612a2d57610ac5565b600081600081518110612a3c57fe5b602002602001015190506000600190505b8251811015611595576000838281518110612a6457fe5b60200260200101519050612a8d816001600160a01b0316846001600160a01b03161060656119ce565b9150600101612a4d565b8015610ac557610ac5612aa8611201565b826127fc565b610ac581613bdb565b600a55565b7f000000000000000000000000000000000000000000000000000000000000000090565b7f000000000000000000000000000000000000000000000000000000000000000090565b7f000000000000000000000000000000000000000000000000000000000000000090565b7f000000000000000000000000000000000000000000000000000000000000000090565b7f000000000000000000000000000000000000000000000000000000000000000090565b7f000000000000000000000000000000000000000000000000000000000000000090565b7f000000000000000000000000000000000000000000000000000000000000000090565b7f000000000000000000000000000000000000000000000000000000000000000090565b6000612beb84841115836119ce565b5050900390565b600073ba1ba1ba1ba1ba1ba1ba1ba1ba1ba1ba1ba1ba1b612c11610ebf565b6001600160a01b031614158015612c2c5750612c2c83613bfb565b15612c5457612c39610ebf565b6001600160a01b0316336001600160a01b0316149050610676565b612c5c612623565b6001600160a01b0316639be2a8848484306040518463ffffffff1660e01b8152600401612c8b93929190615c99565b60206040518083038186803b158015612ca357600080fd5b505afa158015612cb7573d6000803e3d6000fd5b505050506040513d601f19601f8201168201806040525081019061140991906156b5565b64e8d4a5100090565b67016345785d8a000090565b7f08c379a000000000000000000000000000000000000000000000000000000000600090815260206004526007602452600a808404818106603090810160081b958390069590950190829004918206850160101b01602363ffffff0060e086901c160160181b0190930160c81b60445260e882901c90606490fd5b6001811b1992909216911b1790565b612d8a612d85611144565b612aae565b612d9261382d565b6106ce576000612da0610a93565b90506000612daf6127d0611ffd565b9050818111156114645761146481612ab7565b6000806000612dcf6106d0565b90506000612ddd85876126aa565b9050600080612ded83888661224b565b90925090508015612e0157612e0181612ab7565b612e0a82612a97565b612e148483611468565b989297509195505050505050565b600060606000612e3184613c06565b90506000816002811115612e4157fe5b1415612e5d57612e5388888787613c1c565b9250925050612eaa565b6001816002811115612e6b57fe5b1415612e7c57612e53888686613ceb565b6002816002811115612e8a57fe5b1415612e9d57612e538888888888613d17565b612ea8610150611c1f565b505b965096945050505050565b6000612ec5878787878787613d76565b9050612ed081612a97565b50505050505050565b6000612ee882151560046119ce565b670de0b6b3a76400008302612f1a841580612f135750670de0b6b3a7640000858381612f1057fe5b04145b60056119ce565b828181612f2357fe5b04949350505050565b600081806020019051810190610a8c9190615af7565b60606000612f508385612ed9565b9050845167ffffffffffffffff81118015612f6a57600080fd5b50604051908082528060200260200182016040528015612f94578160200160208202803683370190505b50915060005b8551811015612fe857612fc982878381518110612fb357fe5b6020026020010151612ff190919063ffffffff16565b838281518110612fd557fe5b6020908102919091010152600101612f9a565b50509392505050565b600082820261301584158061300e57508385838161300b57fe5b04145b60036119ce565b670de0b6b3a764000081612f23565b61303b6001600160a01b038316151561019b6119ce565b61304782600083611595565b6001600160a01b03821660009081526020819052604090205461306d90826101b2612bdc565b6001600160a01b0383166000908152602081905260409020556130a061309b826130956106d0565b90613e6f565b613e7d565b60006001600160a01b0316826001600160a01b03167fddf252ad1be2c89b69c2b068fc378daa952ba7f163c4a11628f55a4df523b3ef836040516130e49190615c90565b60405180910390a35050565b6000610a8c6131076131006110d1565b8590612ed9565b670de0b6b3a764000084613e82565b60008061312161382d565b1561313157506000905080613181565b600a54600061313f85613851565b905081811161315657600080935093505050613181565b61317b6131638284612ed9565b670de0b6b3a76400006131766002610c49565b613e82565b93509150505b915091565b6000610a8c6131958484613ec0565b61319e8461369f565b613eda565b6000606060006131b284613efa565b905060018160038111156131c257fe5b14156131d557612e538888888888613f10565b60028160038111156131e357fe5b14156131f557612e5388888787613f60565b600381600381111561320357fe5b141561321457612e53888686613fbe565b612ea8610136611c1f565b600061322e82151560046119ce565b670de0b6b3a76400008302613256841580612f135750670de0b6b3a7640000858381612f1057fe5b6001836001830304018115150291505092915050565b600082820261328684158061300e57508385838161300b57fe5b6001670de0b6b3a76400006001830304018115150291505092915050565b60007f00000000000000000000000000000000000000000000000000000000000000006001600160a01b0316826001600160a01b0316141561330757507f0000000000000000000000000000000000000000000000000000000000000000610ba6565b7f00000000000000000000000000000000000000000000000000000000000000006001600160a01b0316826001600160a01b0316141561336857507f0000000000000000000000000000000000000000000000000000000000000000610ba6565b7f00000000000000000000000000000000000000000000000000000000000000006001600160a01b0316826001600160a01b031614156133c957507f0000000000000000000000000000000000000000000000000000000000000000610ba6565b7f00000000000000000000000000000000000000000000000000000000000000006001600160a01b0316826001600160a01b0316141561342a57507f0000000000000000000000000000000000000000000000000000000000000000610ba6565b7f00000000000000000000000000000000000000000000000000000000000000006001600160a01b0316826001600160a01b0316141561348b57507f0000000000000000000000000000000000000000000000000000000000000000610ba6565b7f00000000000000000000000000000000000000000000000000000000000000006001600160a01b0316826001600160a01b031614156134ec57507f0000000000000000000000000000000000000000000000000000000000000000610ba6565b7f00000000000000000000000000000000000000000000000000000000000000006001600160a01b0316826001600160a01b0316141561354d57507f0000000000000000000000000000000000000000000000000000000000000000610ba6565b7f00000000000000000000000000000000000000000000000000000000000000006001600160a01b0316826001600160a01b0316141561255957507f0000000000000000000000000000000000000000000000000000000000000000610ba6565b60006135d06135c587670429d069189e0000612ff1565b8311156101306119ce565b60006135dc8784611468565b905060006135ea888361321f565b905060006135f88887612ed9565b905060006136068383613fdc565b905061361b6136148261369f565b8990612ff1565b9a9950505050505050505050565b600061364b61364085670429d069189e0000612ff1565b8311156101316119ce565b600061366161365a86856114b6565b869061321f565b9050600061366f858861321f565b9050600061367d8383613fdc565b9050600061369382670de0b6b3a76400006114b6565b905061361b8a8261326c565b670de0b6b3a764000081810391100290565b6000670de0b6b3a76400008214156136ca575081610676565b671bc16d674ec800008214156136e4576114098384612ff1565b673782dace9d9000008214156137145760006137008485612ff1565b905061370c8182612ff1565b915050610676565b60006137208484614062565b9050600061373a6137338361271061326c565b6001611468565b90508082101561374f57600092505050610676565b61375982826114b6565b92505050610676565b600061376c612831565b82604051602001610e40929190615b9e565b600061379082516041146101b96119ce565b60208281015160408085015160608601518251600080825295019283905292939092811a916001906137c9908990859088908890615d9e565b6020604051602081039080840390855afa1580156137eb573d6000803e3d6000fd5b5050604051601f1901519150506001600160a01b038116158015906138215750876001600160a01b0316816001600160a01b0316145b98975050505050505050565b7f000000000000000000000000000000000000000000000000000000000000000090565b8051600090816138d761389485838561386657fe5b60200260200101517f0000000000000000000000000000000000000000000000000000000000000000614178565b6138d2866001815181106138a457fe5b60200260200101517f0000000000000000000000000000000000000000000000000000000000000000614178565b612ff1565b905060028211156139315761392a613923856002815181106138f557fe5b60200260200101517f0000000000000000000000000000000000000000000000000000000000000000614178565b8290612ff1565b905061393a565b9150610ba69050565b6003821115613931576139846139238560038151811061395657fe5b60200260200101517f0000000000000000000000000000000000000000000000000000000000000000614178565b90506004821115613931576139d0613923856004815181106139a257fe5b60200260200101517f0000000000000000000000000000000000000000000000000000000000000000614178565b9050600582111561393157613a1c613923856005815181106139ee57fe5b60200260200101517f0000000000000000000000000000000000000000000000000000000000000000614178565b9050600682111561393157613a6861392385600681518110613a3a57fe5b60200260200101517f0000000000000000000000000000000000000000000000000000000000000000614178565b90506007821115610ba2576125bc61392385600781518110613a8657fe5b60200260200101517f0000000000000000000000000000000000000000000000000000000000000000614178565b600060606000613ac384613efa565b9050613ade6000826003811115613ad657fe5b1460ce6119ce565b6060613ae985614219565b9050613af781518751611457565b613b018187611f8a565b6060613b0b611ffd565b90506000613b1982846126aa565b90506000613b28828551613ec0565b9050613b3382612aae565b9b929a509198505050505050505050565b613b5060008383611595565b613b6561309b82613b5f6106d0565b90611468565b6001600160a01b038216600090815260208190526040902054613b889082611468565b6001600160a01b0383166000818152602081905260408082209390935591519091907fddf252ad1be2c89b69c2b068fc378daa952ba7f163c4a11628f55a4df523b3ef906130e4908590615c90565b4690565b610ac5613bf682600060c0613bee61269d565b92919061147a565b61422f565b600061067682614244565b6000818060200190518101906106769190615846565b60006060600080613c2c8561424f565b91509150613c3e8851821060646119ce565b6000613c7a898381518110613c4f57fe5b6020026020010151898481518110613c6357fe5b6020026020010151858a613c75610bff565b614271565b90506060895167ffffffffffffffff81118015613c9657600080fd5b50604051908082528060200260200182016040528015613cc0578160200160208202803683370190505b50905081818481518110613cd057fe5b60209081029190910101529299929850919650505050505050565b600060606000613cfa84614327565b90506060613d09878784612f42565b919791965090945050505050565b60006060806000613d278561433d565b91509150613d3782518a51611457565b613d418288611f8a565b6000613d578a8a858a613d52610bff565b614355565b9050613d678282111560cf6119ce565b99919850909650505050505050565b600082821015815b8751811015613e105781613dc157613dbc888281518110613d9b57fe5b6020026020010151888381518110613daf57fe5b6020026020010151613e6f565b613df1565b613df1888281518110613dd057fe5b6020026020010151888381518110613de457fe5b6020026020010151611468565b888281518110613dfd57fe5b6020908102919091010152600101613d7e565b506000613e1d86896126aa565b90506000613e2b6000610c49565b9050613e3682612aae565b80613e475760009350505050613e65565b6000613e5e613e56848d612ed9565b888885614493565b9450505050505b9695505050505050565b6000610a8c83836001612bdc565b600255565b60008383101580613e91575081155b15613e9e57506000610a8c565b6000613eaa8486612ed9565b670de0b6b3a764000003905061143b8184612ff1565b6000828202610a8c84158061300e57508385838161300b57fe5b6000613ee982151560046119ce565b818381613ef257fe5b049392505050565b6000818060200190518101906106769190615907565b60006060806000613f20856144b6565b91509150613f3089518351611457565b613f3a8288611f8a565b6000613f508a8a858a613f4b610bff565b6144ce565b9050613d678282101560d06119ce565b60006060600080613f7085614619565b91509150613f828851821060646119ce565b6000613c7a898381518110613f9357fe5b6020026020010151898481518110613fa757fe5b6020026020010151858a613fb9610bff565b614630565b600060606000613fcd846146c6565b90506060613d098787846146dc565b6000670de0b6b3a7640000821415613ff5575081610676565b671bc16d674ec8000082141561400f57611409838461326c565b673782dace9d90000082141561403757600061402b848561326c565b905061370c818261326c565b60006140438484614062565b905060006140566137338361271061326c565b90506137598282611468565b6000816140785750670de0b6b3a7640000610676565b8261408557506000610676565b61409560ff84901c1560066119ce565b826140bb770bce5086492111aea88f4bb1ca6bcf584181ea8059f76532841060076119ce565b826000670c7d713b49da0000831380156140dc5750670f43fc2c04ee000083125b156141135760006140ec8461476c565b9050670de0b6b3a764000080820784020583670de0b6b3a764000083050201915050614121565b8161411d846148a3565b0290505b670de0b6b3a7640000900561416f7ffffffffffffffffffffffffffffffffffffffffffffffffdc702bd3a30fc00008212801590614168575068070c1cc73b00c800008213155b60086119ce565b613e6581614c43565b60006001600160a01b038216156142095761420483836001600160a01b031663679aefce6040518163ffffffff1660e01b815260040160206040518083038186803b1580156141c657600080fd5b505afa1580156141da573d6000803e3d6000fd5b505050506040513d601f19601f820116820180604052508101906141fe91906156d5565b906136b1565b610a8c565b50670de0b6b3a764000092915050565b606081806020019051810190610a8c9190615922565b60085461423e90826000615113565b60085550565b60006106768261513f565b6000808280602001905181019061426691906158d2565b909590945092505050565b6000806142888461428281886114b6565b9061321f565b90506142a16709b6e64a8ec600008210156101326119ce565b60006142bf6142b8670de0b6b3a764000089612ed9565b8390613fdc565b905060006142d66142cf8361369f565b8a90612ff1565b905060006142ed6142e68a61369f565b839061326c565b905060006142fb83836114b6565b9050600061430b61257e8961369f565b90506143178282611468565b9c9b505050505050505050505050565b600081806020019051810190610a8c91906158a6565b60606000828060200190518101906142669190615861565b60006060845167ffffffffffffffff8111801561437157600080fd5b5060405190808252806020026020018201604052801561439b578160200160208202803683370190505b5090506000805b8851811015614460576143fb8982815181106143ba57fe5b60200260200101516142828984815181106143d157fe5b60200260200101518c85815181106143e557fe5b60200260200101516114b690919063ffffffff16565b83828151811061440757fe5b60200260200101818152505061445661444f89838151811061442557fe5b602002602001015185848151811061443957fe5b602002602001015161326c90919063ffffffff16565b8390611468565b91506001016143a2565b50600061447189898986868a61517b565b905061448661447f8261369f565b879061326c565b9998505050505050505050565b6000806144aa866144a48688612ed9565b85613e82565b9050613e658482613186565b6060600082806020019051810190614266919061596f565b60006060845167ffffffffffffffff811180156144ea57600080fd5b50604051908082528060200260200182016040528015614514578160200160208202803683370190505b5090506000805b88518110156145c25761457a89828151811061453357fe5b602002602001015161457489848151811061454a57fe5b60200260200101518c858151811061455e57fe5b602002602001015161146890919063ffffffff16565b90612ed9565b83828151811061458657fe5b6020026020010181815250506145b861444f8983815181106145a457fe5b6020026020010151858481518110612fb357fe5b915060010161451b565b5060006145d389898986868a615299565b90506000670de0b6b3a764000082116145ed57600061361b565b61361b877ffffffffffffffffffffffffffffffffffffffffffffffffff21f494c589c00008401612ff1565b6000808280602001905181019061426691906159a9565b600080614641846142828188611468565b905061465a6729a2241af62c00008211156101336119ce565b60006146716142b8670de0b6b3a76400008961321f565b9050600061469161468a83670de0b6b3a76400006114b6565b8a9061326c565b905060006146a16142e68a61369f565b905060006146af83836114b6565b9050600061430b6146bf8961369f565b849061321f565b600081806020019051810190610a8c919061598d565b606060006146ea838561321f565b9050845167ffffffffffffffff8111801561470457600080fd5b5060405190808252806020026020018201604052801561472e578160200160208202803683370190505b50915060005b8551811015612fe85761474d8287838151811061443957fe5b83828151811061475957fe5b6020908102919091010152600101614734565b670de0b6b3a7640000026000806ec097ce7bc90715b34b9f1000000000808401907fffffffffffffffffffffffffffffffffff3f68318436f8ea4cb460f000000000850102816147b857fe5b05905060006ec097ce7bc90715b34b9f100000000082800205905081806ec097ce7bc90715b34b9f100000000081840205915060038205016ec097ce7bc90715b34b9f100000000082840205915060058205016ec097ce7bc90715b34b9f100000000082840205915060078205016ec097ce7bc90715b34b9f100000000082840205915060098205016ec097ce7bc90715b34b9f1000000000828402059150600b8205016ec097ce7bc90715b34b9f1000000000828402059150600d8205016ec097ce7bc90715b34b9f1000000000828402059150600f826002919005919091010295945050505050565b6000670de0b6b3a76400008212156148e0576148d6826ec097ce7bc90715b34b9f1000000000816148d057fe5b056148a3565b6000039050610ba6565b60007e1600ef3172e58d2e933ec884fde10064c63b5372d805e203c0000000000000831261493157770195e54c5dd42177f53a27172fa9ec630262827000000000830592506806f05b59d3b2000000015b73011798004d755d3c8bc8e03204cf44619e0000008312614969576b1425982cf597cd205cef7380830592506803782dace9d9000000015b606492830292026e01855144814a7ff805980ff008400083126149b1576e01855144814a7ff805980ff008400068056bc75e2d63100000840205925068ad78ebc5ac62000000015b6b02df0ab5a80a22c61ab5a70083126149ec576b02df0ab5a80a22c61ab5a70068056bc75e2d6310000084020592506856bc75e2d631000000015b693f1fce3da636ea5cf8508312614a2357693f1fce3da636ea5cf85068056bc75e2d631000008402059250682b5e3af16b18800000015b690127fa27722cc06cc5e28312614a5a57690127fa27722cc06cc5e268056bc75e2d6310000084020592506815af1d78b58c400000015b68280e60114edb805d038312614a8f5768280e60114edb805d0368056bc75e2d631000008402059250680ad78ebc5ac6200000015b680ebc5fb417461211108312614aba57680ebc5fb4174612111068056bc75e2d631000009384020592015b6808f00f760a4b2db55d8312614aef576808f00f760a4b2db55d68056bc75e2d6310000084020592506802b5e3af16b1880000015b6806f5f17757889379378312614b24576806f5f177578893793768056bc75e2d63100000840205925068015af1d78b58c40000015b6806248f33704b2866038312614b58576806248f33704b28660368056bc75e2d63100000840205925067ad78ebc5ac620000015b6805c548670b9510e7ac8312614b8c576805c548670b9510e7ac68056bc75e2d6310000084020592506756bc75e2d6310000015b600068056bc75e2d63100000840168056bc75e2d631000008086030281614baf57fe5b059050600068056bc75e2d63100000828002059050818068056bc75e2d63100000818402059150600382050168056bc75e2d63100000828402059150600582050168056bc75e2d63100000828402059150600782050168056bc75e2d63100000828402059150600982050168056bc75e2d63100000828402059150600b820501600202606485820105979650505050505050565b6000614c887ffffffffffffffffffffffffffffffffffffffffffffffffdc702bd3a30fc00008312158015614c81575068070c1cc73b00c800008313155b60096119ce565b6000821215614cbc57614c9d82600003614c43565b6ec097ce7bc90715b34b9f100000000081614cb457fe5b059050610ba6565b60006806f05b59d3b20000008312614d1257507ffffffffffffffffffffffffffffffffffffffffffffffff90fa4a62c4e00000090910190770195e54c5dd42177f53a27172fa9ec630262827000000000614d5e565b6803782dace9d90000008312614d5a57507ffffffffffffffffffffffffffffffffffffffffffffffffc87d2531627000000909101906b1425982cf597cd205cef7380614d5e565b5060015b6064929092029168056bc75e2d6310000068ad78ebc5ac620000008412614dc4577fffffffffffffffffffffffffffffffffffffffffffffff5287143a539e0000009093019268056bc75e2d631000006e01855144814a7ff805980ff008400082020590505b6856bc75e2d6310000008412614e16577fffffffffffffffffffffffffffffffffffffffffffffffa9438a1d29cf0000009093019268056bc75e2d631000006b02df0ab5a80a22c61ab5a70082020590505b682b5e3af16b188000008412614e66577fffffffffffffffffffffffffffffffffffffffffffffffd4a1c50e94e78000009093019268056bc75e2d63100000693f1fce3da636ea5cf85082020590505b6815af1d78b58c4000008412614eb6577fffffffffffffffffffffffffffffffffffffffffffffffea50e2874a73c000009093019268056bc75e2d63100000690127fa27722cc06cc5e282020590505b680ad78ebc5ac62000008412614f05577ffffffffffffffffffffffffffffffffffffffffffffffff5287143a539e000009093019268056bc75e2d6310000068280e60114edb805d0382020590505b68056bc75e2d631000008412614f54577ffffffffffffffffffffffffffffffffffffffffffffffffa9438a1d29cf000009093019268056bc75e2d63100000680ebc5fb4174612111082020590505b6802b5e3af16b18800008412614fa3577ffffffffffffffffffffffffffffffffffffffffffffffffd4a1c50e94e7800009093019268056bc75e2d631000006808f00f760a4b2db55d82020590505b68015af1d78b58c400008412614ff2577ffffffffffffffffffffffffffffffffffffffffffffffffea50e2874a73c00009093019268056bc75e2d631000006806f5f177578893793782020590505b68056bc75e2d631000008481019085906002908280020505918201919050600368056bc75e2d631000008783020505918201919050600468056bc75e2d631000008783020505918201919050600568056bc75e2d631000008783020505918201919050600668056bc75e2d631000008783020505918201919050600768056bc75e2d631000008783020505918201919050600868056bc75e2d631000008783020505918201919050600968056bc75e2d631000008783020505918201919050600a68056bc75e2d631000008783020505918201919050600b68056bc75e2d631000008783020505918201919050600c68056bc75e2d631000008783020505918201919050606468056bc75e2d63100000848402058502059695505050505050565b77ffffffffffffffffffffffffffffffffffffffffffffffff828116821b90821b198416179392505050565b600061516a7f38e9922e00000000000000000000000000000000000000000000000000000000610e0b565b8214806106765750610676826153a5565b670de0b6b3a764000060005b875181101561528e57600085828151811061519e57fe5b60200260200101518511156152015760006151c76151bb8761369f565b8b8581518110612fb357fe5b905060006151db828a86815181106143e557fe5b905060006151eb61261c8861369f565b90506151f78382611468565b9350505050615226565b86828151811061520d57fe5b6020026020010151905080600014156152265750615286565b600061524f8a848151811061523757fe5b6020026020010151614574848d87815181106143e557fe5b905061528161527a8a858151811061526357fe5b6020026020010151836136b190919063ffffffff16565b8590612ff1565b935050505b600101615187565b509695505050505050565b670de0b6b3a764000060005b875181101561528e576000848683815181106152bd57fe5b60200260200101511115615336576000670de0b6b3a764000086116152e35760006152fd565b6152fd670de0b6b3a764000087038b8581518110612fb357fe5b9050600061531b86615315848c88815181106143e557fe5b9061326c565b905061532d818a86815181106143e557fe5b9250505061535b565b86828151811061534257fe5b60200260200101519050806000141561535b575061539d565b60006153848a848151811061536c57fe5b6020026020010151614574848d878151811061455e57fe5b905061539861527a8a858151811061526357fe5b935050505b6001016152a5565b50600090565b803561067681615e9d565b600082601f8301126153c6578081fd5b81516153d96153d482615e71565b615e4a565b8181529150602080830190848101818402860182018710156153fa57600080fd5b60005b84811015615419578151845292820192908201906001016153fd565b505050505092915050565b600082601f830112615434578081fd5b813567ffffffffffffffff81111561544a578182fd5b61545d6020601f19601f84011601615e4a565b915080825283602082850101111561547457600080fd5b8060208401602084013760009082016020015292915050565b80516003811061067657600080fd5b80516004811061067657600080fd5b80356002811061067657600080fd5b6000602082840312156154cb578081fd5b8135610a8c81615e9d565b600080604083850312156154e8578081fd5b82356154f381615e9d565b9150602083013561550381615e9d565b809150509250929050565b600080600060608486031215615522578081fd5b833561552d81615e9d565b9250602084013561553d81615e9d565b929592945050506040919091013590565b600080600080600080600060e0888a031215615568578283fd5b873561557381615e9d565b9650602088013561558381615e9d565b9550604088013594506060880135935060808801356155a181615eb2565b9699959850939692959460a0840135945060c09093013592915050565b600080604083850312156155d0578182fd5b82356155db81615e9d565b946020939093013593505050565b6000806000606084860312156155fd578081fd5b835167ffffffffffffffff80821115615614578283fd5b818601915086601f830112615627578283fd5b81516156356153d482615e71565b80828252602080830192508086018b828387028901011115615655578788fd5b8796505b8487101561568057805161566c81615e9d565b845260019690960195928101928101615659565b508901519097509350505080821115615697578283fd5b506156a4868287016153b6565b925050604084015190509250925092565b6000602082840312156156c6578081fd5b81518015158114610a8c578182fd5b6000602082840312156156e6578081fd5b5051919050565b600080600080600080600060e0888a031215615707578081fd5b8735965060208089013561571a81615e9d565b9650604089013561572a81615e9d565b9550606089013567ffffffffffffffff80821115615746578384fd5b818b0191508b601f830112615759578384fd5b81356157676153d482615e71565b8082825285820191508585018f878886028801011115615785578788fd5b8795505b838610156157a7578035835260019590950194918601918601615789565b509850505060808b0135955060a08b0135945060c08b01359250808311156157cd578384fd5b50506157db8a828b01615424565b91505092959891949750929550565b6000602082840312156157fb578081fd5b81357fffffffff0000000000000000000000000000000000000000000000000000000081168114610a8c578182fd5b60006020828403121561583b578081fd5b8151610a8c81615e9d565b600060208284031215615857578081fd5b610a8c838361548d565b600080600060608486031215615875578081fd5b61587f858561548d565b9250602084015167ffffffffffffffff81111561589a578182fd5b6156a4868287016153b6565b600080604083850312156158b8578182fd5b6158c2848461548d565b9150602083015190509250929050565b6000806000606084860312156158e6578081fd5b6158f0858561548d565b925060208401519150604084015190509250925092565b600060208284031215615918578081fd5b610a8c838361549c565b60008060408385031215615934578182fd5b61593e848461549c565b9150602083015167ffffffffffffffff811115615959578182fd5b615965858286016153b6565b9150509250929050565b600080600060608486031215615983578081fd5b61587f858561549c565b6000806040838503121561599f578182fd5b6158c2848461549c565b6000806000606084860312156159bd578081fd5b6158f0858561549c565b6000806000606084860312156159db578081fd5b833567ffffffffffffffff808211156159f2578283fd5b8186019150610120808389031215615a08578384fd5b615a1181615e4a565b9050615a1d88846154ab565b8152615a2c88602085016153ab565b6020820152615a3e88604085016153ab565b6040820152606083013560608201526080830135608082015260a083013560a0820152615a6e8860c085016153ab565b60c0820152615a808860e085016153ab565b60e08201526101008084013583811115615a98578586fd5b615aa48a828701615424565b9183019190915250976020870135975060409096013595945050505050565b600060208284031215615ad4578081fd5b5035919050565b600060208284031215615aec578081fd5b8151610a8c81615eb2565b60008060408385031215615b09578182fd5b8251615b1481615eb2565b6020939093015192949293505050565b6000815180845260208085019450808401835b83811015615b5357815187529582019590820190600101615b37565b509495945050505050565b9182527fffffffff0000000000000000000000000000000000000000000000000000000016602082015260240190565b6000828483379101908152919050565b7f190100000000000000000000000000000000000000000000000000000000000081526002810192909252602282015260420190565b6001600160a01b0391909116815260200190565b6020808252825182820181905260009190848201906040850190845b81811015615c295783516001600160a01b031683529284019291840191600101615c04565b50909695505050505050565b600060208252610a8c6020830184615b24565b600060408252615c5b6040830185615b24565b828103602084015261143b8185615b24565b901515815260200190565b92151583526020830191909152604082015260600190565b90815260200190565b9283526001600160a01b03918216602084015216604082015260600190565b9586526001600160a01b0394851660208701529290931660408501526060840152608083019190915260a082015260c00190565b60006060820185835260206060818501528186518084526080860191508288019350845b81811015615d3457615d228551615e91565b83529383019391830191600101615d10565b505084810360408601528551808252908201925081860190845b818110156129c957615d608351615e91565b85529383019391830191600101615d4e565b9485526020850193909352604084019190915260608301526001600160a01b0316608082015260a00190565b93845260ff9290921660208401526040830152606082015260800190565b6020810160038310615dca57fe5b91905290565b6000602080835283518082850152825b81811015615dfc57858101830151858201604001528201615de0565b81811115615e0d5783604083870101525b50601f01601f1916929092016040019392505050565b6000838252604060208301526125bc6040830184615b24565b60ff91909116815260200190565b60405181810167ffffffffffffffff81118282101715615e6957600080fd5b604052919050565b600067ffffffffffffffff821115615e87578081fd5b5060209081020190565b6001600160a01b031690565b6001600160a01b0381168114610ac557600080fd5b60ff81168114610ac557600080fdfea2646970667358221220cdc3f0a881c8b64dccb9bb505ce51dfc42d1611c8a12e564e61305ddc6c3cc6764736f6c63430007010033",
  "linkReferences": {},
  "deployedLinkReferences": {}
}