{
  "_format": "hh-sol-artifact-1",
  "contractName": "BalancerTokenAdmin",
  "sourceName": "contracts/BalancerTokenAdmin.sol",
  "abi": [
    {
      "inputs": [
        {
          "internalType": "contract IVault",
          "name": "vault",
          "type": "address"
        },
        {
          "internalType": "contract IBalancerToken",
          "name": "balancerToken",
          "type": "address"
        },
        {
          "internalType": "uint256",
          "name": "initialMintAllowance",
          "type": "uint256"
        }
      ],
      "stateMutability": "nonpayable",
      "type": "constructor"
    },
    {
      "anonymous": false,
      "inputs": [
        {
          "indexed": false,
          "internalType": "uint256",
          "name": "rate",
          "type": "uint256"
        },
        {
          "indexed": false,
          "internalType": "uint256",
          "name": "supply",
          "type": "uint256"
        }
      ],
      "name": "MiningParametersUpdated",
      "type": "event"
    },
    {
      "inputs": [],
      "name": "INITIAL_RATE",
      "outputs": [
        {
          "internalType": "uint256",
          "name": "",
          "type": "uint256"
        }
      ],
      "stateMutability": "view",
      "type": "function"
    },
    {
      "inputs": [],
      "name": "RATE_DENOMINATOR",
      "outputs": [
        {
          "internalType": "uint256",
          "name": "",
          "type": "uint256"
        }
      ],
      "stateMutability": "view",
      "type": "function"
    },
    {
      "inputs": [],
      "name": "RATE_REDUCTION_COEFFICIENT",
      "outputs": [
        {
          "internalType": "uint256",
          "name": "",
          "type": "uint256"
        }
      ],
      "stateMutability": "view",
      "type": "function"
    },
    {
      "inputs": [],
      "name": "RATE_REDUCTION_TIME",
      "outputs": [
        {
          "internalType": "uint256",
          "name": "",
          "type": "uint256"
        }
      ],
      "stateMutability": "view",
      "type": "function"
    },
    {
      "inputs": [],
      "name": "activate",
      "outputs": [],
      "stateMutability": "nonpayable",
      "type": "function"
    },
    {
      "inputs": [],
      "name": "available_supply",
      "outputs": [
        {
          "internalType": "uint256",
          "name": "",
          "type": "uint256"
        }
      ],
      "stateMutability": "view",
      "type": "function"
    },
    {
      "inputs": [],
      "name": "futureEpochTimeWrite",
      "outputs": [
        {
          "internalType": "uint256",
          "name": "",
          "type": "uint256"
        }
      ],
      "stateMutability": "nonpayable",
      "type": "function"
    },
    {
      "inputs": [],
      "name": "future_epoch_time_write",
      "outputs": [
        {
          "internalType": "uint256",
          "name": "",
          "type": "uint256"
        }
      ],
      "stateMutability": "nonpayable",
      "type": "function"
    },
    {
      "inputs": [
        {
          "internalType": "bytes4",
          "name": "selector",
          "type": "bytes4"
        }
      ],
      "name": "getActionId",
      "outputs": [
        {
          "internalType": "bytes32",
          "name": "",
          "type": "bytes32"
        }
      ],
      "stateMutability": "view",
      "type": "function"
    },
    {
      "inputs": [],
      "name": "getAuthorizer",
      "outputs": [
        {
          "internalType": "contract IAuthorizer",
          "name": "",
          "type": "address"
        }
      ],
      "stateMutability": "view",
      "type": "function"
    },
    {
      "inputs": [],
      "name": "getAvailableSupply",
      "outputs": [
        {
          "internalType": "uint256",
          "name": "",
          "type": "uint256"
        }
      ],
      "stateMutability": "view",
      "type": "function"
    },
    {
      "inputs": [],
      "name": "getBalancerToken",
      "outputs": [
        {
          "internalType": "contract IBalancerToken",
          "name": "",
          "type": "address"
        }
      ],
      "stateMutability": "view",
      "type": "function"
    },
    {
      "inputs": [],
      "name": "getFutureEpochTime",
      "outputs": [
        {
          "internalType": "uint256",
          "name": "",
          "type": "uint256"
        }
      ],
      "stateMutability": "view",
      "type": "function"
    },
    {
      "inputs": [],
      "name": "getInflationRate",
      "outputs": [
        {
          "internalType": "uint256",
          "name": "",
          "type": "uint256"
        }
      ],
      "stateMutability": "view",
      "type": "function"
    },
    {
      "inputs": [],
      "name": "getMiningEpoch",
      "outputs": [
        {
          "internalType": "uint256",
          "name": "",
          "type": "uint256"
        }
      ],
      "stateMutability": "view",
      "type": "function"
    },
    {
      "inputs": [],
      "name": "getStartEpochSupply",
      "outputs": [
        {
          "internalType": "uint256",
          "name": "",
          "type": "uint256"
        }
      ],
      "stateMutability": "view",
      "type": "function"
    },
    {
      "inputs": [],
      "name": "getStartEpochTime",
      "outputs": [
        {
          "internalType": "uint256",
          "name": "",
          "type": "uint256"
        }
      ],
      "stateMutability": "view",
      "type": "function"
    },
    {
      "inputs": [],
      "name": "getVault",
      "outputs": [
        {
          "internalType": "contract IVault",
          "name": "",
          "type": "address"
        }
      ],
      "stateMutability": "view",
      "type": "function"
    },
    {
      "inputs": [
        {
          "internalType": "address",
          "name": "to",
          "type": "address"
        },
        {
          "internalType": "uint256",
          "name": "amount",
          "type": "uint256"
        }
      ],
      "name": "mint",
      "outputs": [],
      "stateMutability": "nonpayable",
      "type": "function"
    },
    {
      "inputs": [
        {
          "internalType": "uint256",
          "name": "start",
          "type": "uint256"
        },
        {
          "internalType": "uint256",
          "name": "end",
          "type": "uint256"
        }
      ],
      "name": "mintableInTimeframe",
      "outputs": [
        {
          "internalType": "uint256",
          "name": "",
          "type": "uint256"
        }
      ],
      "stateMutability": "view",
      "type": "function"
    },
    {
      "inputs": [
        {
          "internalType": "uint256",
          "name": "start",
          "type": "uint256"
        },
        {
          "internalType": "uint256",
          "name": "end",
          "type": "uint256"
        }
      ],
      "name": "mintable_in_timeframe",
      "outputs": [
        {
          "internalType": "uint256",
          "name": "",
          "type": "uint256"
        }
      ],
      "stateMutability": "view",
      "type": "function"
    },
    {
      "inputs": [],
      "name": "rate",
      "outputs": [
        {
          "internalType": "uint256",
          "name": "",
          "type": "uint256"
        }
      ],
      "stateMutability": "view",
      "type": "function"
    },
    {
      "inputs": [],
      "name": "snapshot",
      "outputs": [],
      "stateMutability": "nonpayable",
      "type": "function"
    },
    {
      "inputs": [],
      "name": "startEpochTimeWrite",
      "outputs": [
        {
          "internalType": "uint256",
          "name": "",
          "type": "uint256"
        }
      ],
      "stateMutability": "nonpayable",
      "type": "function"
    },
    {
      "inputs": [],
      "name": "start_epoch_time_write",
      "outputs": [
        {
          "internalType": "uint256",
          "name": "",
          "type": "uint256"
        }
      ],
      "stateMutability": "nonpayable",
      "type": "function"
    },
    {
      "inputs": [],
      "name": "updateMiningParameters",
      "outputs": [],
      "stateMutability": "nonpayable",
      "type": "function"
    },
    {
      "inputs": [],
      "name": "update_mining_parameters",
      "outputs": [],
      "stateMutability": "nonpayable",
      "type": "function"
    }
  ],
  "bytecode": "0x61010060405260001960025534801561001757600080fd5b506040516120dc3803806120dc8339818101604052606081101561003a57600080fd5b5080516020820151604090920151306080526001600160601b0319606092831b811660a05260016000559290911b90911660c05260e05260805160a05160601c60c05160601c60e051611fae61012e6000398061141f528061159d5250806103cf52806104a5528061055d528061061f52806106d1528061077d5280610873528061092f52806109925280610a3e5280610b345280610bf05280610c535280610d005280610dc45280610ecc5280610f2d5280611067528061116152806112105280611301528061145c52806115be5280611693528061180152806119145250806117d55250806117685250611fae6000f3fe608060405234801561001057600080fd5b50600436106101b95760003560e01c8063851c1bb3116100f9578063b87b561611610097578063c3b03fa811610071578063c3b03fa8146102fb578063cb626ae21461031e578063d43b40fa1461031e578063d725a9ca146102fb576101b9565b8063b87b5616146102eb578063c0039699146102f3578063c167d1cd146101f2576101b9565b8063a228bced116100d3578063a228bced146102db578063aaabadc5146102e3578063adc4cf43146102db578063b26b238e146101fa576101b9565b8063851c1bb3146102635780638d928af8146102a25780639711715a146102d3576101b9565b80632c4e722e116101665780634dbac733116101405780634dbac7331461024b57806355f74176146102535780637efad8e01461025b578063819df2c414610202576101b9565b80632c4e722e1461020257806340c10f191461020a5780634d2fa41314610243576101b9565b806321609bbf1161019757806321609bbf146101ea57806324f92a25146101f2578063277dbafb146101fa576101b9565b8063087905c9146101be5780630dfbdce4146101d85780630f15f4c0146101e0575b600080fd5b6101c6610326565b60408051918252519081900360200190f35b6101c661032d565b6101e8610345565b005b6101c6611533565b6101c661153f565b6101c6611549565b6101c6611560565b6101e86004803603604081101561022057600080fd5b5073ffffffffffffffffffffffffffffffffffffffff8135169060200135611566565b6101c661173e565b6101c6611744565b6101c6611750565b6101c6611756565b6101c66004803603602081101561027957600080fd5b50357fffffffff0000000000000000000000000000000000000000000000000000000016611762565b6102aa6117d3565b6040805173ffffffffffffffffffffffffffffffffffffffff9092168252519081900360200190f35b6101e86117f7565b6101c6611881565b6102aa61188b565b6101c661190b565b6102aa611912565b6101c66004803603604081101561031157600080fd5b5080359060200135611936565b6101e8611949565b6001545b90565b6002546000906103409062093a806119b5565b905090565b61034d6119c7565b6103556119e0565b7fffffffffffffffffffffffffffffffffffffffffffffffffffffffffffffffff600254146103cb576040805162461bcd60e51b815260206004820152601160248201527f416c726561647920616374697661746564000000000000000000000000000000604482015290519081900360640190fd5b60007f000000000000000000000000000000000000000000000000000000000000000073ffffffffffffffffffffffffffffffffffffffff1663d53913936040518163ffffffff1660e01b815260040160206040518083038186803b15801561043357600080fd5b505afa158015610447573d6000803e3d6000fd5b505050506040513d602081101561045d57600080fd5b5051604080517f7028e2cd000000000000000000000000000000000000000000000000000000008152905191925060009173ffffffffffffffffffffffffffffffffffffffff7f00000000000000000000000000000000000000000000000000000000000000001691637028e2cd916004808301926020929190829003018186803b1580156104eb57600080fd5b505afa1580156104ff573d6000803e3d6000fd5b505050506040513d602081101561051557600080fd5b5051604080517fa217fddf000000000000000000000000000000000000000000000000000000008152905191925060009173ffffffffffffffffffffffffffffffffffffffff7f0000000000000000000000000000000000000000000000000000000000000000169163a217fddf916004808301926020929190829003018186803b1580156105a357600080fd5b505afa1580156105b7573d6000803e3d6000fd5b505050506040513d60208110156105cd57600080fd5b5051604080517f91d1485400000000000000000000000000000000000000000000000000000000815260048101839052306024820152905191925073ffffffffffffffffffffffffffffffffffffffff7f000000000000000000000000000000000000000000000000000000000000000016916391d1485491604480820192602092909190829003018186803b15801561066657600080fd5b505afa15801561067a573d6000803e3d6000fd5b505050506040513d602081101561069057600080fd5b50516106cd5760405162461bcd60e51b8152600401808060200182810382526022815260200180611ee06022913960400191505060405180910390fd5b60007f000000000000000000000000000000000000000000000000000000000000000073ffffffffffffffffffffffffffffffffffffffff1663ca15c873856040518263ffffffff1660e01b81526004018082815260200191505060206040518083038186803b15801561074057600080fd5b505afa158015610754573d6000803e3d6000fd5b505050506040513d602081101561076a57600080fd5b5051905060005b818110156108e15760007f000000000000000000000000000000000000000000000000000000000000000073ffffffffffffffffffffffffffffffffffffffff16639010d07c8760006040518363ffffffff1660e01b8152600401808381526020018281526020019250505060206040518083038186803b1580156107f557600080fd5b505afa158015610809573d6000803e3d6000fd5b505050506040513d602081101561081f57600080fd5b5051604080517fd547741f0000000000000000000000000000000000000000000000000000000081526004810189905273ffffffffffffffffffffffffffffffffffffffff808416602483015291519293507f00000000000000000000000000000000000000000000000000000000000000009091169163d547741f9160448082019260009290919082900301818387803b1580156108bd57600080fd5b505af11580156108d1573d6000803e3d6000fd5b5050505050806001019050610771565b50604080517f2f2ff15d00000000000000000000000000000000000000000000000000000000815260048101869052306024820152905173ffffffffffffffffffffffffffffffffffffffff7f00000000000000000000000000000000000000000000000000000000000000001691632f2ff15d91604480830192600092919082900301818387803b15801561097657600080fd5b505af115801561098a573d6000803e3d6000fd5b5050505060007f000000000000000000000000000000000000000000000000000000000000000073ffffffffffffffffffffffffffffffffffffffff1663ca15c873856040518263ffffffff1660e01b81526004018082815260200191505060206040518083038186803b158015610a0157600080fd5b505afa158015610a15573d6000803e3d6000fd5b505050506040513d6020811015610a2b57600080fd5b5051905060005b81811015610ba25760007f000000000000000000000000000000000000000000000000000000000000000073ffffffffffffffffffffffffffffffffffffffff16639010d07c8760006040518363ffffffff1660e01b8152600401808381526020018281526020019250505060206040518083038186803b158015610ab657600080fd5b505afa158015610aca573d6000803e3d6000fd5b505050506040513d6020811015610ae057600080fd5b5051604080517fd547741f0000000000000000000000000000000000000000000000000000000081526004810189905273ffffffffffffffffffffffffffffffffffffffff808416602483015291519293507f00000000000000000000000000000000000000000000000000000000000000009091169163d547741f9160448082019260009290919082900301818387803b158015610b7e57600080fd5b505af1158015610b92573d6000803e3d6000fd5b5050505050806001019050610a32565b50604080517f2f2ff15d00000000000000000000000000000000000000000000000000000000815260048101869052306024820152905173ffffffffffffffffffffffffffffffffffffffff7f00000000000000000000000000000000000000000000000000000000000000001691632f2ff15d91604480830192600092919082900301818387803b158015610c3757600080fd5b505af1158015610c4b573d6000803e3d6000fd5b5050505060007f000000000000000000000000000000000000000000000000000000000000000073ffffffffffffffffffffffffffffffffffffffff1663ca15c873856040518263ffffffff1660e01b81526004018082815260200191505060206040518083038186803b158015610cc257600080fd5b505afa158015610cd6573d6000803e3d6000fd5b505050506040513d6020811015610cec57600080fd5b505190506000805b82811015610e7e5760007f000000000000000000000000000000000000000000000000000000000000000073ffffffffffffffffffffffffffffffffffffffff16639010d07c88856040518363ffffffff1660e01b8152600401808381526020018281526020019250505060206040518083038186803b158015610d7757600080fd5b505afa158015610d8b573d6000803e3d6000fd5b505050506040513d6020811015610da157600080fd5b5051905073ffffffffffffffffffffffffffffffffffffffff81163014610e70577f000000000000000000000000000000000000000000000000000000000000000073ffffffffffffffffffffffffffffffffffffffff1663d547741f88836040518363ffffffff1660e01b8152600401808381526020018273ffffffffffffffffffffffffffffffffffffffff16815260200192505050600060405180830381600087803b158015610e5357600080fd5b505af1158015610e67573d6000803e3d6000fd5b50505050610e75565b600192505b50600101610cf4565b50604080517fd547741f00000000000000000000000000000000000000000000000000000000815260048101879052306024820152905173ffffffffffffffffffffffffffffffffffffffff7f0000000000000000000000000000000000000000000000000000000000000000169163d547741f91604480830192600092919082900301818387803b158015610f1357600080fd5b505af1158015610f27573d6000803e3d6000fd5b505050507f000000000000000000000000000000000000000000000000000000000000000073ffffffffffffffffffffffffffffffffffffffff1663ca15c873866040518263ffffffff1660e01b81526004018082815260200191505060206040518083038186803b158015610f9c57600080fd5b505afa158015610fb0573d6000803e3d6000fd5b505050506040513d6020811015610fc657600080fd5b50511561101a576040805162461bcd60e51b815260206004820181905260248201527f416464726573732065786973747320776974682061646d696e20726967687473604482015290519081900360640190fd5b604080517f91d1485400000000000000000000000000000000000000000000000000000000815260048101899052306024820152905173ffffffffffffffffffffffffffffffffffffffff7f000000000000000000000000000000000000000000000000000000000000000016916391d14854916044808301926020929190829003018186803b1580156110ad57600080fd5b505afa1580156110c1573d6000803e3d6000fd5b505050506040513d60208110156110d757600080fd5b50516111145760405162461bcd60e51b8152600401808060200182810382526022815260200180611f576022913960400191505060405180910390fd5b604080517f91d1485400000000000000000000000000000000000000000000000000000000815260048101889052306024820152905173ffffffffffffffffffffffffffffffffffffffff7f000000000000000000000000000000000000000000000000000000000000000016916391d14854916044808301926020929190829003018186803b1580156111a757600080fd5b505afa1580156111bb573d6000803e3d6000fd5b505050506040513d60208110156111d157600080fd5b505161120e5760405162461bcd60e51b8152600401808060200182810382526027815260200180611f026027913960400191505060405180910390fd5b7f000000000000000000000000000000000000000000000000000000000000000073ffffffffffffffffffffffffffffffffffffffff1663ca15c873886040518263ffffffff1660e01b81526004018082815260200191505060206040518083038186803b15801561127f57600080fd5b505afa158015611293573d6000803e3d6000fd5b505050506040513d60208110156112a957600080fd5b50516001146112ff576040805162461bcd60e51b815260206004820152601660248201527f4d756c7469706c65206d696e7465727320657869737400000000000000000000604482015290519081900360640190fd5b7f000000000000000000000000000000000000000000000000000000000000000073ffffffffffffffffffffffffffffffffffffffff1663ca15c873876040518263ffffffff1660e01b81526004018082815260200191505060206040518083038186803b15801561137057600080fd5b505afa158015611384573d6000803e3d6000fd5b505050506040513d602081101561139a57600080fd5b50516001146113f0576040805162461bcd60e51b815260206004820152601b60248201527f4d756c7469706c6520736e617073686f74746572732065786973740000000000604482015290519081900360640190fd5b604080517f40c10f190000000000000000000000000000000000000000000000000000000081523360048201527f00000000000000000000000000000000000000000000000000000000000000006024820152905173ffffffffffffffffffffffffffffffffffffffff7f000000000000000000000000000000000000000000000000000000000000000016916340c10f1991604480830192600092919082900301818387803b1580156114a357600080fd5b505af11580156114b7573d6000803e3d6000fd5b5050600060035550504260025562093a80690ba58e545582d4600000046004557fa96ad9a0b81b29565fbe231714a2f2c152b759e603c91bf87144a3f61944f0a562093a80690ba58e545582d46000006003546040805193909204835260208301528051918290030190a150505050505050611531611a29565b565b670e043da61725000081565b6000610340611a30565b600061034062093a8061155a611a6a565b906119b5565b60045490565b61156e6119e0565b60025461157e9062093a806119b5565b421061158c5761158c611a95565b611594611a30565b6116548261155a7f00000000000000000000000000000000000000000000000000000000000000007f000000000000000000000000000000000000000000000000000000000000000073ffffffffffffffffffffffffffffffffffffffff166318160ddd6040518163ffffffff1660e01b815260040160206040518083038186803b15801561162257600080fd5b505afa158015611636573d6000803e3d6000fd5b505050506040513d602081101561164c57600080fd5b505190611b4f565b11156116915760405162461bcd60e51b815260040180806020018281038252602e815260200180611f29602e913960400191505060405180910390fd5b7f000000000000000000000000000000000000000000000000000000000000000073ffffffffffffffffffffffffffffffffffffffff166340c10f1983836040518363ffffffff1660e01b8152600401808373ffffffffffffffffffffffffffffffffffffffff16815260200182815260200192505050600060405180830381600087803b15801561172257600080fd5b505af1158015611736573d6000803e3d6000fd5b505050505050565b60025490565b67014314ada0ea5d1f81565b60035490565b670de0b6b3a764000081565b604080517f00000000000000000000000000000000000000000000000000000000000000006020808301919091527fffffffff000000000000000000000000000000000000000000000000000000008416828401528251602481840301815260449092019092528051910120919050565b7f000000000000000000000000000000000000000000000000000000000000000090565b6117ff6119e0565b7f000000000000000000000000000000000000000000000000000000000000000073ffffffffffffffffffffffffffffffffffffffff16639711715a6040518163ffffffff1660e01b8152600401600060405180830381600087803b15801561186757600080fd5b505af115801561187b573d6000803e3d6000fd5b50505050565b6000610340611a6a565b60006118956117d3565b73ffffffffffffffffffffffffffffffffffffffff1663aaabadc56040518163ffffffff1660e01b815260040160206040518083038186803b1580156118da57600080fd5b505afa1580156118ee573d6000803e3d6000fd5b505050506040513d602081101561190457600080fd5b5051905090565b62093a8081565b7f000000000000000000000000000000000000000000000000000000000000000090565b60006119428383611b65565b9392505050565b6002546119599062093a806119b5565b4210156119ad576040805162461bcd60e51b815260206004820152601a60248201527f45706f636820686173206e6f742066696e697368656420796574000000000000604482015290519081900360640190fd5b611531611a95565b60008282016119428482101583611d4b565b6119d960026000541415610190611d4b565b6002600055565b6000611a0f6000357fffffffff0000000000000000000000000000000000000000000000000000000016611762565b9050611a26611a1e8233611d5d565b610191611d4b565b50565b6001600055565b600080611a54600454611a4e60025442611b4f90919063ffffffff16565b90611e26565b600354909150611a6490826119b5565b91505090565b600254600090611a7d8162093a806119b5565b421061034057611a8b611a95565b505060025461032a565b6004546000611ab3611aaa8362093a80611e26565b600354906119b5565b9050611ad9670e043da617250000611ad384670de0b6b3a7640000611e26565b90611e4a565b9150611af0600180546119b590919063ffffffff16565b600155600254611b039062093a806119b5565b60025560048290556003819055604080518381526020810183905281517fa96ad9a0b81b29565fbe231714a2f2c152b759e603c91bf87144a3f61944f0a5929181900390910190a15050565b6000611b5f838311156001611d4b565b50900390565b600081831115611bbc576040805162461bcd60e51b815260206004820152600b60248201527f7374617274203e20656e64000000000000000000000000000000000000000000604482015290519081900360640190fd5b600254600454611bcf8262093a806119b5565b841115611c0657611be38262093a806119b5565b9150611c03670e043da617250000611ad383670de0b6b3a7640000611e26565b90505b611c138262093a806119b5565b841115611c67576040805162461bcd60e51b815260206004820152601160248201527f746f6f2066617220696e20667574757265000000000000000000000000000000604482015290519081900360640190fd5b6000805b6103e7811015611d4157838610611cf85785611c8a8562093a806119b5565b811115611ca157611c9e8562093a806119b5565b90505b87611caf8662093a806119b5565b8110611cbc575050611d41565b85811015611cc75750845b611ce5611cde611cd78484611b4f565b8790611e26565b85906119b5565b9350858910611cf5575050611d41565b50505b611d058462093a80611b4f565b9350611d25670de0b6b3a7640000611ad385670e043da617250000611e26565b925067014314ada0ea5d1f831115611d3957fe5b600101611c6b565b5095945050505050565b81611d5957611d5981611e6a565b5050565b6000611d6761188b565b73ffffffffffffffffffffffffffffffffffffffff16639be2a8848484306040518463ffffffff1660e01b8152600401808481526020018373ffffffffffffffffffffffffffffffffffffffff1681526020018273ffffffffffffffffffffffffffffffffffffffff168152602001935050505060206040518083038186803b158015611df357600080fd5b505afa158015611e07573d6000803e3d6000fd5b505050506040513d6020811015611e1d57600080fd5b50519392505050565b6000828202611942841580611e43575083858381611e4057fe5b04145b6003611d4b565b6000611e598215156004611d4b565b818381611e6257fe5b049392505050565b62461bcd60e51b600090815260206004526007602452600a808304818106603090810160081b83860601918390049283060160101b016642414c230000300160c81b604452611a26917f42414c0000000000000000000000000000000000000000000000000000000000906242414c90606490fdfe42616c616e636572546f6b656e41646d696e206973206e6f7420616e2061646d696e42616c616e636572546f6b656e41646d696e206973206e6f74206120736e617073686f747465724d696e7420616d6f756e7420657863656564732072656d61696e696e6720617661696c61626c6520737570706c7942616c616e636572546f6b656e41646d696e206973206e6f742061206d696e746572a264697066735822122055dd55b36d3a454cda2f784696cdf166a9a3ea4978f99515a6d5bef9c5a9905864736f6c63430007010033",
  "linkReferences": {},
  "deployedLinkReferences": {}
}