{
  "_format": "hh-sol-artifact-1",
  "contractName": "BalancerMinter",
  "sourceName": "contracts/BalancerMinter.sol",
  "abi": [
    {
      "inputs": [
        {
          "internalType": "contract IBalancerTokenAdmin",
          "name": "tokenAdmin",
          "type": "address"
        },
        {
          "internalType": "contract IGaugeController",
          "name": "gaugeController",
          "type": "address"
        }
      ],
      "stateMutability": "nonpayable",
      "type": "constructor"
    },
    {
      "anonymous": false,
      "inputs": [
        {
          "indexed": true,
          "internalType": "address",
          "name": "recipient",
          "type": "address"
        },
        {
          "indexed": false,
          "internalType": "address",
          "name": "gauge",
          "type": "address"
        },
        {
          "indexed": false,
          "internalType": "uint256",
          "name": "minted",
          "type": "uint256"
        }
      ],
      "name": "Minted",
      "type": "event"
    },
    {
      "anonymous": false,
      "inputs": [
        {
          "indexed": true,
          "internalType": "address",
          "name": "user",
          "type": "address"
        },
        {
          "indexed": true,
          "internalType": "address",
          "name": "minter",
          "type": "address"
        },
        {
          "indexed": false,
          "internalType": "bool",
          "name": "approval",
          "type": "bool"
        }
      ],
      "name": "MinterApprovalSet",
      "type": "event"
    },
    {
      "inputs": [
        {
          "internalType": "address",
          "name": "minter",
          "type": "address"
        },
        {
          "internalType": "address",
          "name": "user",
          "type": "address"
        }
      ],
      "name": "allowed_to_mint_for",
      "outputs": [
        {
          "internalType": "bool",
          "name": "",
          "type": "bool"
        }
      ],
      "stateMutability": "view",
      "type": "function"
    },
    {
      "inputs": [],
      "name": "getBalancerToken",
      "outputs": [
        {
          "internalType": "contract IERC20",
          "name": "",
          "type": "address"
        }
      ],
      "stateMutability": "view",
      "type": "function"
    },
    {
      "inputs": [],
      "name": "getBalancerTokenAdmin",
      "outputs": [
        {
          "internalType": "contract IBalancerTokenAdmin",
          "name": "",
          "type": "address"
        }
      ],
      "stateMutability": "view",
      "type": "function"
    },
    {
      "inputs": [],
      "name": "getDomainSeparator",
      "outputs": [
        {
          "internalType": "bytes32",
          "name": "",
          "type": "bytes32"
        }
      ],
      "stateMutability": "view",
      "type": "function"
    },
    {
      "inputs": [],
      "name": "getGaugeController",
      "outputs": [
        {
          "internalType": "contract IGaugeController",
          "name": "",
          "type": "address"
        }
      ],
      "stateMutability": "view",
      "type": "function"
    },
    {
      "inputs": [
        {
          "internalType": "address",
          "name": "minter",
          "type": "address"
        },
        {
          "internalType": "address",
          "name": "user",
          "type": "address"
        }
      ],
      "name": "getMinterApproval",
      "outputs": [
        {
          "internalType": "bool",
          "name": "",
          "type": "bool"
        }
      ],
      "stateMutability": "view",
      "type": "function"
    },
    {
      "inputs": [
        {
          "internalType": "address",
          "name": "account",
          "type": "address"
        }
      ],
      "name": "getNextNonce",
      "outputs": [
        {
          "internalType": "uint256",
          "name": "",
          "type": "uint256"
        }
      ],
      "stateMutability": "view",
      "type": "function"
    },
    {
      "inputs": [
        {
          "internalType": "address",
          "name": "gauge",
          "type": "address"
        }
      ],
      "name": "mint",
      "outputs": [
        {
          "internalType": "uint256",
          "name": "",
          "type": "uint256"
        }
      ],
      "stateMutability": "nonpayable",
      "type": "function"
    },
    {
      "inputs": [
        {
          "internalType": "address",
          "name": "gauge",
          "type": "address"
        },
        {
          "internalType": "address",
          "name": "user",
          "type": "address"
        }
      ],
      "name": "mintFor",
      "outputs": [
        {
          "internalType": "uint256",
          "name": "",
          "type": "uint256"
        }
      ],
      "stateMutability": "nonpayable",
      "type": "function"
    },
    {
      "inputs": [
        {
          "internalType": "address[]",
          "name": "gauges",
          "type": "address[]"
        }
      ],
      "name": "mintMany",
      "outputs": [
        {
          "internalType": "uint256",
          "name": "",
          "type": "uint256"
        }
      ],
      "stateMutability": "nonpayable",
      "type": "function"
    },
    {
      "inputs": [
        {
          "internalType": "address[]",
          "name": "gauges",
          "type": "address[]"
        },
        {
          "internalType": "address",
          "name": "user",
          "type": "address"
        }
      ],
      "name": "mintManyFor",
      "outputs": [
        {
          "internalType": "uint256",
          "name": "",
          "type": "uint256"
        }
      ],
      "stateMutability": "nonpayable",
      "type": "function"
    },
    {
      "inputs": [
        {
          "internalType": "address",
          "name": "gauge",
          "type": "address"
        },
        {
          "internalType": "address",
          "name": "user",
          "type": "address"
        }
      ],
      "name": "mint_for",
      "outputs": [],
      "stateMutability": "nonpayable",
      "type": "function"
    },
    {
      "inputs": [
        {
          "internalType": "address[8]",
          "name": "gauges",
          "type": "address[8]"
        }
      ],
      "name": "mint_many",
      "outputs": [],
      "stateMutability": "nonpayable",
      "type": "function"
    },
    {
      "inputs": [
        {
          "internalType": "address",
          "name": "user",
          "type": "address"
        },
        {
          "internalType": "address",
          "name": "gauge",
          "type": "address"
        }
      ],
      "name": "minted",
      "outputs": [
        {
          "internalType": "uint256",
          "name": "",
          "type": "uint256"
        }
      ],
      "stateMutability": "view",
      "type": "function"
    },
    {
      "inputs": [
        {
          "internalType": "address",
          "name": "minter",
          "type": "address"
        },
        {
          "internalType": "bool",
          "name": "approval",
          "type": "bool"
        }
      ],
      "name": "setMinterApproval",
      "outputs": [],
      "stateMutability": "nonpayable",
      "type": "function"
    },
    {
      "inputs": [
        {
          "internalType": "address",
          "name": "minter",
          "type": "address"
        },
        {
          "internalType": "bool",
          "name": "approval",
          "type": "bool"
        },
        {
          "internalType": "address",
          "name": "user",
          "type": "address"
        },
        {
          "internalType": "uint256",
          "name": "deadline",
          "type": "uint256"
        },
        {
          "internalType": "uint8",
          "name": "v",
          "type": "uint8"
        },
        {
          "internalType": "bytes32",
          "name": "r",
          "type": "bytes32"
        },
        {
          "internalType": "bytes32",
          "name": "s",
          "type": "bytes32"
        }
      ],
      "name": "setMinterApprovalWithSignature",
      "outputs": [],
      "stateMutability": "nonpayable",
      "type": "function"
    },
    {
      "inputs": [
        {
          "internalType": "address",
          "name": "minter",
          "type": "address"
        }
      ],
      "name": "toggle_approve_mint",
      "outputs": [],
      "stateMutability": "nonpayable",
      "type": "function"
    }
  ],
  "bytecode": "0x61014060405234801561001157600080fd5b506040516114e63803806114e68339818101604052604081101561003457600080fd5b508051602091820151604080518082018252600f81526e2130b630b731b2b91026b4b73a32b960891b818601908152825180840184526001808252603160f81b828901908152600091909155925190912060805251902060a0527f8b73c3c69bb8fe3d512ecc4cf759cc79239f7b179b0ffacaa9a75d522b39400f60c052805163c003969960e01b81529051929391926001600160a01b0385169263c00396999260048082019391829003018186803b1580156100f057600080fd5b505afa158015610104573d6000803e3d6000fd5b505050506040513d602081101561011a57600080fd5b50516001600160601b0319606091821b811660e05292811b8316610100521b166101205260805160a05160c05160e05160601c6101005160601c6101205160601c61134761019f600039806106375280610d745250806109345280610a305280610b4052508061081e525080610c9a525080610cdc525080610cbb52506113476000f3fe608060405234801561001057600080fd5b506004361061011b5760003560e01c80638b752bb0116100b2578063c003969911610081578063dd289d6011610066578063dd289d601461047f578063e6dec36f146104b2578063ed24911d146104ba5761011b565b8063c003969914610419578063c6542794146104215761011b565b80638b752bb01461038e57806390193b7c146103c9578063a0990033146102a0578063a51e1904146103fc5761011b565b80633c543bc6116100ee5780633c543bc6146102a057806358de9ade146102ef5780636a627842146103205780637504a15d146103535761011b565b80630de54ba01461012057806327f18ae31461015d578063397ada21146101985780633b9f73841461021a575b600080fd5b61015b6004803603604081101561013657600080fd5b5073ffffffffffffffffffffffffffffffffffffffff813516906020013515156104c2565b005b61015b6004803603604081101561017357600080fd5b5073ffffffffffffffffffffffffffffffffffffffff813581169160200135166104d1565b610208600480360360208110156101ae57600080fd5b8101906020810181356401000000008111156101c957600080fd5b8201836020820111156101db57600080fd5b803590602001918460208302840111640100000000831117156101fd57600080fd5b509092509050610526565b60408051918252519081900360200190f35b6102086004803603604081101561023057600080fd5b81019060208101813564010000000081111561024b57600080fd5b82018360208201111561025d57600080fd5b8035906020019184602083028401116401000000008311171561027f57600080fd5b91935091503573ffffffffffffffffffffffffffffffffffffffff1661054b565b6102db600480360360408110156102b657600080fd5b5073ffffffffffffffffffffffffffffffffffffffff813581169160200135166105fa565b604080519115158252519081900360200190f35b6102f7610635565b6040805173ffffffffffffffffffffffffffffffffffffffff9092168252519081900360200190f35b6102086004803603602081101561033657600080fd5b503573ffffffffffffffffffffffffffffffffffffffff16610659565b6102086004803603604081101561036957600080fd5b5073ffffffffffffffffffffffffffffffffffffffff8135811691602001351661067c565b610208600480360360408110156103a457600080fd5b5073ffffffffffffffffffffffffffffffffffffffff81358116916020013516610719565b610208600480360360208110156103df57600080fd5b503573ffffffffffffffffffffffffffffffffffffffff16610751565b61015b600480360361010081101561041357600080fd5b50610779565b6102f761081c565b61015b600480360360e081101561043757600080fd5b5073ffffffffffffffffffffffffffffffffffffffff813581169160208101351515916040820135169060608101359060ff6080820135169060a08101359060c00135610840565b61015b6004803603602081101561049557600080fd5b503573ffffffffffffffffffffffffffffffffffffffff166108f2565b6102f7610932565b610208610956565b6104cd823383610965565b5050565b6104d9610a01565b33600090815260036020908152604080832073ffffffffffffffffffffffffffffffffffffffff8516845290915290205460ff161561051e5761051c8282610a1a565b505b6104cd610add565b6000610530610a01565b61053b838333610ae4565b9050610545610add565b92915050565b6000610555610a01565b33600090815260036020908152604080832073ffffffffffffffffffffffffffffffffffffffff8616845290915290205460ff166105de576040517f08c379a00000000000000000000000000000000000000000000000000000000081526004018080602001828103825260238152602001806112cd6023913960400191505060405180910390fd5b6105e9848484610ae4565b90506105f3610add565b9392505050565b73ffffffffffffffffffffffffffffffffffffffff918216600090815260036020908152604080832093909416825291909152205460ff1690565b7f000000000000000000000000000000000000000000000000000000000000000090565b6000610663610a01565b61066d8233610a1a565b9050610677610add565b919050565b6000610686610a01565b33600090815260036020908152604080832073ffffffffffffffffffffffffffffffffffffffff8616845290915290205460ff1661070f576040517f08c379a00000000000000000000000000000000000000000000000000000000081526004018080602001828103825260238152602001806112cd6023913960400191505060405180910390fd5b61053b8383610a1a565b73ffffffffffffffffffffffffffffffffffffffff918216600090815260026020908152604080832093909416825291909152205490565b73ffffffffffffffffffffffffffffffffffffffff1660009081526001602052604090205490565b610781610a01565b60005b600881101561081057600082826008811061079b57fe5b602002013573ffffffffffffffffffffffffffffffffffffffff1673ffffffffffffffffffffffffffffffffffffffff1614156107d757610810565b6108078282600881106107e657fe5b602002013573ffffffffffffffffffffffffffffffffffffffff1633610a1a565b50600101610784565b50610819610add565b50565b7f000000000000000000000000000000000000000000000000000000000000000090565b60007fc87351a089bbdc3b2b9299d2ce29f08fd982826b275b3642939a2f7fdd815380888861086e89610751565b6040805160208082019690965273ffffffffffffffffffffffffffffffffffffffff909416848201529115156060840152608083015260a08083018990528151808403909101815260c09092019052805191012090506108dd86826108d4878787610bf0565b886101f8610c2f565b6108e8888789610965565b5050505050505050565b73ffffffffffffffffffffffffffffffffffffffff8116600090815260036020908152604080832033845290915290205461081990829060ff16156104c2565b7f000000000000000000000000000000000000000000000000000000000000000090565b6000610960610c96565b905090565b73ffffffffffffffffffffffffffffffffffffffff83811660008181526003602090815260408083209487168084529482529182902080547fffffffffffffffffffffffffffffffffffffffffffffffffffffffffffffff0016861515908117909155825190815291519293927fa3ffb51320bbca4e61e7423e3c97dd7bd7e31b6ea7429eb26ef92780e84572a09281900390910190a3505050565b610a1360026000541415610190610d61565b6002600055565b6000610a268383610d6f565b90508015610545577f000000000000000000000000000000000000000000000000000000000000000073ffffffffffffffffffffffffffffffffffffffff166340c10f1983836040518363ffffffff1660e01b8152600401808373ffffffffffffffffffffffffffffffffffffffff16815260200182815260200192505050600060405180830381600087803b158015610abf57600080fd5b505af1158015610ad3573d6000803e3d6000fd5b5050505092915050565b6001600055565b600082815b81811015610b3757610b2d610b26878784818110610b0357fe5b9050602002013573ffffffffffffffffffffffffffffffffffffffff1686610d6f565b8490611074565b9250600101610ae9565b508115610be8577f000000000000000000000000000000000000000000000000000000000000000073ffffffffffffffffffffffffffffffffffffffff166340c10f1984846040518363ffffffff1660e01b8152600401808373ffffffffffffffffffffffffffffffffffffffff16815260200182815260200192505050600060405180830381600087803b158015610bcf57600080fd5b505af1158015610be3573d6000803e3d6000fd5b505050505b509392505050565b60408051604180825260808201909252606091829190602082018180368337019050509050836020820152826040820152846060820153949350505050565b6000610c3a85611086565b9050610c50610c4a8783876110ed565b83610d61565b610c5f428410156101b8610d61565b50505073ffffffffffffffffffffffffffffffffffffffff9092166000908152600160208190526040909120805490910190555050565b60007f00000000000000000000000000000000000000000000000000000000000000007f00000000000000000000000000000000000000000000000000000000000000007f0000000000000000000000000000000000000000000000000000000000000000610d036111ff565b30604051602001808681526020018581526020018481526020018381526020018273ffffffffffffffffffffffffffffffffffffffff1681526020019550505050505060405160208183030381529060405280519060200120905090565b816104cd576104cd81611203565b6000807f000000000000000000000000000000000000000000000000000000000000000073ffffffffffffffffffffffffffffffffffffffff16633f9095b7856040518263ffffffff1660e01b8152600401808273ffffffffffffffffffffffffffffffffffffffff16815260200191505060206040518083038186803b158015610df957600080fd5b505afa158015610e0d573d6000803e3d6000fd5b505050506040513d6020811015610e2357600080fd5b5051600f0b1215610e7f576040517f08c379a00000000000000000000000000000000000000000000000000000000081526004018080602001828103825260228152602001806112f06022913960400191505060405180910390fd5b8273ffffffffffffffffffffffffffffffffffffffff16634b820093836040518263ffffffff1660e01b8152600401808273ffffffffffffffffffffffffffffffffffffffff168152602001915050602060405180830381600087803b158015610ee857600080fd5b505af1158015610efc573d6000803e3d6000fd5b505050506040513d6020811015610f1257600080fd5b5050604080517f0940070700000000000000000000000000000000000000000000000000000000815273ffffffffffffffffffffffffffffffffffffffff848116600483015291516000928616916309400707916024808301926020929190829003018186803b158015610f8557600080fd5b505afa158015610f99573d6000803e3d6000fd5b505050506040513d6020811015610faf57600080fd5b505173ffffffffffffffffffffffffffffffffffffffff808516600090815260026020908152604080832093891683529290522054909150610ff290829061122d565b9150811561106d5773ffffffffffffffffffffffffffffffffffffffff80841660008181526002602090815260408083209489168084529482529182902085905581519384528301849052805191927f9d228d69b5fdb8d273a2336f8fb8612d039631024ea9bf09c424a9503aa078f0929081900390910190a25b5092915050565b60008282016105f38482101583610d61565b6000611090610c96565b8260405160200180807f190100000000000000000000000000000000000000000000000000000000000081525060020183815260200182815260200192505050604051602081830303815290604052805190602001209050919050565b60006110ff82516041146101b9610d61565b60008060006020850151925060408501519150606085015160001a9050600060018783868660405160008152602001604052604051808581526020018460ff1681526020018381526020018281526020019450505050506020604051602081039080840390855afa158015611178573d6000803e3d6000fd5b50506040517fffffffffffffffffffffffffffffffffffffffffffffffffffffffffffffffe0015191505073ffffffffffffffffffffffffffffffffffffffff8116158015906111f357508773ffffffffffffffffffffffffffffffffffffffff168173ffffffffffffffffffffffffffffffffffffffff16145b98975050505050505050565b4690565b610819817f42414c000000000000000000000000000000000000000000000000000000000061123b565b60006105f3838360016112b6565b7f08c379a000000000000000000000000000000000000000000000000000000000600090815260206004526007602452600a808404818106603090810160081b958390069590950190829004918206850160101b01602363ffffff0060e086901c160160181b0190930160c81b60445260e882901c90606490fd5b60006112c58484111583610d61565b505090039056fe43616c6c6572206e6f7420616c6c6f77656420746f206d696e7420666f722075736572476175676520646f6573206e6f74206578697374206f6e20436f6e74726f6c6c6572a264697066735822122053e008c59d1ae84a3f8f4b453206b0c3461137173cf0c7d3a148abce9bb5404064736f6c63430007010033",
  "linkReferences": {},
  "deployedLinkReferences": {}
}