{
  "_format": "hh-sol-artifact-1",
  "contractName": "GaugeControllerQuerier",
  "sourceName": "contracts/GaugeControllerQuerier.sol",
  "abi": [
    {
      "inputs": [
        {
          "internalType": "address",
          "name": "gaugeController",
          "type": "address"
        }
      ],
      "stateMutability": "nonpayable",
      "type": "constructor"
    },
    {
      "inputs": [],
      "name": "GAUGE_CONTROLLER",
      "outputs": [
        {
          "internalType": "contract IGaugeController",
          "name": "",
          "type": "address"
        }
      ],
      "stateMutability": "view",
      "type": "function"
    },
    {
      "inputs": [
        {
          "internalType": "address",
          "name": "gauge",
          "type": "address"
        }
      ],
      "name": "gauge_relative_weight",
      "outputs": [
        {
          "internalType": "uint256",
          "name": "",
          "type": "uint256"
        }
      ],
      "stateMutability": "nonpayable",
      "type": "function"
    }
  ],
  "bytecode": "0x60a060405234801561001057600080fd5b506040516102d63803806102d68339818101604052602081101561003357600080fd5b5051606081901b6001600160601b0319166080526001600160a01b031661026761006f6000398060b3528060d9528061017a52506102676000f3fe608060405234801561001057600080fd5b50600436106100365760003560e01c806322884e2c1461003b5780636207d8661461006c575b600080fd5b6100436100b1565b6040805173ffffffffffffffffffffffffffffffffffffffff9092168252519081900360200190f35b61009f6004803603602081101561008257600080fd5b503573ffffffffffffffffffffffffffffffffffffffff166100d5565b60408051918252519081900360200190f35b7f000000000000000000000000000000000000000000000000000000000000000081565b60007f000000000000000000000000000000000000000000000000000000000000000073ffffffffffffffffffffffffffffffffffffffff1663615e5237836040518263ffffffff1660e01b8152600401808273ffffffffffffffffffffffffffffffffffffffff168152602001915050600060405180830381600087803b15801561016057600080fd5b505af1158015610174573d6000803e3d6000fd5b505050507f000000000000000000000000000000000000000000000000000000000000000073ffffffffffffffffffffffffffffffffffffffff16636207d866836040518263ffffffff1660e01b8152600401808273ffffffffffffffffffffffffffffffffffffffff16815260200191505060206040518083038186803b1580156101ff57600080fd5b505afa158015610213573d6000803e3d6000fd5b505050506040513d602081101561022957600080fd5b50519291505056fea26469706673582212205257cd377636a6ecd9418f617f5b1f3fca473866bfd0b763acb8f4a43f31cdff64736f6c63430007010033",
  "linkReferences": {},
  "deployedLinkReferences": {}
}