{
  "_format": "hh-sol-artifact-1",
  "contractName": "MockBasicAuthorizer",
  "sourceName": "contracts/test/MockBasicAuthorizer.sol",
  "abi": [
    {
      "inputs": [],
      "stateMutability": "nonpayable",
      "type": "constructor"
    },
    {
      "inputs": [],
      "name": "DEFAULT_ADMIN_ROLE",
      "outputs": [
        {
          "internalType": "bytes32",
          "name": "",
          "type": "bytes32"
        }
      ],
      "stateMutability": "view",
      "type": "function"
    },
    {
      "inputs": [
        {
          "internalType": "bytes32",
          "name": "actionId",
          "type": "bytes32"
        },
        {
          "internalType": "address",
          "name": "account",
          "type": "address"
        },
        {
          "internalType": "address",
          "name": "",
          "type": "address"
        }
      ],
      "name": "canPerform",
      "outputs": [
        {
          "internalType": "bool",
          "name": "",
          "type": "bool"
        }
      ],
      "stateMutability": "view",
      "type": "function"
    },
    {
      "inputs": [
        {
          "internalType": "bytes32",
          "name": "role",
          "type": "bytes32"
        }
      ],
      "name": "getRoleAdmin",
      "outputs": [
        {
          "internalType": "bytes32",
          "name": "",
          "type": "bytes32"
        }
      ],
      "stateMutability": "view",
      "type": "function"
    },
    {
      "inputs": [
        {
          "internalType": "bytes32",
          "name": "role",
          "type": "bytes32"
        },
        {
          "internalType": "uint256",
          "name": "index",
          "type": "uint256"
        }
      ],
      "name": "getRoleMember",
      "outputs": [
        {
          "internalType": "address",
          "name": "",
          "type": "address"
        }
      ],
      "stateMutability": "view",
      "type": "function"
    },
    {
      "inputs": [
        {
          "internalType": "bytes32",
          "name": "role",
          "type": "bytes32"
        }
      ],
      "name": "getRoleMemberCount",
      "outputs": [
        {
          "internalType": "uint256",
          "name": "",
          "type": "uint256"
        }
      ],
      "stateMutability": "view",
      "type": "function"
    },
    {
      "inputs": [
        {
          "internalType": "bytes32",
          "name": "role",
          "type": "bytes32"
        },
        {
          "internalType": "address",
          "name": "account",
          "type": "address"
        }
      ],
      "name": "grantRole",
      "outputs": [],
      "stateMutability": "nonpayable",
      "type": "function"
    },
    {
      "inputs": [
        {
          "internalType": "bytes32[]",
          "name": "roles",
          "type": "bytes32[]"
        },
        {
          "internalType": "address[]",
          "name": "accounts",
          "type": "address[]"
        }
      ],
      "name": "grantRolesToMany",
      "outputs": [],
      "stateMutability": "nonpayable",
      "type": "function"
    },
    {
      "inputs": [
        {
          "internalType": "bytes32",
          "name": "role",
          "type": "bytes32"
        },
        {
          "internalType": "address",
          "name": "account",
          "type": "address"
        }
      ],
      "name": "hasRole",
      "outputs": [
        {
          "internalType": "bool",
          "name": "",
          "type": "bool"
        }
      ],
      "stateMutability": "view",
      "type": "function"
    }
  ],
  "bytecode": "0x608060405234801561001057600080fd5b5061001c600033610021565b6100ce565b600082815260208181526040909120610043918390610255610048821b17901c565b505050565b600061005483836100ad565b6100a357508154600180820184556000848152602080822090930180546001600160a01b0319166001600160a01b038616908117909155855490825282860190935260409020919091556100a7565b5060005b92915050565b6001600160a01b031660009081526001919091016020526040902054151590565b6106e8806100dd6000396000f3fe608060405234801561001057600080fd5b50600436106100885760003560e01c80639be2a8841161005b5780639be2a8841461010b578063a217fddf1461011e578063a73cb2ab14610126578063ca15c8731461013957610088565b8063248a9ca31461008d5780632f2ff15d146100b65780639010d07c146100cb57806391d14854146100eb575b600080fd5b6100a061009b366004610594565b61014c565b6040516100ad9190610662565b60405180910390f35b6100c96100c43660046105ac565b610161565b005b6100de6100d9366004610615565b610197565b6040516100ad9190610636565b6100fe6100f93660046105ac565b6101b8565b6040516100ad9190610657565b6100fe6101193660046105d8565b6101d0565b6100a06101e4565b6100c96101343660046104da565b6101e9565b6100a0610147366004610594565b61023e565b60009081526020819052604090206002015490565b6000828152602081905260409020600201546101899061018190336101b8565b6101a66102dd565b61019382826102eb565b5050565b60008281526020819052604081206101af9083610303565b90505b92915050565b60008281526020819052604081206101af908361031f565b60006101dc84846101b8565b949350505050565b600081565b6101f58251825161034d565b60005b82518110156102395761023183828151811061021057fe5b602002602001015183838151811061022457fe5b6020026020010151610161565b6001016101f8565b505050565b60008181526020819052604081206101b29061035a565b6000610261838361031f565b6102d557508154600180820184556000848152602080822090930180547fffffffffffffffffffffffff00000000000000000000000000000000000000001673ffffffffffffffffffffffffffffffffffffffff8616908117909155855490825282860190935260409020919091556101b2565b5060006101b2565b81610193576101938161035e565b60008281526020819052604090206102399082610255565b815460009061031590831060646102dd565b6101af838361038b565b73ffffffffffffffffffffffffffffffffffffffff1660009081526001919091016020526040902054151590565b61019381831460676102dd565b5490565b610388817f42414c00000000000000000000000000000000000000000000000000000000006103c5565b50565b600082600001828154811061039c57fe5b60009182526020909120015473ffffffffffffffffffffffffffffffffffffffff169392505050565b7f08c379a000000000000000000000000000000000000000000000000000000000600090815260206004526007602452600a808404818106603090810160081b958390069590950190829004918206850160101b01602363ffffff0060e086901c160160181b0190930160c81b60445260e882901c90606490fd5b803573ffffffffffffffffffffffffffffffffffffffff811681146101b257600080fd5b600082601f830112610474578081fd5b813561048761048282610692565b61066b565b8181529150602080830190848101818402860182018710156104a857600080fd5b60005b848110156104cf576104bd8883610440565b845292820192908201906001016104ab565b505050505092915050565b600080604083850312156104ec578182fd5b823567ffffffffffffffff80821115610503578384fd5b818501915085601f830112610516578384fd5b813561052461048282610692565b80828252602080830192508086018a828387028901011115610544578889fd5b8896505b84871015610566578035845260019690960195928101928101610548565b50909650870135935050508082111561057d578283fd5b5061058a85828601610464565b9150509250929050565b6000602082840312156105a5578081fd5b5035919050565b600080604083850312156105be578182fd5b823591506105cf8460208501610440565b90509250929050565b6000806000606084860312156105ec578081fd5b833592506105fd8560208601610440565b915061060c8560408601610440565b90509250925092565b60008060408385031215610627578182fd5b50508035926020909101359150565b73ffffffffffffffffffffffffffffffffffffffff91909116815260200190565b901515815260200190565b90815260200190565b60405181810167ffffffffffffffff8111828210171561068a57600080fd5b604052919050565b600067ffffffffffffffff8211156106a8578081fd5b506020908102019056fea2646970667358221220c882c4d902831ba346f0da3c64729de78bd2e82f14e187eb07f4a944e24a509964736f6c63430007010033",
  "linkReferences": {},
  "deployedLinkReferences": {}
}