{
  "_format": "hh-sol-artifact-1",
  "contractName": "WeightedPool",
  "sourceName": "contracts/WeightedPool.sol",
  "abi": [
    {
      "inputs": [
        {
          "components": [
            {
              "internalType": "string",
              "name": "name",
              "type": "string"
            },
            {
              "internalType": "string",
              "name": "symbol",
              "type": "string"
            },
            {
              "internalType": "contract IERC20[]",
              "name": "tokens",
              "type": "address[]"
            },
            {
              "internalType": "uint256[]",
              "name": "normalizedWeights",
              "type": "uint256[]"
            },
            {
              "internalType": "contract IRateProvider[]",
              "name": "rateProviders",
              "type": "address[]"
            },
            {
              "internalType": "address[]",
              "name": "assetManagers",
              "type": "address[]"
            },
            {
              "internalType": "uint256",
              "name": "swapFeePercentage",
              "type": "uint256"
            }
          ],
          "internalType": "struct WeightedPool.NewPoolParams",
          "name": "params",
          "type": "tuple"
        },
        {
          "internalType": "contract IVault",
          "name": "vault",
          "type": "address"
        },
        {
          "internalType": "contract IProtocolFeePercentagesProvider",
          "name": "protocolFeeProvider",
          "type": "address"
        },
        {
          "internalType": "uint256",
          "name": "pauseWindowDuration",
          "type": "uint256"
        },
        {
          "internalType": "uint256",
          "name": "bufferPeriodDuration",
          "type": "uint256"
        },
        {
          "internalType": "address",
          "name": "owner",
          "type": "address"
        }
      ],
      "stateMutability": "nonpayable",
      "type": "constructor"
    },
    {
      "anonymous": false,
      "inputs": [
        {
          "indexed": false,
          "internalType": "uint256",
          "name": "oldATHRateProduct",
          "type": "uint256"
        },
        {
          "indexed": false,
          "internalType": "uint256",
          "name": "newATHRateProduct",
          "type": "uint256"
        }
      ],
      "name": "ATHRateProductUpdated",
      "type": "event"
    },
    {
      "anonymous": false,
      "inputs": [
        {
          "indexed": true,
          "internalType": "address",
          "name": "owner",
          "type": "address"
        },
        {
          "indexed": true,
          "internalType": "address",
          "name": "spender",
          "type": "address"
        },
        {
          "indexed": false,
          "internalType": "uint256",
          "name": "value",
          "type": "uint256"
        }
      ],
      "name": "Approval",
      "type": "event"
    },
    {
      "anonymous": false,
      "inputs": [
        {
          "indexed": false,
          "internalType": "bool",
          "name": "paused",
          "type": "bool"
        }
      ],
      "name": "PausedStateChanged",
      "type": "event"
    },
    {
      "anonymous": false,
      "inputs": [
        {
          "indexed": false,
          "internalType": "bytes32",
          "name": "feeCache",
          "type": "bytes32"
        }
      ],
      "name": "ProtocolFeePercentageCacheUpdated",
      "type": "event"
    },
    {
      "anonymous": false,
      "inputs": [
        {
          "indexed": false,
          "internalType": "bool",
          "name": "enabled",
          "type": "bool"
        }
      ],
      "name": "RecoveryModeStateChanged",
      "type": "event"
    },
    {
      "anonymous": false,
      "inputs": [
        {
          "indexed": false,
          "internalType": "uint256",
          "name": "swapFeePercentage",
          "type": "uint256"
        }
      ],
      "name": "SwapFeePercentageChanged",
      "type": "event"
    },
    {
      "anonymous": false,
      "inputs": [
        {
          "indexed": true,
          "internalType": "address",
          "name": "from",
          "type": "address"
        },
        {
          "indexed": true,
          "internalType": "address",
          "name": "to",
          "type": "address"
        },
        {
          "indexed": false,
          "internalType": "uint256",
          "name": "value",
          "type": "uint256"
        }
      ],
      "name": "Transfer",
      "type": "event"
    },
    {
      "inputs": [],
      "name": "DOMAIN_SEPARATOR",
      "outputs": [
        {
          "internalType": "bytes32",
          "name": "",
          "type": "bytes32"
        }
      ],
      "stateMutability": "view",
      "type": "function"
    },
    {
      "inputs": [
        {
          "internalType": "address",
          "name": "owner",
          "type": "address"
        },
        {
          "internalType": "address",
          "name": "spender",
          "type": "address"
        }
      ],
      "name": "allowance",
      "outputs": [
        {
          "internalType": "uint256",
          "name": "",
          "type": "uint256"
        }
      ],
      "stateMutability": "view",
      "type": "function"
    },
    {
      "inputs": [
        {
          "internalType": "address",
          "name": "spender",
          "type": "address"
        },
        {
          "internalType": "uint256",
          "name": "amount",
          "type": "uint256"
        }
      ],
      "name": "approve",
      "outputs": [
        {
          "internalType": "bool",
          "name": "",
          "type": "bool"
        }
      ],
      "stateMutability": "nonpayable",
      "type": "function"
    },
    {
      "inputs": [
        {
          "internalType": "address",
          "name": "account",
          "type": "address"
        }
      ],
      "name": "balanceOf",
      "outputs": [
        {
          "internalType": "uint256",
          "name": "",
          "type": "uint256"
        }
      ],
      "stateMutability": "view",
      "type": "function"
    },
    {
      "inputs": [],
      "name": "decimals",
      "outputs": [
        {
          "internalType": "uint8",
          "name": "",
          "type": "uint8"
        }
      ],
      "stateMutability": "view",
      "type": "function"
    },
    {
      "inputs": [
        {
          "internalType": "address",
          "name": "spender",
          "type": "address"
        },
        {
          "internalType": "uint256",
          "name": "amount",
          "type": "uint256"
        }
      ],
      "name": "decreaseAllowance",
      "outputs": [
        {
          "internalType": "bool",
          "name": "",
          "type": "bool"
        }
      ],
      "stateMutability": "nonpayable",
      "type": "function"
    },
    {
      "inputs": [],
      "name": "disableRecoveryMode",
      "outputs": [],
      "stateMutability": "nonpayable",
      "type": "function"
    },
    {
      "inputs": [],
      "name": "enableRecoveryMode",
      "outputs": [],
      "stateMutability": "nonpayable",
      "type": "function"
    },
    {
      "inputs": [],
      "name": "getATHRateProduct",
      "outputs": [
        {
          "internalType": "uint256",
          "name": "",
          "type": "uint256"
        }
      ],
      "stateMutability": "view",
      "type": "function"
    },
    {
      "inputs": [
        {
          "internalType": "bytes4",
          "name": "selector",
          "type": "bytes4"
        }
      ],
      "name": "getActionId",
      "outputs": [
        {
          "internalType": "bytes32",
          "name": "",
          "type": "bytes32"
        }
      ],
      "stateMutability": "view",
      "type": "function"
    },
    {
      "inputs": [],
      "name": "getActualSupply",
      "outputs": [
        {
          "internalType": "uint256",
          "name": "",
          "type": "uint256"
        }
      ],
      "stateMutability": "view",
      "type": "function"
    },
    {
      "inputs": [],
      "name": "getAuthorizer",
      "outputs": [
        {
          "internalType": "contract IAuthorizer",
          "name": "",
          "type": "address"
        }
      ],
      "stateMutability": "view",
      "type": "function"
    },
    {
      "inputs": [],
      "name": "getDomainSeparator",
      "outputs": [
        {
          "internalType": "bytes32",
          "name": "",
          "type": "bytes32"
        }
      ],
      "stateMutability": "view",
      "type": "function"
    },
    {
      "inputs": [],
      "name": "getInvariant",
      "outputs": [
        {
          "internalType": "uint256",
          "name": "",
          "type": "uint256"
        }
      ],
      "stateMutability": "view",
      "type": "function"
    },
    {
      "inputs": [],
      "name": "getLastPostJoinExitInvariant",
      "outputs": [
        {
          "internalType": "uint256",
          "name": "",
          "type": "uint256"
        }
      ],
      "stateMutability": "view",
      "type": "function"
    },
    {
      "inputs": [
        {
          "internalType": "address",
          "name": "account",
          "type": "address"
        }
      ],
      "name": "getNextNonce",
      "outputs": [
        {
          "internalType": "uint256",
          "name": "",
          "type": "uint256"
        }
      ],
      "stateMutability": "view",
      "type": "function"
    },
    {
      "inputs": [],
      "name": "getNormalizedWeights",
      "outputs": [
        {
          "internalType": "uint256[]",
          "name": "",
          "type": "uint256[]"
        }
      ],
      "stateMutability": "view",
      "type": "function"
    },
    {
      "inputs": [],
      "name": "getOwner",
      "outputs": [
        {
          "internalType": "address",
          "name": "",
          "type": "address"
        }
      ],
      "stateMutability": "view",
      "type": "function"
    },
    {
      "inputs": [],
      "name": "getPausedState",
      "outputs": [
        {
          "internalType": "bool",
          "name": "paused",
          "type": "bool"
        },
        {
          "internalType": "uint256",
          "name": "pauseWindowEndTime",
          "type": "uint256"
        },
        {
          "internalType": "uint256",
          "name": "bufferPeriodEndTime",
          "type": "uint256"
        }
      ],
      "stateMutability": "view",
      "type": "function"
    },
    {
      "inputs": [],
      "name": "getPoolId",
      "outputs": [
        {
          "internalType": "bytes32",
          "name": "",
          "type": "bytes32"
        }
      ],
      "stateMutability": "view",
      "type": "function"
    },
    {
      "inputs": [
        {
          "internalType": "uint256",
          "name": "feeType",
          "type": "uint256"
        }
      ],
      "name": "getProtocolFeePercentageCache",
      "outputs": [
        {
          "internalType": "uint256",
          "name": "",
          "type": "uint256"
        }
      ],
      "stateMutability": "view",
      "type": "function"
    },
    {
      "inputs": [],
      "name": "getProtocolFeesCollector",
      "outputs": [
        {
          "internalType": "contract IProtocolFeesCollector",
          "name": "",
          "type": "address"
        }
      ],
      "stateMutability": "view",
      "type": "function"
    },
    {
      "inputs": [
        {
          "internalType": "uint256",
          "name": "feeType",
          "type": "uint256"
        }
      ],
      "name": "getProviderFeeId",
      "outputs": [
        {
          "internalType": "uint256",
          "name": "",
          "type": "uint256"
        }
      ],
      "stateMutability": "view",
      "type": "function"
    },
    {
      "inputs": [],
      "name": "getRateProviders",
      "outputs": [
        {
          "internalType": "contract IRateProvider[]",
          "name": "",
          "type": "address[]"
        }
      ],
      "stateMutability": "view",
      "type": "function"
    },
    {
      "inputs": [],
      "name": "getScalingFactors",
      "outputs": [
        {
          "internalType": "uint256[]",
          "name": "",
          "type": "uint256[]"
        }
      ],
      "stateMutability": "view",
      "type": "function"
    },
    {
      "inputs": [],
      "name": "getSwapFeePercentage",
      "outputs": [
        {
          "internalType": "uint256",
          "name": "",
          "type": "uint256"
        }
      ],
      "stateMutability": "view",
      "type": "function"
    },
    {
      "inputs": [],
      "name": "getVault",
      "outputs": [
        {
          "internalType": "contract IVault",
          "name": "",
          "type": "address"
        }
      ],
      "stateMutability": "view",
      "type": "function"
    },
    {
      "inputs": [],
      "name": "inRecoveryMode",
      "outputs": [
        {
          "internalType": "bool",
          "name": "",
          "type": "bool"
        }
      ],
      "stateMutability": "view",
      "type": "function"
    },
    {
      "inputs": [
        {
          "internalType": "address",
          "name": "spender",
          "type": "address"
        },
        {
          "internalType": "uint256",
          "name": "addedValue",
          "type": "uint256"
        }
      ],
      "name": "increaseAllowance",
      "outputs": [
        {
          "internalType": "bool",
          "name": "",
          "type": "bool"
        }
      ],
      "stateMutability": "nonpayable",
      "type": "function"
    },
    {
      "inputs": [],
      "name": "name",
      "outputs": [
        {
          "internalType": "string",
          "name": "",
          "type": "string"
        }
      ],
      "stateMutability": "view",
      "type": "function"
    },
    {
      "inputs": [
        {
          "internalType": "address",
          "name": "owner",
          "type": "address"
        }
      ],
      "name": "nonces",
      "outputs": [
        {
          "internalType": "uint256",
          "name": "",
          "type": "uint256"
        }
      ],
      "stateMutability": "view",
      "type": "function"
    },
    {
      "inputs": [
        {
          "internalType": "bytes32",
          "name": "poolId",
          "type": "bytes32"
        },
        {
          "internalType": "address",
          "name": "sender",
          "type": "address"
        },
        {
          "internalType": "address",
          "name": "recipient",
          "type": "address"
        },
        {
          "internalType": "uint256[]",
          "name": "balances",
          "type": "uint256[]"
        },
        {
          "internalType": "uint256",
          "name": "lastChangeBlock",
          "type": "uint256"
        },
        {
          "internalType": "uint256",
          "name": "protocolSwapFeePercentage",
          "type": "uint256"
        },
        {
          "internalType": "bytes",
          "name": "userData",
          "type": "bytes"
        }
      ],
      "name": "onExitPool",
      "outputs": [
        {
          "internalType": "uint256[]",
          "name": "",
          "type": "uint256[]"
        },
        {
          "internalType": "uint256[]",
          "name": "",
          "type": "uint256[]"
        }
      ],
      "stateMutability": "nonpayable",
      "type": "function"
    },
    {
      "inputs": [
        {
          "internalType": "bytes32",
          "name": "poolId",
          "type": "bytes32"
        },
        {
          "internalType": "address",
          "name": "sender",
          "type": "address"
        },
        {
          "internalType": "address",
          "name": "recipient",
          "type": "address"
        },
        {
          "internalType": "uint256[]",
          "name": "balances",
          "type": "uint256[]"
        },
        {
          "internalType": "uint256",
          "name": "lastChangeBlock",
          "type": "uint256"
        },
        {
          "internalType": "uint256",
          "name": "protocolSwapFeePercentage",
          "type": "uint256"
        },
        {
          "internalType": "bytes",
          "name": "userData",
          "type": "bytes"
        }
      ],
      "name": "onJoinPool",
      "outputs": [
        {
          "internalType": "uint256[]",
          "name": "",
          "type": "uint256[]"
        },
        {
          "internalType": "uint256[]",
          "name": "",
          "type": "uint256[]"
        }
      ],
      "stateMutability": "nonpayable",
      "type": "function"
    },
    {
      "inputs": [
        {
          "components": [
            {
              "internalType": "enum IVault.SwapKind",
              "name": "kind",
              "type": "uint8"
            },
            {
              "internalType": "contract IERC20",
              "name": "tokenIn",
              "type": "address"
            },
            {
              "internalType": "contract IERC20",
              "name": "tokenOut",
              "type": "address"
            },
            {
              "internalType": "uint256",
              "name": "amount",
              "type": "uint256"
            },
            {
              "internalType": "bytes32",
              "name": "poolId",
              "type": "bytes32"
            },
            {
              "internalType": "uint256",
              "name": "lastChangeBlock",
              "type": "uint256"
            },
            {
              "internalType": "address",
              "name": "from",
              "type": "address"
            },
            {
              "internalType": "address",
              "name": "to",
              "type": "address"
            },
            {
              "internalType": "bytes",
              "name": "userData",
              "type": "bytes"
            }
          ],
          "internalType": "struct IPoolSwapStructs.SwapRequest",
          "name": "request",
          "type": "tuple"
        },
        {
          "internalType": "uint256",
          "name": "balanceTokenIn",
          "type": "uint256"
        },
        {
          "internalType": "uint256",
          "name": "balanceTokenOut",
          "type": "uint256"
        }
      ],
      "name": "onSwap",
      "outputs": [
        {
          "internalType": "uint256",
          "name": "",
          "type": "uint256"
        }
      ],
      "stateMutability": "nonpayable",
      "type": "function"
    },
    {
      "inputs": [],
      "name": "pause",
      "outputs": [],
      "stateMutability": "nonpayable",
      "type": "function"
    },
    {
      "inputs": [
        {
          "internalType": "address",
          "name": "owner",
          "type": "address"
        },
        {
          "internalType": "address",
          "name": "spender",
          "type": "address"
        },
        {
          "internalType": "uint256",
          "name": "value",
          "type": "uint256"
        },
        {
          "internalType": "uint256",
          "name": "deadline",
          "type": "uint256"
        },
        {
          "internalType": "uint8",
          "name": "v",
          "type": "uint8"
        },
        {
          "internalType": "bytes32",
          "name": "r",
          "type": "bytes32"
        },
        {
          "internalType": "bytes32",
          "name": "s",
          "type": "bytes32"
        }
      ],
      "name": "permit",
      "outputs": [],
      "stateMutability": "nonpayable",
      "type": "function"
    },
    {
      "inputs": [
        {
          "internalType": "bytes32",
          "name": "poolId",
          "type": "bytes32"
        },
        {
          "internalType": "address",
          "name": "sender",
          "type": "address"
        },
        {
          "internalType": "address",
          "name": "recipient",
          "type": "address"
        },
        {
          "internalType": "uint256[]",
          "name": "balances",
          "type": "uint256[]"
        },
        {
          "internalType": "uint256",
          "name": "lastChangeBlock",
          "type": "uint256"
        },
        {
          "internalType": "uint256",
          "name": "protocolSwapFeePercentage",
          "type": "uint256"
        },
        {
          "internalType": "bytes",
          "name": "userData",
          "type": "bytes"
        }
      ],
      "name": "queryExit",
      "outputs": [
        {
          "internalType": "uint256",
          "name": "bptIn",
          "type": "uint256"
        },
        {
          "internalType": "uint256[]",
          "name": "amountsOut",
          "type": "uint256[]"
        }
      ],
      "stateMutability": "nonpayable",
      "type": "function"
    },
    {
      "inputs": [
        {
          "internalType": "bytes32",
          "name": "poolId",
          "type": "bytes32"
        },
        {
          "internalType": "address",
          "name": "sender",
          "type": "address"
        },
        {
          "internalType": "address",
          "name": "recipient",
          "type": "address"
        },
        {
          "internalType": "uint256[]",
          "name": "balances",
          "type": "uint256[]"
        },
        {
          "internalType": "uint256",
          "name": "lastChangeBlock",
          "type": "uint256"
        },
        {
          "internalType": "uint256",
          "name": "protocolSwapFeePercentage",
          "type": "uint256"
        },
        {
          "internalType": "bytes",
          "name": "userData",
          "type": "bytes"
        }
      ],
      "name": "queryJoin",
      "outputs": [
        {
          "internalType": "uint256",
          "name": "bptOut",
          "type": "uint256"
        },
        {
          "internalType": "uint256[]",
          "name": "amountsIn",
          "type": "uint256[]"
        }
      ],
      "stateMutability": "nonpayable",
      "type": "function"
    },
    {
      "inputs": [
        {
          "internalType": "uint256",
          "name": "swapFeePercentage",
          "type": "uint256"
        }
      ],
      "name": "setSwapFeePercentage",
      "outputs": [],
      "stateMutability": "nonpayable",
      "type": "function"
    },
    {
      "inputs": [],
      "name": "symbol",
      "outputs": [
        {
          "internalType": "string",
          "name": "",
          "type": "string"
        }
      ],
      "stateMutability": "view",
      "type": "function"
    },
    {
      "inputs": [],
      "name": "totalSupply",
      "outputs": [
        {
          "internalType": "uint256",
          "name": "",
          "type": "uint256"
        }
      ],
      "stateMutability": "view",
      "type": "function"
    },
    {
      "inputs": [
        {
          "internalType": "address",
          "name": "recipient",
          "type": "address"
        },
        {
          "internalType": "uint256",
          "name": "amount",
          "type": "uint256"
        }
      ],
      "name": "transfer",
      "outputs": [
        {
          "internalType": "bool",
          "name": "",
          "type": "bool"
        }
      ],
      "stateMutability": "nonpayable",
      "type": "function"
    },
    {
      "inputs": [
        {
          "internalType": "address",
          "name": "sender",
          "type": "address"
        },
        {
          "internalType": "address",
          "name": "recipient",
          "type": "address"
        },
        {
          "internalType": "uint256",
          "name": "amount",
          "type": "uint256"
        }
      ],
      "name": "transferFrom",
      "outputs": [
        {
          "internalType": "bool",
          "name": "",
          "type": "bool"
        }
      ],
      "stateMutability": "nonpayable",
      "type": "function"
    },
    {
      "inputs": [],
      "name": "unpause",
      "outputs": [],
      "stateMutability": "nonpayable",
      "type": "function"
    },
    {
      "inputs": [],
      "name": "updateProtocolFeePercentageCache",
      "outputs": [],
      "stateMutability": "nonpayable",
      "type": "function"
    }
  ],
  "bytecode": "0x6106606040523480156200001257600080fd5b5060405162007a3738038062007a37833981016040819052620000359162001598565b856040015151866080015185604051806060016040528060008152602001600281526020016003815250888a600001518b602001518c604001518d60a001518e60c001518c8c8c600089875160021480156200008f575081155b6200009c5760016200009f565b60025b8a8a8a8a8a8a8a8a8983838a8a8e86336001600160a01b031660001b8480604051806040016040528060018152602001603160f81b81525087878160039080519060200190620000f192919062001262565b5080516200010790600490602084019062001262565b50506005805460ff19166012179055508151602092830120608052805191012060a052507f8b73c3c69bb8fe3d512ecc4cf759cc79239f7b179b0ffacaa9a75d522b39400f60c05260e0526001600160601b0319606091821b81166101005291901b166101205250620001869050630163f50083111561019462000ac3565b6200019a6276a70082111561019562000ac3565b4291909101610140819052016101605260601b6001600160601b031916610180528551620001ce906002111560c862000ac3565b620001e8620001dc62000ad8565b8751111560c962000ac3565b620001f38462000add565b60006200020e8b8b898962000b7160201b620014241760201c565b9050806101a081815250508a6001600160a01b031663d2946c2b6040518163ffffffff1660e01b815260040160206040518083038186803b1580156200025357600080fd5b505afa15801562000268573d6000803e3d6000fd5b505050506040513d601f19601f820116820180604052508101906200028e919062001579565b6001600160a01b03166101c0816001600160a01b031660601b81525050505050505050505050505050505050505050505050816001600160a01b03166101e0816001600160a01b031660601b81525050600062000303826040015160088060000101600862000ba060201b620014441760201c565b6200032483602001516008600001600862000ba060201b620014441760201c565b6200034284600001516000600862000ba060201b620014441760201c565b1717610200819052905062000358838262000bb5565b506200036d915050600883111560c962000ac3565b6200038582825162000e3b60201b620014571760201c565b620003908162000e4a565b151560f81b6103205280518190600090620003a757fe5b60200260200101516001600160a01b0316610220816001600160a01b031660601b8152505080600181518110620003da57fe5b60200260200101516001600160a01b0316610240816001600160a01b031660601b81525050600282116200041057600062000427565b806002815181106200041e57fe5b60200260200101515b60601b6001600160601b03191661026052600382116200044957600062000460565b806003815181106200045757fe5b60200260200101515b60601b6001600160601b03191661028052600482116200048257600062000499565b806004815181106200049057fe5b60200260200101515b60601b6001600160601b0319166102a05260058211620004bb576000620004d2565b80600581518110620004c957fe5b60200260200101515b60601b6001600160601b0319166102c05260068211620004f45760006200050b565b806006815181106200050257fe5b60200260200101515b60601b6001600160601b0319166102e052600782116200052d57600062000544565b806007815181106200053b57fe5b60200260200101515b6001600160a01b0316610300816001600160a01b031660601b81525050505060008660400151519050620005898188606001515162000e3b60201b620014571760201c565b6103408190526000805b828160ff1610156200060357600089606001518260ff1681518110620005b557fe5b60200260200101519050620005dd662386f26fc1000082101561012e62000ac360201b60201c565b620005f7818462000ea660201b620014681790919060201c565b92505060010162000593565b506200061c670de0b6b3a7640000821461013462000ac3565b87604001516000815181106200062e57fe5b60200260200101516001600160a01b0316610360816001600160a01b031660601b8152505087604001516001815181106200066557fe5b60200260200101516001600160a01b0316610380816001600160a01b031660601b81525050600282116200069b576000620006b6565b8760400151600281518110620006ad57fe5b60200260200101515b60601b6001600160601b0319166103a05260038211620006d8576000620006f3565b8760400151600381518110620006ea57fe5b60200260200101515b60601b6001600160601b0319166103c052600482116200071557600062000730565b87604001516004815181106200072757fe5b60200260200101515b60601b6001600160601b0319166103e05260058211620007525760006200076d565b87604001516005815181106200076457fe5b60200260200101515b60601b6001600160601b03191661040052600682116200078f576000620007aa565b8760400151600681518110620007a157fe5b60200260200101515b60601b6001600160601b0319166104205260078211620007cc576000620007e7565b8760400151600781518110620007de57fe5b60200260200101515b6001600160a01b0316610440816001600160a01b031660601b815250506200082e88604001516000815181106200081a57fe5b602002602001015162000ec360201b60201c565b61046052604088015180516200084b919060019081106200081a57fe5b61048052600282116200086057600062000876565b6200087688604001516002815181106200081a57fe5b6104a052600382116200088b576000620008a1565b620008a188604001516003815181106200081a57fe5b6104c05260048211620008b6576000620008cc565b620008cc88604001516004815181106200081a57fe5b6104e05260058211620008e1576000620008f7565b620008f788604001516005815181106200081a57fe5b61050052600682116200090c57600062000922565b6200092288604001516006815181106200081a57fe5b6105205260078211620009375760006200094d565b6200094d88604001516007815181106200081a57fe5b61054052606088015180516000906200096257fe5b6020026020010151610560818152505087606001516001815181106200098457fe5b6020026020010151610580818152505060028211620009a5576000620009c0565b8760600151600281518110620009b757fe5b60200260200101515b6105a05260038211620009d5576000620009f0565b8760600151600381518110620009e757fe5b60200260200101515b6105c0526004821162000a0557600062000a20565b876060015160048151811062000a1757fe5b60200260200101515b6105e0526005821162000a3557600062000a50565b876060015160058151811062000a4757fe5b60200260200101515b610600526006821162000a6557600062000a80565b876060015160068151811062000a7757fe5b60200260200101515b610620526007821162000a9557600062000ab0565b876060015160078151811062000aa757fe5b60200260200101515b6106405250620018599650505050505050565b8162000ad45762000ad48162000f92565b5050565b600890565b62000af662000aeb62000fa7565b82101560cb62000ac3565b62000b0f62000b0462000fb0565b82111560ca62000ac3565b62000b318160c0603f60085462000fbc60201b6200147a17909392919060201c565b6008556040517fa9ba3ffe0b6c366b81232caab38605a0699ad5398d6cce76f91ee809e322dafc9062000b6690839062001744565b60405180910390a150565b600062000b898362000fe160201b6200149d1760201c565b62000b978585858562000fed565b95945050505050565b600062000baf848484620010e7565b50501b90565b6000826001600160a01b0316631a7c326362000be460006008866200114760201b620014a7179092919060201c565b6040518263ffffffff1660e01b815260040162000c02919062001744565b60206040518083038186803b15801562000c1b57600080fd5b505afa15801562000c30573d6000803e3d6000fd5b505050506040513d601f19601f8201168201806040525081019062000c56919062001560565b905060006001600160a01b038416631a7c326362000c838560088062001147602090811b620014a717901c565b6040518263ffffffff1660e01b815260040162000ca1919062001744565b60206040518083038186803b15801562000cba57600080fd5b505afa15801562000ccf573d6000803e3d6000fd5b505050506040513d601f19601f8201168201806040525081019062000cf5919062001560565b905060006001600160a01b038516631a7c326362000d23866010600862001147602090811b620014a717901c565b6040518263ffffffff1660e01b815260040162000d41919062001744565b60206040518083038186803b15801562000d5a57600080fd5b505afa15801562000d6f573d6000803e3d6000fd5b505050506040513d601f19601f8201168201806040525081019062000d95919062001560565b9050600062000db88260408060000101604062000ba060201b620014441760201c565b62000dd5846040600001604062000ba060201b620014441760201c565b62000def866000604062000ba060201b620014441760201c565b17179050806009819055507fc3f0acc358200d8e08ac6ce20bc2f9f27893a344f813bf682b7859b3e521502e8160405162000e2b919062001744565b60405180910390a1505050505050565b62000ad4828214606762000ac3565b6000805b825181101562000e9b5760006001600160a01b031683828151811062000e7057fe5b60200260200101516001600160a01b03161462000e9257600091505062000ea1565b60010162000e4e565b50600190505b919050565b600082820162000eba848210158362000ac3565b90505b92915050565b60006001600160a01b03821630141562000ee75750670de0b6b3a764000062000ea1565b6000826001600160a01b031663313ce5676040518163ffffffff1660e01b815260040160206040518083038186803b15801562000f2357600080fd5b505afa15801562000f38573d6000803e3d6000fd5b505050506040513d601f19601f8201168201806040525081019062000f5e919062001721565b60ff169050600062000f7d6012836200115660201b620014b61760201c565b600a0a670de0b6b3a764000002949350505050565b62000fa4816210905360ea1b6200116e565b50565b64e8d4a5100090565b6703782dace9d9000090565b600062000fcb848484620010e7565b506001901b60001901811b1992909216911b1790565b8062000ad481620011cf565b600080856001600160a01b03166309b2760f866040518263ffffffff1660e01b81526004016200101e9190620017db565b602060405180830381600087803b1580156200103957600080fd5b505af11580156200104e573d6000803e3d6000fd5b505050506040513d601f19601f8201168201806040525081019062001074919062001560565b604051633354e3e960e11b81529091506001600160a01b038716906366a9c7d290620010a9908490889088906004016200174d565b600060405180830381600087803b158015620010c457600080fd5b505af1158015620010d9573d6000803e3d6000fd5b509298975050505050505050565b620010f86101008310606462000ac3565b62001131600182101580156200112957506200112560ff84610100036200125660201b620014cc1760201c565b8211155b606462000ac3565b6200114283821c156101b462000ac3565b505050565b6001901b6000190191901c1690565b60006200116883831115600162000ac3565b50900390565b62461bcd60e51b600090815260206004526007602452600a808404818106603090810160081b958390069590950190829004918206850160101b01602363ffffff0060e086901c160160181b0190930160c81b60445260e882901c90606490fd5b600281511015620011e05762000fa4565b600081600081518110620011f057fe5b602002602001015190506000600190505b8251811015620011425760008382815181106200121a57fe5b602002602001015190506200124b816001600160a01b0316846001600160a01b031610606562000ac360201b60201c565b915060010162001201565b80820390821102900390565b828054600181600116156101000203166002900490600052602060002090601f016020900481019282601f10620012a557805160ff1916838001178555620012d5565b82800160010185558215620012d5579182015b82811115620012d5578251825591602001919060010190620012b8565b50620012e3929150620012e7565b5090565b5b80821115620012e35760008155600101620012e8565b805162000ebd8162001843565b600082601f8301126200131c578081fd5b8151620013336200132d8262001817565b620017f0565b8181529150602080830190848101818402860182018710156200135557600080fd5b60005b84811015620013815781516200136e8162001843565b8452928201929082019060010162001358565b505050505092915050565b600082601f8301126200139d578081fd5b8151620013ae6200132d8262001817565b818152915060208083019084810181840286018201871015620013d057600080fd5b60005b8481101562001381578151620013e98162001843565b84529282019290820190600101620013d3565b600082601f8301126200140d578081fd5b81516200141e6200132d8262001817565b8181529150602080830190848101818402860182018710156200144057600080fd5b60005b8481101562001381578151620014598162001843565b8452928201929082019060010162001443565b600082601f8301126200147d578081fd5b81516200148e6200132d8262001817565b818152915060208083019084810181840286018201871015620014b057600080fd5b60005b848110156200138157815184529282019290820190600101620014b3565b600082601f830112620014e2578081fd5b81516001600160401b03811115620014f8578182fd5b60206200150e601f8301601f19168201620017f0565b925081835284818386010111156200152557600080fd5b60005b828110156200154557848101820151848201830152810162001528565b82811115620015575760008284860101525b50505092915050565b60006020828403121562001572578081fd5b5051919050565b6000602082840312156200158b578081fd5b815162000eba8162001843565b60008060008060008060c08789031215620015b1578182fd5b86516001600160401b0380821115620015c8578384fd5b9088019060e0828b031215620015dc578384fd5b620015e860e0620017f0565b825182811115620015f7578586fd5b620016058c828601620014d1565b8252506020830151828111156200161a578586fd5b620016288c828601620014d1565b60208301525060408301518281111562001640578586fd5b6200164e8c8286016200138c565b60408301525060608301518281111562001666578586fd5b620016748c8286016200146c565b6060830152506080830151828111156200168c578586fd5b6200169a8c828601620013fc565b60808301525060a083015182811115620016b2578586fd5b620016c08c8286016200130b565b60a08301525060c083015160c0820152809850505050620016e58860208901620012fe565b9450620016f68860408901620012fe565b93506060870151925060808701519150620017158860a08901620012fe565b90509295509295509295565b60006020828403121562001733578081fd5b815160ff8116811462000eba578182fd5b90815260200190565b60006060820185835260206060818501528186518084526080860191508288019350845b81811015620017995762001786855162001837565b8352938301939183019160010162001771565b505084810360408601528551808252908201925081860190845b81811015620010d957620017c8835162001837565b85529383019391830191600101620017b3565b6020810160038310620017ea57fe5b91905290565b6040518181016001600160401b03811182821017156200180f57600080fd5b604052919050565b60006001600160401b038211156200182d578081fd5b5060209081020190565b6001600160a01b031690565b6001600160a01b038116811462000fa457600080fd5b60805160a05160c05160e0516101005160601c6101205160601c61014051610160516101805160601c6101a0516101c05160601c6101e05160601c610200516102205160601c6102405160601c6102605160601c6102805160601c6102a05160601c6102c05160601c6102e05160601c6103005160601c6103205160f81c610340516103605160601c6103805160601c6103a05160601c6103c05160601c6103e05160601c6104005160601c6104205160601c6104405160601c61046051610480516104a0516104c0516104e05161050051610520516105405161056051610580516105a0516105c0516105e051610600516106205161064051615f4062001af76000398061221f52806135c55250806121dc5280613564525080612199528061350352508061215652806134a252508061211352806134415250806120d052806133e052508061208d528061337f525080612053528061331e525080612bf5525080612bd1525080612bad525080612b89525080612b65525080612b41525080612b1d525080612af9525080612519528061358a5250806124d7528061352952508061249552806134c8525080612453528061346752508061241152806134065250806123cf52806133a552508061238d528061334452508061234452806132e35250806119ac52508061386a5250806109ca5280613acb5250806109735280613a7f52508061091c5280613a335250806108c552806139e752508061086e528061399b525080610809528061393a5250806107b252806138e952508061076452806138ab5250806106aa5280610b7b525080610689525080611203525080610aca525050806117f15250806117cd525080610ee5525080610ec1525080610e0f5250806128355250806128775250806128565250615f406000f3fe608060405234801561001057600080fd5b50600436106102ff5760003560e01c80637ecebe001161019c578063a9059cbb116100ee578063d2946c2b11610097578063dd62ed3e11610071578063dd62ed3e146105ab578063ed24911d146105be578063f89f27ed146105c6576102ff565b8063d2946c2b1461057d578063d505accf14610585578063d5c096c414610598576102ff565b8063b35056b8116100c8578063b35056b814610565578063b7b814fc1461056d578063c0ff1a1514610575576102ff565b8063a9059cbb14610542578063aaabadc514610555578063b10962781461055d576102ff565b8063893d20e81161015057806395d89b411161012a57806395d89b41146105145780639d2c110c1461051c578063a457c2d71461052f576102ff565b8063893d20e8146104e45780638d928af8146104f957806390193b7c14610501576102ff565b8063851c1bb311610181578063851c1bb3146104b6578063876f303b146104c957806387ec6817146104d1576102ff565b80637ecebe001461049b5780638456cb59146104ae576102ff565b806338e9922e1161025557806354a844ba1161020957806370464016116101e3578063704640161461045457806370a082311461046757806374f3b0091461047a576102ff565b806354a844ba1461042357806355c676281461042b5780636028bfd414610433576102ff565b8063395093511161023a57806339509351146103f55780633f4ba83a146104085780634df77ce014610410576102ff565b806338e9922e146103da57806338fff2d0146103ed576102ff565b80631dd746ea116102b757806323ef89ed1161029157806323ef89ed146103b5578063313ce567146103bd5780633644e515146103d2576102ff565b80631dd746ea14610378578063238a2d591461038d57806323b872dd146103a2576102ff565b80630da0669c116102e85780630da0669c1461034257806318160ddd1461034c5780631c0de05114610361576102ff565b806306fdde0314610304578063095ea7b314610322575b600080fd5b61030c6105ce565b6040516103199190615e0b565b60405180910390f35b6103356103303660046155f9565b610665565b6040516103199190615ca8565b61034a61067c565b005b6103546106d0565b6040516103199190615ccb565b6103696106d6565b60405161031993929190615cb3565b6103806106ff565b6040516103199190615c70565b61039561070e565b6040516103199190615c23565b6103356103b0366004615549565b610a1d565b610354610a93565b6103c5610a99565b6040516103199190615e85565b610354610aa2565b61034a6103e8366004615afe565b610aac565b610354610ac8565b6103356104033660046155f9565b610aec565b61034a610b27565b61035461041e366004615afe565b610b39565b61034a610bab565b610354610bff565b610446610441366004615728565b610c12565b604051610319929190615e5e565b610354610462366004615afe565b610c49565b6103546104753660046154f5565b610cab565b61048d610488366004615728565b610cc6565b604051610319929190615c83565b6103546104a93660046154f5565b610dee565b61034a610df9565b6103546104c4366004615825565b610e0b565b610354610e5d565b6104466104df366004615728565b610e99565b6104ec610ebf565b6040516103199190615c0f565b6104ec610ee3565b61035461050f3660046154f5565b610f07565b61030c610f22565b61035461052a366004615a02565b610f83565b61033561053d3660046155f9565b61107c565b6103356105503660046155f9565b6110ba565b6104ec6110c7565b6103546110d1565b6103356110e9565b61034a6110fa565b610354611144565b6104ec611201565b61034a610593366004615589565b611225565b61048d6105a6366004615728565b6112b0565b6103546105b9366004615511565b6113d3565b610354611410565b61038061141a565b60038054604080516020601f600260001961010060018816150201909516949094049384018190048102820181019092528281526060939092909183018282801561065a5780601f1061062f5761010080835404028352916020019161065a565b820191906000526020600020905b81548152906001019060200180831161063d57829003601f168201915b505050505090505b90565b60006106723384846114d8565b5060015b92915050565b610684611540565b6106ce7f00000000000000000000000000000000000000000000000000000000000000007f000000000000000000000000000000000000000000000000000000000000000061159a565b565b60025490565b60008060006106e36117ae565b1592506106ee6117cb565b91506106f86117ef565b9050909192565b6060610709611813565b905090565b6060600061071a6119aa565b905060608167ffffffffffffffff8111801561073557600080fd5b5060405190808252806020026020018201604052801561075f578160200160208202803683370190505b5090507f00000000000000000000000000000000000000000000000000000000000000008160008151811061079057fe5b60200260200101906001600160a01b031690816001600160a01b0316815250507f0000000000000000000000000000000000000000000000000000000000000000816001815181106107de57fe5b60200260200101906001600160a01b031690816001600160a01b031681525050600282111561085a577f00000000000000000000000000000000000000000000000000000000000000008160028151811061083557fe5b60200260200101906001600160a01b031690816001600160a01b031681525050610863565b91506106629050565b600382111561085a577f00000000000000000000000000000000000000000000000000000000000000008160038151811061089a57fe5b60200260200101906001600160a01b031690816001600160a01b031681525050600482111561085a577f0000000000000000000000000000000000000000000000000000000000000000816004815181106108f157fe5b60200260200101906001600160a01b031690816001600160a01b031681525050600582111561085a577f00000000000000000000000000000000000000000000000000000000000000008160058151811061094857fe5b60200260200101906001600160a01b031690816001600160a01b031681525050600682111561085a577f00000000000000000000000000000000000000000000000000000000000000008160068151811061099f57fe5b60200260200101906001600160a01b031690816001600160a01b031681525050600782111561085a577f0000000000000000000000000000000000000000000000000000000000000000816007815181106109f657fe5b60200260200101906001600160a01b031690816001600160a01b0316815250505b91505090565b600080610a2a85336113d3565b9050610a4e336001600160a01b0387161480610a465750838210155b61019e6119ce565b610a598585856119dc565b336001600160a01b03861614801590610a7457506000198114155b15610a8657610a8685338584036114d8565b60019150505b9392505050565b600a5490565b60055460ff1690565b6000610709611410565b610ab4611abc565b610abc611b02565b610ac581611b15565b50565b7f000000000000000000000000000000000000000000000000000000000000000090565b3360008181526001602090815260408083206001600160a01b03871684529091528120549091610672918590610b229086611468565b6114d8565b610b2f611abc565b6106ce6000611b8e565b60008082610b4957506000610b76565b6002831415610b5a57506008610b76565b6003831415610b6b57506010610b76565b610b766101bb611c1f565b610ba27f00000000000000000000000000000000000000000000000000000000000000008260086114a7565b9150505b919050565b610bb3611abc565b610bbb611c49565b610bc56001611c5d565b7feff3d4d215b42bf0960be9c6d5e05c22cba4df6627a3a523e2acee733b5854c86001604051610bf59190615ca8565b60405180910390a1565b6008546000906107099060c0603f6114a7565b60006060610c288651610c236119aa565b611457565b610c3d89898989898989611cb4611d16611d85565b97509795505050505050565b6000610c536110e9565b15610c6057506000610ba6565b600082610c6f57506000610c9c565b6002831415610c8057506040610c9c565b6003831415610c9157506080610c9c565b610c9c6101bb611c1f565b600954610ba2908260406114a7565b6001600160a01b031660009081526020819052604090205490565b60608088610cf0610cd5610ee3565b6001600160a01b0316336001600160a01b03161460cd6119ce565b610d05610cfb610ac8565b82146101f46119ce565b60606000610d1286611f1c565b15610d3a57610d1f611f4b565b610d3189610d2b6106d0565b88611f5e565b92509050610d8c565b610d42611f82565b6060610d4c611813565b9050610d588a82611f8a565b610d7c8d8d8d8d8d610d686110e9565b610d72578d610d75565b60005b878e611cb4565b93509150610d8a8382611d16565b505b610d968b82611ff3565b81895167ffffffffffffffff81118015610daf57600080fd5b50604051908082528060200260200182016040528015610dd9578160200160208202803683370190505b509450945050505b5097509795505050505050565b600061067682610f07565b610e01611abc565b6106ce6001611b8e565b60007f000000000000000000000000000000000000000000000000000000000000000082604051602001610e40929190615b99565b604051602081830303815290604052805190602001209050919050565b600080610e686106d0565b90506000610e85610e77611144565b610e7f611ffd565b8461224b565b509050610e928282611468565b9250505090565b60006060610eaa8651610c236119aa565b610c3d8989898989898961228e6122d7611d85565b7f000000000000000000000000000000000000000000000000000000000000000090565b7f000000000000000000000000000000000000000000000000000000000000000090565b6001600160a01b031660009081526006602052604090205490565b60048054604080516020601f600260001961010060018816150201909516949094049384018190048102820181019092528281526060939092909183018282801561065a5780601f1061062f5761010080835404028352916020019161065a565b60008360800151610f95610cd5610ee3565b610fa0610cfb610ac8565b610fa8611f82565b6000610fb78660200151612340565b90506000610fc88760400151612340565b9050610fd48683612564565b9550610fe08582612564565b9450600087516001811115610ff157fe5b141561103d576110048760600151612570565b606088018190526110159083612564565b60608801526000611027888888612591565b905061103381836125c4565b9450505050611074565b61104b876060015182612564565b6060880152600061105d8888886125d0565b905061106981846125fb565b905061103381612607565b509392505050565b60008061108933856113d3565b90508083106110a35761109e338560006114d8565b6110b0565b6110b033858584036114d8565b5060019392505050565b60006106723384846119dc565b6000610709612623565b6000610709600060c06110e261269d565b91906114a7565b6008546000906107099060ff6126a3565b611102611abc565b61110a611f4b565b6111146000611c5d565b7feff3d4d215b42bf0960be9c6d5e05c22cba4df6627a3a523e2acee733b5854c86000604051610bf59190615ca8565b60006060611150610ee3565b6001600160a01b031663f94d4668611166610ac8565b6040518263ffffffff1660e01b81526004016111829190615ccb565b60006040518083038186803b15801561119a57600080fd5b505afa1580156111ae573d6000803e3d6000fd5b505050506040513d6000823e601f3d908101601f191682016040526111d69190810190615624565b509150506111eb816111e6611813565b611f8a565b60606111f5611ffd565b9050610e9281836126aa565b7f000000000000000000000000000000000000000000000000000000000000000090565b60007f6e71edae12b1b97f4d1f60370fef10105fa2faae0126114a169c64845d6126c98888886112548c610f07565b8960405160200161126a96959493929190615cf3565b60405160208183030381529060405280519060200120905061129b888261129287878761271c565b886101f861275b565b6112a68888886114d8565b5050505050505050565b606080886112bf610cd5610ee3565b6112ca610cfb610ac8565b6112d2611f82565b60606112dc611813565b90506112e66106d0565b61139357600060606112fb8d8d8d868b6127b2565b9150915061131461130a6127f5565b83101560cc6119ce565b61132660006113216127f5565b6127fc565b6113398b6113326127f5565b84036127fc565b61134381846122d7565b808a5167ffffffffffffffff8111801561135c57600080fd5b50604051908082528060200260200182016040528015611386578160200160208202803683370190505b5095509550505050610de1565b61139d8882611f8a565b600060606113c58d8d8d8d8d6113b16110e9565b6113bb578d6113be565b60005b898e61228e565b915091506113398b836127fc565b60006113dd610ee3565b6001600160a01b0316826001600160a01b031614156113ff5750600019610676565b6114098383612806565b9050610676565b6000610709612831565b6060610709611ffd565b600061142f8361149d565b61143b858585856128ce565b95945050505050565b60006114518484846129d7565b50501b90565b61146481831460676119ce565b5050565b6000828201610a8c84821015836119ce565b60006114878484846129d7565b506001901b60001901811b1992909216911b1790565b8061146481612a1e565b6001901b6000190191901c1690565b60006114c68383111560016119ce565b50900390565b80820390821102900390565b6001600160a01b0380841660008181526001602090815260408083209487168084529490915290819020849055517f8c5be1e5ebec7d5bd14f71427d1e84f3dd0314c0f7b2291e5b200ac8c7c3b92590611533908590615ccb565b60405180910390a3505050565b611548611b02565b6000611552611144565b905060008061157083611563611ffd565b61156b6106d0565b61224b565b9150915061157d82612a97565b61158683612aae565b80156115955761159581612ab7565b505050565b60006001600160a01b038316631a7c32636115b7848460086114a7565b6040518263ffffffff1660e01b81526004016115d39190615ccb565b60206040518083038186803b1580156115eb57600080fd5b505afa1580156115ff573d6000803e3d6000fd5b505050506040513d601f19601f820116820180604052508101906116239190615710565b905060006001600160a01b038416631a7c3263611642856008806114a7565b6040518263ffffffff1660e01b815260040161165e9190615ccb565b60206040518083038186803b15801561167657600080fd5b505afa15801561168a573d6000803e3d6000fd5b505050506040513d601f19601f820116820180604052508101906116ae9190615710565b905060006001600160a01b038516631a7c32636116ce86601060086114a7565b6040518263ffffffff1660e01b81526004016116ea9190615ccb565b60206040518083038186803b15801561170257600080fd5b505afa158015611716573d6000803e3d6000fd5b505050506040513d601f19601f8201168201806040525081019061173a9190615710565b9050600061174b8260806040611444565b61175784604080611444565b6117648660006040611444565b17179050806009819055507fc3f0acc358200d8e08ac6ce20bc2f9f27893a344f813bf682b7859b3e521502e8160405161179e9190615ccb565b60405180910390a1505050505050565b60006117b86117ef565b42118061070957505060075460ff161590565b7f000000000000000000000000000000000000000000000000000000000000000090565b7f000000000000000000000000000000000000000000000000000000000000000090565b6060600061181f6119aa565b905060608167ffffffffffffffff8111801561183a57600080fd5b50604051908082528060200260200182016040528015611864578160200160208202803683370190505b50905061186f612af7565b8160008151811061187c57fe5b602002602001018181525050611890612b1b565b8160018151811061189d57fe5b602002602001018181525050600282111561085a576118ba612b3f565b816002815181106118c757fe5b602002602001018181525050600382111561085a576118e4612b63565b816003815181106118f157fe5b602002602001018181525050600482111561085a5761190e612b87565b8160048151811061191b57fe5b602002602001018181525050600582111561085a57611938612bab565b8160058151811061194557fe5b602002602001018181525050600682111561085a57611962612bcf565b8160068151811061196f57fe5b602002602001018181525050600782111561085a5761198c612bf3565b8160078151811061199957fe5b602002602001018181525050610a17565b7f000000000000000000000000000000000000000000000000000000000000000090565b816114645761146481611c1f565b6119f36001600160a01b03841615156101986119ce565b611a0a6001600160a01b03831615156101996119ce565b611a15838383611595565b6001600160a01b038316600090815260208190526040902054611a3b90826101a0612c17565b6001600160a01b038085166000908152602081905260408082209390935590841681522054611a6a9082611468565b6001600160a01b0380841660008181526020819052604090819020939093559151908516907fddf252ad1be2c89b69c2b068fc378daa952ba7f163c4a11628f55a4df523b3ef90611533908590615ccb565b6000611aeb6000357fffffffff0000000000000000000000000000000000000000000000000000000016610e0b565b9050610ac5611afa8233612c2d565b6101916119ce565b6106ce611b0d6117ae565b6101926119ce565b611b2a611b20612d16565b82101560cb6119ce565b611b3f611b35612d1f565b82111560ca6119ce565b600854611b50908260c0603f61147a565b6008556040517fa9ba3ffe0b6c366b81232caab38605a0699ad5398d6cce76f91ee809e322dafc90611b83908390615ccb565b60405180910390a150565b8015611bae57611ba9611b9f6117cb565b42106101936119ce565b611bc3565b611bc3611bb96117ef565b42106101a96119ce565b600780547fffffffffffffffffffffffffffffffffffffffffffffffffffffffffffffff00168215151790556040517f9e3a5e37224532dea67b89face185703738a228a6e8a23dee546960180d3be6490611b83908390615ca8565b610ac5817f42414c0000000000000000000000000000000000000000000000000000000000612d2b565b6106ce611c546110e9565b156101b56119ce565b600854611c6c908260ff612da6565b6008556040517feff3d4d215b42bf0960be9c6d5e05c22cba4df6627a3a523e2acee733b5854c890611c9f908390615ca8565b60405180910390a180610ac557610ac5612db5565b6000606080611cc1611ffd565b9050600080611cd08a84612dfd565b9150915060006060611ce68e8d878c888d612e5d565b9092509050611d02838d838888611cfd81896114b6565b612ef0565b909e909d509b505050505050505050505050565b81518151611d25908290611457565b60005b81811015611d7f57611d60848281518110611d3f57fe5b6020026020010151848381518110611d5357fe5b6020026020010151612f14565b848281518110611d6c57fe5b6020908102919091010152600101611d28565b50505050565b333014611e74576000306001600160a01b0316600036604051611da9929190615bc9565b6000604051808303816000865af19150503d8060008114611de6576040519150601f19603f3d011682016040523d82523d6000602084013e611deb565b606091505b505090508060008114611dfa57fe5b60046000803e6000517fffffffff00000000000000000000000000000000000000000000000000000000167f43adbafb000000000000000000000000000000000000000000000000000000008114611e56573d6000803e3d6000fd5b506020600460003e604060205260243d03602460403e601c3d016000f35b611e7c611f82565b6060611e86611813565b9050611e928782611f8a565b60006060611eaa8c8c8c8c8c8c898d8d63ffffffff16565b91509150611ebc81848663ffffffff16565b8051601f1982018390526343adbafb7fffffffffffffffffffffffffffffffffffffffffffffffffffffffffffffffc08301526020027fffffffffffffffffffffffffffffffffffffffffffffffffffffffffffffffdc82016044820181fd5b6000808251118015610676575060ff801682806020019051810190611f419190615b16565b60ff161492915050565b6106ce611f566110e9565b6101b66119ce565b60006060611f6b83612f67565b9150611f78858584612f7d565b9050935093915050565b6106ce611b02565b81518151611f99908290611457565b60005b81811015611d7f57611fd4848281518110611fb357fe5b6020026020010151848381518110611fc757fe5b602002602001015161302c565b848281518110611fe057fe5b6020908102919091010152600101611f9c565b611464828261305f565b606060006120096119aa565b905060608167ffffffffffffffff8111801561202457600080fd5b5060405190808252806020026020018201604052801561204e578160200160208202803683370190505b5090507f00000000000000000000000000000000000000000000000000000000000000008160008151811061207f57fe5b6020026020010181815250507f0000000000000000000000000000000000000000000000000000000000000000816001815181106120b957fe5b602002602001018181525050600282111561085a577f0000000000000000000000000000000000000000000000000000000000000000816002815181106120fc57fe5b602002602001018181525050600382111561085a577f00000000000000000000000000000000000000000000000000000000000000008160038151811061213f57fe5b602002602001018181525050600482111561085a577f00000000000000000000000000000000000000000000000000000000000000008160048151811061218257fe5b602002602001018181525050600582111561085a577f0000000000000000000000000000000000000000000000000000000000000000816005815181106121c557fe5b602002602001018181525050600682111561085a577f00000000000000000000000000000000000000000000000000000000000000008160068151811061220857fe5b602002602001018181525050600782111561085a577f00000000000000000000000000000000000000000000000000000000000000008160078151811061199957fe5b60008060006122638661225e6000610c49565b61312b565b905060008061227187613151565b91509150612281868385016131c1565b9890975095505050505050565b600060608061229b611ffd565b90506000806122aa8a84612dfd565b91509150600060606122c08e8d878c888d6131de565b9092509050611d02838d838888611cfd8189611468565b815181516122e6908290611457565b60005b81811015611d7f5761232184828151811061230057fe5b602002602001015184838151811061231457fe5b602002602001015161325a565b84828151811061232d57fe5b60209081029190910101526001016122e9565b60007f00000000000000000000000000000000000000000000000000000000000000006001600160a01b0316826001600160a01b0316141561238b57612384612af7565b9050610ba6565b7f00000000000000000000000000000000000000000000000000000000000000006001600160a01b0316826001600160a01b031614156123cd57612384612b1b565b7f00000000000000000000000000000000000000000000000000000000000000006001600160a01b0316826001600160a01b0316141561240f57612384612b3f565b7f00000000000000000000000000000000000000000000000000000000000000006001600160a01b0316826001600160a01b0316141561245157612384612b63565b7f00000000000000000000000000000000000000000000000000000000000000006001600160a01b0316826001600160a01b0316141561249357612384612b87565b7f00000000000000000000000000000000000000000000000000000000000000006001600160a01b0316826001600160a01b031614156124d557612384612bab565b7f00000000000000000000000000000000000000000000000000000000000000006001600160a01b0316826001600160a01b0316141561251757612384612bcf565b7f00000000000000000000000000000000000000000000000000000000000000006001600160a01b0316826001600160a01b0316141561255957612384612bf3565b610ba6610135611c1f565b6000610a8c838361302c565b60008061258561257e610bff565b84906132a7565b9050610ba283826114b6565b60006125bc836125a486602001516132df565b846125b288604001516132df565b88606001516135e9565b949350505050565b6000610a8c8383612f14565b60006125bc836125e386602001516132df565b846125f188604001516132df565b8860600151613664565b6000610a8c838361325a565b600061067661261c612617610bff565b6136da565b839061325a565b600061262d610ee3565b6001600160a01b031663aaabadc56040518163ffffffff1660e01b815260040160206040518083038186803b15801561266557600080fd5b505afa158015612679573d6000803e3d6000fd5b505050506040513d601f19601f820116820180604052508101906107099190615865565b60085490565b1c60011690565b670de0b6b3a764000060005b835181101561270c576127026126fb8583815181106126d157fe5b60200260200101518584815181106126e557fe5b60200260200101516136ec90919063ffffffff16565b839061302c565b91506001016126b6565b50610676600082116101376119ce565b60408051604180825260808201909252606091829190602082018180368337019050509050836020820152826040820152846060820153949350505050565b60006127668561379d565b905061277c6127768783876137b9565b836119ce565b61278b428410156101b86119ce565b5050506001600160a01b039092166000908152600660205260409020805460010190555050565b600060606127be613868565b6127da576127da6127d56127d0611ffd565b61388c565b612ab7565b6127e78787878787613aef565b915091509550959350505050565b620f424090565b6114648282613b7f565b6001600160a01b03918216600090815260016020908152604080832093909416825291909152205490565b60007f00000000000000000000000000000000000000000000000000000000000000007f00000000000000000000000000000000000000000000000000000000000000007f000000000000000000000000000000000000000000000000000000000000000061289e613c12565b306040516020016128b3959493929190615dad565b60405160208183030381529060405280519060200120905090565b600080856001600160a01b03166309b2760f866040518263ffffffff1660e01b81526004016128fd9190615df7565b602060405180830381600087803b15801561291757600080fd5b505af115801561292b573d6000803e3d6000fd5b505050506040513d601f19601f8201168201806040525081019061294f9190615710565b6040517f66a9c7d20000000000000000000000000000000000000000000000000000000081529091506001600160a01b038716906366a9c7d29061299b90849088908890600401615d27565b600060405180830381600087803b1580156129b557600080fd5b505af11580156129c9573d6000803e3d6000fd5b509298975050505050505050565b6129e6610100831060646119ce565b612a0f60018210158015612a085750612a0460ff84610100036114cc565b8211155b60646119ce565b61159583821c156101b46119ce565b600281511015612a2d57610ac5565b600081600081518110612a3c57fe5b602002602001015190506000600190505b8251811015611595576000838281518110612a6457fe5b60200260200101519050612a8d816001600160a01b0316846001600160a01b03161060656119ce565b9150600101612a4d565b8015610ac557610ac5612aa8611201565b826127fc565b610ac581613c16565b7f836ff8964123d8b264c228d02eae300e3c2112664d4622b62c883b1128f66df5600a5482604051612aea929190615e77565b60405180910390a1600a55565b7f000000000000000000000000000000000000000000000000000000000000000090565b7f000000000000000000000000000000000000000000000000000000000000000090565b7f000000000000000000000000000000000000000000000000000000000000000090565b7f000000000000000000000000000000000000000000000000000000000000000090565b7f000000000000000000000000000000000000000000000000000000000000000090565b7f000000000000000000000000000000000000000000000000000000000000000090565b7f000000000000000000000000000000000000000000000000000000000000000090565b7f000000000000000000000000000000000000000000000000000000000000000090565b6000612c2684841115836119ce565b5050900390565b600073ba1ba1ba1ba1ba1ba1ba1ba1ba1ba1ba1ba1ba1b612c4c610ebf565b6001600160a01b031614158015612c675750612c6783613c36565b15612c8f57612c74610ebf565b6001600160a01b0316336001600160a01b0316149050610676565b612c97612623565b6001600160a01b0316639be2a8848484306040518463ffffffff1660e01b8152600401612cc693929190615cd4565b60206040518083038186803b158015612cde57600080fd5b505afa158015612cf2573d6000803e3d6000fd5b505050506040513d601f19601f8201168201806040525081019061140991906156f0565b64e8d4a5100090565b6703782dace9d9000090565b7f08c379a000000000000000000000000000000000000000000000000000000000600090815260206004526007602452600a808404818106603090810160081b958390069590950190829004918206850160101b01602363ffffff0060e086901c160160181b0190930160c81b60445260e882901c90606490fd5b6001811b1992909216911b1790565b612dc5612dc0611144565b612aae565b612dcd613868565b6106ce576000612ddb610a93565b90506000612dea6127d0611ffd565b9050818111156114645761146481612ab7565b6000806000612e0a6106d0565b90506000612e1885876126aa565b9050600080612e2883888661224b565b90925090508015612e3c57612e3c81612ab7565b612e4582612a97565b612e4f8483611468565b989297509195505050505050565b600060606000612e6c84613c41565b90506000816002811115612e7c57fe5b1415612e9857612e8e88888787613c57565b9250925050612ee5565b6001816002811115612ea657fe5b1415612eb757612e8e888686613d26565b6002816002811115612ec557fe5b1415612ed857612e8e8888888888613d52565b612ee3610150611c1f565b505b965096945050505050565b6000612f00878787878787613db1565b9050612f0b81612a97565b50505050505050565b6000612f2382151560046119ce565b670de0b6b3a76400008302612f55841580612f4e5750670de0b6b3a7640000858381612f4b57fe5b04145b60056119ce565b828181612f5e57fe5b04949350505050565b600081806020019051810190610a8c9190615b32565b60606000612f8b8385612f14565b9050845167ffffffffffffffff81118015612fa557600080fd5b50604051908082528060200260200182016040528015612fcf578160200160208202803683370190505b50915060005b85518110156130235761300482878381518110612fee57fe5b602002602001015161302c90919063ffffffff16565b83828151811061301057fe5b6020908102919091010152600101612fd5565b50509392505050565b600082820261305084158061304957508385838161304657fe5b04145b60036119ce565b670de0b6b3a764000081612f5e565b6130766001600160a01b038316151561019b6119ce565b61308282600083611595565b6001600160a01b0382166000908152602081905260409020546130a890826101b2612c17565b6001600160a01b0383166000908152602081905260409020556130db6130d6826130d06106d0565b90613eaa565b613eb8565b60006001600160a01b0316826001600160a01b03167fddf252ad1be2c89b69c2b068fc378daa952ba7f163c4a11628f55a4df523b3ef8360405161311f9190615ccb565b60405180910390a35050565b6000610a8c61314261313b6110d1565b8590612f14565b670de0b6b3a764000084613ebd565b60008061315c613868565b1561316c575060009050806131bc565b600a54600061317a8561388c565b9050818111613191576000809350935050506131bc565b6131b661319e8284612f14565b670de0b6b3a76400006131b16002610c49565b613ebd565b93509150505b915091565b6000610a8c6131d08484613efb565b6131d9846136da565b613f15565b6000606060006131ed84613f35565b905060018160038111156131fd57fe5b141561321057612e8e8888888888613f4b565b600281600381111561321e57fe5b141561323057612e8e88888787613f9b565b600381600381111561323e57fe5b141561324f57612e8e888686613ff9565b612ee3610136611c1f565b600061326982151560046119ce565b670de0b6b3a76400008302613291841580612f4e5750670de0b6b3a7640000858381612f4b57fe5b6001836001830304018115150291505092915050565b60008282026132c184158061304957508385838161304657fe5b6001670de0b6b3a76400006001830304018115150291505092915050565b60007f00000000000000000000000000000000000000000000000000000000000000006001600160a01b0316826001600160a01b0316141561334257507f0000000000000000000000000000000000000000000000000000000000000000610ba6565b7f00000000000000000000000000000000000000000000000000000000000000006001600160a01b0316826001600160a01b031614156133a357507f0000000000000000000000000000000000000000000000000000000000000000610ba6565b7f00000000000000000000000000000000000000000000000000000000000000006001600160a01b0316826001600160a01b0316141561340457507f0000000000000000000000000000000000000000000000000000000000000000610ba6565b7f00000000000000000000000000000000000000000000000000000000000000006001600160a01b0316826001600160a01b0316141561346557507f0000000000000000000000000000000000000000000000000000000000000000610ba6565b7f00000000000000000000000000000000000000000000000000000000000000006001600160a01b0316826001600160a01b031614156134c657507f0000000000000000000000000000000000000000000000000000000000000000610ba6565b7f00000000000000000000000000000000000000000000000000000000000000006001600160a01b0316826001600160a01b0316141561352757507f0000000000000000000000000000000000000000000000000000000000000000610ba6565b7f00000000000000000000000000000000000000000000000000000000000000006001600160a01b0316826001600160a01b0316141561358857507f0000000000000000000000000000000000000000000000000000000000000000610ba6565b7f00000000000000000000000000000000000000000000000000000000000000006001600160a01b0316826001600160a01b0316141561255957507f0000000000000000000000000000000000000000000000000000000000000000610ba6565b600061360b61360087670429d069189e000061302c565b8311156101306119ce565b60006136178784611468565b90506000613625888361325a565b905060006136338887612f14565b905060006136418383614017565b905061365661364f826136da565b899061302c565b9a9950505050505050505050565b600061368661367b85670429d069189e000061302c565b8311156101316119ce565b600061369c61369586856114b6565b869061325a565b905060006136aa858861325a565b905060006136b88383614017565b905060006136ce82670de0b6b3a76400006114b6565b90506136568a826132a7565b670de0b6b3a764000081810391100290565b6000670de0b6b3a7640000821415613705575081610676565b671bc16d674ec8000082141561371f57611409838461302c565b673782dace9d90000082141561374f57600061373b848561302c565b9050613747818261302c565b915050610676565b600061375b848461409d565b9050600061377561376e836127106132a7565b6001611468565b90508082101561378a57600092505050610676565b61379482826114b6565b92505050610676565b60006137a7612831565b82604051602001610e40929190615bd9565b60006137cb82516041146101b96119ce565b60208281015160408085015160608601518251600080825295019283905292939092811a91600190613804908990859088908890615dd9565b6020604051602081039080840390855afa158015613826573d6000803e3d6000fd5b5050604051601f1901519150506001600160a01b0381161580159061385c5750876001600160a01b0316816001600160a01b0316145b98975050505050505050565b7f000000000000000000000000000000000000000000000000000000000000000090565b8051600090816139126138cf8583856138a157fe5b60200260200101517f00000000000000000000000000000000000000000000000000000000000000006141b3565b61390d866001815181106138df57fe5b60200260200101517f00000000000000000000000000000000000000000000000000000000000000006141b3565b61302c565b9050600282111561396c5761396561395e8560028151811061393057fe5b60200260200101517f00000000000000000000000000000000000000000000000000000000000000006141b3565b829061302c565b9050613975565b9150610ba69050565b600382111561396c576139bf61395e8560038151811061399157fe5b60200260200101517f00000000000000000000000000000000000000000000000000000000000000006141b3565b9050600482111561396c57613a0b61395e856004815181106139dd57fe5b60200260200101517f00000000000000000000000000000000000000000000000000000000000000006141b3565b9050600582111561396c57613a5761395e85600581518110613a2957fe5b60200260200101517f00000000000000000000000000000000000000000000000000000000000000006141b3565b9050600682111561396c57613aa361395e85600681518110613a7557fe5b60200260200101517f00000000000000000000000000000000000000000000000000000000000000006141b3565b90506007821115610ba2576125bc61395e85600781518110613ac157fe5b60200260200101517f00000000000000000000000000000000000000000000000000000000000000006141b3565b600060606000613afe84613f35565b9050613b196000826003811115613b1157fe5b1460ce6119ce565b6060613b2485614254565b9050613b3281518751611457565b613b3c8187611f8a565b6060613b46611ffd565b90506000613b5482846126aa565b90506000613b63828551613efb565b9050613b6e82612aae565b9b929a509198505050505050505050565b613b8b60008383611595565b613ba06130d682613b9a6106d0565b90611468565b6001600160a01b038216600090815260208190526040902054613bc39082611468565b6001600160a01b0383166000818152602081905260408082209390935591519091907fddf252ad1be2c89b69c2b068fc378daa952ba7f163c4a11628f55a4df523b3ef9061311f908590615ccb565b4690565b610ac5613c3182600060c0613c2961269d565b92919061147a565b61426a565b60006106768261427f565b6000818060200190518101906106769190615881565b60006060600080613c678561428a565b91509150613c798851821060646119ce565b6000613cb5898381518110613c8a57fe5b6020026020010151898481518110613c9e57fe5b6020026020010151858a613cb0610bff565b6142ac565b90506060895167ffffffffffffffff81118015613cd157600080fd5b50604051908082528060200260200182016040528015613cfb578160200160208202803683370190505b50905081818481518110613d0b57fe5b60209081029190910101529299929850919650505050505050565b600060606000613d3584614362565b90506060613d44878784612f7d565b919791965090945050505050565b60006060806000613d6285614378565b91509150613d7282518a51611457565b613d7c8288611f8a565b6000613d928a8a858a613d8d610bff565b614390565b9050613da28282111560cf6119ce565b99919850909650505050505050565b600082821015815b8751811015613e4b5781613dfc57613df7888281518110613dd657fe5b6020026020010151888381518110613dea57fe5b6020026020010151613eaa565b613e2c565b613e2c888281518110613e0b57fe5b6020026020010151888381518110613e1f57fe5b6020026020010151611468565b888281518110613e3857fe5b6020908102919091010152600101613db9565b506000613e5886896126aa565b90506000613e666000610c49565b9050613e7182612aae565b80613e825760009350505050613ea0565b6000613e99613e91848d612f14565b8888856144ce565b9450505050505b9695505050505050565b6000610a8c83836001612c17565b600255565b60008383101580613ecc575081155b15613ed957506000610a8c565b6000613ee58486612f14565b670de0b6b3a764000003905061143b818461302c565b6000828202610a8c84158061304957508385838161304657fe5b6000613f2482151560046119ce565b818381613f2d57fe5b049392505050565b6000818060200190518101906106769190615942565b60006060806000613f5b856144f1565b91509150613f6b89518351611457565b613f758288611f8a565b6000613f8b8a8a858a613f86610bff565b614509565b9050613da28282101560d06119ce565b60006060600080613fab85614654565b91509150613fbd8851821060646119ce565b6000613cb5898381518110613fce57fe5b6020026020010151898481518110613fe257fe5b6020026020010151858a613ff4610bff565b61466b565b60006060600061400884614701565b90506060613d44878784614717565b6000670de0b6b3a7640000821415614030575081610676565b671bc16d674ec8000082141561404a5761140983846132a7565b673782dace9d90000082141561407257600061406684856132a7565b905061374781826132a7565b600061407e848461409d565b9050600061409161376e836127106132a7565b90506137948282611468565b6000816140b35750670de0b6b3a7640000610676565b826140c057506000610676565b6140d060ff84901c1560066119ce565b826140f6770bce5086492111aea88f4bb1ca6bcf584181ea8059f76532841060076119ce565b826000670c7d713b49da0000831380156141175750670f43fc2c04ee000083125b1561414e576000614127846147a7565b9050670de0b6b3a764000080820784020583670de0b6b3a76400008305020191505061415c565b81614158846148de565b0290505b670de0b6b3a764000090056141aa7ffffffffffffffffffffffffffffffffffffffffffffffffdc702bd3a30fc000082128015906141a3575068070c1cc73b00c800008213155b60086119ce565b613ea081614c7e565b60006001600160a01b038216156142445761423f83836001600160a01b031663679aefce6040518163ffffffff1660e01b815260040160206040518083038186803b15801561420157600080fd5b505afa158015614215573d6000803e3d6000fd5b505050506040513d601f19601f820116820180604052508101906142399190615710565b906136ec565b610a8c565b50670de0b6b3a764000092915050565b606081806020019051810190610a8c919061595d565b6008546142799082600061514e565b60085550565b60006106768261517a565b600080828060200190518101906142a1919061590d565b909590945092505050565b6000806142c3846142bd81886114b6565b9061325a565b90506142dc6709b6e64a8ec600008210156101326119ce565b60006142fa6142f3670de0b6b3a764000089612f14565b8390614017565b9050600061431161430a836136da565b8a9061302c565b905060006143286143218a6136da565b83906132a7565b9050600061433683836114b6565b9050600061434661257e896136da565b90506143528282611468565b9c9b505050505050505050505050565b600081806020019051810190610a8c91906158e1565b60606000828060200190518101906142a1919061589c565b60006060845167ffffffffffffffff811180156143ac57600080fd5b506040519080825280602002602001820160405280156143d6578160200160208202803683370190505b5090506000805b885181101561449b576144368982815181106143f557fe5b60200260200101516142bd89848151811061440c57fe5b60200260200101518c858151811061442057fe5b60200260200101516114b690919063ffffffff16565b83828151811061444257fe5b60200260200101818152505061449161448a89838151811061446057fe5b602002602001015185848151811061447457fe5b60200260200101516132a790919063ffffffff16565b8390611468565b91506001016143dd565b5060006144ac89898986868a6151b6565b90506144c16144ba826136da565b87906132a7565b9998505050505050505050565b6000806144e5866144df8688612f14565b85613ebd565b9050613ea084826131c1565b60606000828060200190518101906142a191906159aa565b60006060845167ffffffffffffffff8111801561452557600080fd5b5060405190808252806020026020018201604052801561454f578160200160208202803683370190505b5090506000805b88518110156145fd576145b589828151811061456e57fe5b60200260200101516145af89848151811061458557fe5b60200260200101518c858151811061459957fe5b602002602001015161146890919063ffffffff16565b90612f14565b8382815181106145c157fe5b6020026020010181815250506145f361448a8983815181106145df57fe5b6020026020010151858481518110612fee57fe5b9150600101614556565b50600061460e89898986868a6152d4565b90506000670de0b6b3a76400008211614628576000613656565b613656877ffffffffffffffffffffffffffffffffffffffffffffffffff21f494c589c0000840161302c565b600080828060200190518101906142a191906159e4565b60008061467c846142bd8188611468565b90506146956729a2241af62c00008211156101336119ce565b60006146ac6142f3670de0b6b3a76400008961325a565b905060006146cc6146c583670de0b6b3a76400006114b6565b8a906132a7565b905060006146dc6143218a6136da565b905060006146ea83836114b6565b905060006143466146fa896136da565b849061325a565b600081806020019051810190610a8c91906159c8565b60606000614725838561325a565b9050845167ffffffffffffffff8111801561473f57600080fd5b50604051908082528060200260200182016040528015614769578160200160208202803683370190505b50915060005b8551811015613023576147888287838151811061447457fe5b83828151811061479457fe5b602090810291909101015260010161476f565b670de0b6b3a7640000026000806ec097ce7bc90715b34b9f1000000000808401907fffffffffffffffffffffffffffffffffff3f68318436f8ea4cb460f000000000850102816147f357fe5b05905060006ec097ce7bc90715b34b9f100000000082800205905081806ec097ce7bc90715b34b9f100000000081840205915060038205016ec097ce7bc90715b34b9f100000000082840205915060058205016ec097ce7bc90715b34b9f100000000082840205915060078205016ec097ce7bc90715b34b9f100000000082840205915060098205016ec097ce7bc90715b34b9f1000000000828402059150600b8205016ec097ce7bc90715b34b9f1000000000828402059150600d8205016ec097ce7bc90715b34b9f1000000000828402059150600f826002919005919091010295945050505050565b6000670de0b6b3a764000082121561491b57614911826ec097ce7bc90715b34b9f10000000008161490b57fe5b056148de565b6000039050610ba6565b60007e1600ef3172e58d2e933ec884fde10064c63b5372d805e203c0000000000000831261496c57770195e54c5dd42177f53a27172fa9ec630262827000000000830592506806f05b59d3b2000000015b73011798004d755d3c8bc8e03204cf44619e00000083126149a4576b1425982cf597cd205cef7380830592506803782dace9d9000000015b606492830292026e01855144814a7ff805980ff008400083126149ec576e01855144814a7ff805980ff008400068056bc75e2d63100000840205925068ad78ebc5ac62000000015b6b02df0ab5a80a22c61ab5a7008312614a27576b02df0ab5a80a22c61ab5a70068056bc75e2d6310000084020592506856bc75e2d631000000015b693f1fce3da636ea5cf8508312614a5e57693f1fce3da636ea5cf85068056bc75e2d631000008402059250682b5e3af16b18800000015b690127fa27722cc06cc5e28312614a9557690127fa27722cc06cc5e268056bc75e2d6310000084020592506815af1d78b58c400000015b68280e60114edb805d038312614aca5768280e60114edb805d0368056bc75e2d631000008402059250680ad78ebc5ac6200000015b680ebc5fb417461211108312614af557680ebc5fb4174612111068056bc75e2d631000009384020592015b6808f00f760a4b2db55d8312614b2a576808f00f760a4b2db55d68056bc75e2d6310000084020592506802b5e3af16b1880000015b6806f5f17757889379378312614b5f576806f5f177578893793768056bc75e2d63100000840205925068015af1d78b58c40000015b6806248f33704b2866038312614b93576806248f33704b28660368056bc75e2d63100000840205925067ad78ebc5ac620000015b6805c548670b9510e7ac8312614bc7576805c548670b9510e7ac68056bc75e2d6310000084020592506756bc75e2d6310000015b600068056bc75e2d63100000840168056bc75e2d631000008086030281614bea57fe5b059050600068056bc75e2d63100000828002059050818068056bc75e2d63100000818402059150600382050168056bc75e2d63100000828402059150600582050168056bc75e2d63100000828402059150600782050168056bc75e2d63100000828402059150600982050168056bc75e2d63100000828402059150600b820501600202606485820105979650505050505050565b6000614cc37ffffffffffffffffffffffffffffffffffffffffffffffffdc702bd3a30fc00008312158015614cbc575068070c1cc73b00c800008313155b60096119ce565b6000821215614cf757614cd882600003614c7e565b6ec097ce7bc90715b34b9f100000000081614cef57fe5b059050610ba6565b60006806f05b59d3b20000008312614d4d57507ffffffffffffffffffffffffffffffffffffffffffffffff90fa4a62c4e00000090910190770195e54c5dd42177f53a27172fa9ec630262827000000000614d99565b6803782dace9d90000008312614d9557507ffffffffffffffffffffffffffffffffffffffffffffffffc87d2531627000000909101906b1425982cf597cd205cef7380614d99565b5060015b6064929092029168056bc75e2d6310000068ad78ebc5ac620000008412614dff577fffffffffffffffffffffffffffffffffffffffffffffff5287143a539e0000009093019268056bc75e2d631000006e01855144814a7ff805980ff008400082020590505b6856bc75e2d6310000008412614e51577fffffffffffffffffffffffffffffffffffffffffffffffa9438a1d29cf0000009093019268056bc75e2d631000006b02df0ab5a80a22c61ab5a70082020590505b682b5e3af16b188000008412614ea1577fffffffffffffffffffffffffffffffffffffffffffffffd4a1c50e94e78000009093019268056bc75e2d63100000693f1fce3da636ea5cf85082020590505b6815af1d78b58c4000008412614ef1577fffffffffffffffffffffffffffffffffffffffffffffffea50e2874a73c000009093019268056bc75e2d63100000690127fa27722cc06cc5e282020590505b680ad78ebc5ac62000008412614f40577ffffffffffffffffffffffffffffffffffffffffffffffff5287143a539e000009093019268056bc75e2d6310000068280e60114edb805d0382020590505b68056bc75e2d631000008412614f8f577ffffffffffffffffffffffffffffffffffffffffffffffffa9438a1d29cf000009093019268056bc75e2d63100000680ebc5fb4174612111082020590505b6802b5e3af16b18800008412614fde577ffffffffffffffffffffffffffffffffffffffffffffffffd4a1c50e94e7800009093019268056bc75e2d631000006808f00f760a4b2db55d82020590505b68015af1d78b58c40000841261502d577ffffffffffffffffffffffffffffffffffffffffffffffffea50e2874a73c00009093019268056bc75e2d631000006806f5f177578893793782020590505b68056bc75e2d631000008481019085906002908280020505918201919050600368056bc75e2d631000008783020505918201919050600468056bc75e2d631000008783020505918201919050600568056bc75e2d631000008783020505918201919050600668056bc75e2d631000008783020505918201919050600768056bc75e2d631000008783020505918201919050600868056bc75e2d631000008783020505918201919050600968056bc75e2d631000008783020505918201919050600a68056bc75e2d631000008783020505918201919050600b68056bc75e2d631000008783020505918201919050600c68056bc75e2d631000008783020505918201919050606468056bc75e2d63100000848402058502059695505050505050565b77ffffffffffffffffffffffffffffffffffffffffffffffff828116821b90821b198416179392505050565b60006151a57f38e9922e00000000000000000000000000000000000000000000000000000000610e0b565b8214806106765750610676826153e0565b670de0b6b3a764000060005b87518110156152c95760008582815181106151d957fe5b602002602001015185111561523c5760006152026151f6876136da565b8b8581518110612fee57fe5b90506000615216828a868151811061442057fe5b9050600061522661261c886136da565b90506152328382611468565b9350505050615261565b86828151811061524857fe5b60200260200101519050806000141561526157506152c1565b600061528a8a848151811061527257fe5b60200260200101516145af848d878151811061442057fe5b90506152bc6152b58a858151811061529e57fe5b6020026020010151836136ec90919063ffffffff16565b859061302c565b935050505b6001016151c2565b509695505050505050565b670de0b6b3a764000060005b87518110156152c9576000848683815181106152f857fe5b60200260200101511115615371576000670de0b6b3a7640000861161531e576000615338565b615338670de0b6b3a764000087038b8581518110612fee57fe5b9050600061535686615350848c888151811061442057fe5b906132a7565b9050615368818a868151811061442057fe5b92505050615396565b86828151811061537d57fe5b60200260200101519050806000141561539657506153d8565b60006153bf8a84815181106153a757fe5b60200260200101516145af848d878151811061459957fe5b90506153d36152b58a858151811061529e57fe5b935050505b6001016152e0565b50600090565b803561067681615ee6565b600082601f830112615401578081fd5b815161541461540f82615eba565b615e93565b81815291506020808301908481018184028601820187101561543557600080fd5b60005b8481101561545457815184529282019290820190600101615438565b505050505092915050565b600082601f83011261546f578081fd5b813567ffffffffffffffff811115615485578182fd5b6154986020601f19601f84011601615e93565b91508082528360208285010111156154af57600080fd5b8060208401602084013760009082016020015292915050565b80516003811061067657600080fd5b80516004811061067657600080fd5b80356002811061067657600080fd5b600060208284031215615506578081fd5b8135610a8c81615ee6565b60008060408385031215615523578081fd5b823561552e81615ee6565b9150602083013561553e81615ee6565b809150509250929050565b60008060006060848603121561555d578081fd5b833561556881615ee6565b9250602084013561557881615ee6565b929592945050506040919091013590565b600080600080600080600060e0888a0312156155a3578283fd5b87356155ae81615ee6565b965060208801356155be81615ee6565b9550604088013594506060880135935060808801356155dc81615efb565b9699959850939692959460a0840135945060c09093013592915050565b6000806040838503121561560b578182fd5b823561561681615ee6565b946020939093013593505050565b600080600060608486031215615638578081fd5b835167ffffffffffffffff8082111561564f578283fd5b818601915086601f830112615662578283fd5b815161567061540f82615eba565b80828252602080830192508086018b828387028901011115615690578788fd5b8796505b848710156156bb5780516156a781615ee6565b845260019690960195928101928101615694565b5089015190975093505050808211156156d2578283fd5b506156df868287016153f1565b925050604084015190509250925092565b600060208284031215615701578081fd5b81518015158114610a8c578182fd5b600060208284031215615721578081fd5b5051919050565b600080600080600080600060e0888a031215615742578081fd5b8735965060208089013561575581615ee6565b9650604089013561576581615ee6565b9550606089013567ffffffffffffffff80821115615781578384fd5b818b0191508b601f830112615794578384fd5b81356157a261540f82615eba565b8082825285820191508585018f8788860288010111156157c0578788fd5b8795505b838610156157e25780358352600195909501949186019186016157c4565b509850505060808b0135955060a08b0135945060c08b0135925080831115615808578384fd5b50506158168a828b0161545f565b91505092959891949750929550565b600060208284031215615836578081fd5b81357fffffffff0000000000000000000000000000000000000000000000000000000081168114610a8c578182fd5b600060208284031215615876578081fd5b8151610a8c81615ee6565b600060208284031215615892578081fd5b610a8c83836154c8565b6000806000606084860312156158b0578081fd5b6158ba85856154c8565b9250602084015167ffffffffffffffff8111156158d5578182fd5b6156df868287016153f1565b600080604083850312156158f3578182fd5b6158fd84846154c8565b9150602083015190509250929050565b600080600060608486031215615921578081fd5b61592b85856154c8565b925060208401519150604084015190509250925092565b600060208284031215615953578081fd5b610a8c83836154d7565b6000806040838503121561596f578182fd5b61597984846154d7565b9150602083015167ffffffffffffffff811115615994578182fd5b6159a0858286016153f1565b9150509250929050565b6000806000606084860312156159be578081fd5b6158ba85856154d7565b600080604083850312156159da578182fd5b6158fd84846154d7565b6000806000606084860312156159f8578081fd5b61592b85856154d7565b600080600060608486031215615a16578081fd5b833567ffffffffffffffff80821115615a2d578283fd5b8186019150610120808389031215615a43578384fd5b615a4c81615e93565b9050615a5888846154e6565b8152615a6788602085016153e6565b6020820152615a7988604085016153e6565b6040820152606083013560608201526080830135608082015260a083013560a0820152615aa98860c085016153e6565b60c0820152615abb8860e085016153e6565b60e08201526101008084013583811115615ad3578586fd5b615adf8a82870161545f565b9183019190915250976020870135975060409096013595945050505050565b600060208284031215615b0f578081fd5b5035919050565b600060208284031215615b27578081fd5b8151610a8c81615efb565b60008060408385031215615b44578182fd5b8251615b4f81615efb565b6020939093015192949293505050565b6000815180845260208085019450808401835b83811015615b8e57815187529582019590820190600101615b72565b509495945050505050565b9182527fffffffff0000000000000000000000000000000000000000000000000000000016602082015260240190565b6000828483379101908152919050565b7f190100000000000000000000000000000000000000000000000000000000000081526002810192909252602282015260420190565b6001600160a01b0391909116815260200190565b6020808252825182820181905260009190848201906040850190845b81811015615c645783516001600160a01b031683529284019291840191600101615c3f565b50909695505050505050565b600060208252610a8c6020830184615b5f565b600060408252615c966040830185615b5f565b828103602084015261143b8185615b5f565b901515815260200190565b92151583526020830191909152604082015260600190565b90815260200190565b9283526001600160a01b03918216602084015216604082015260600190565b9586526001600160a01b0394851660208701529290931660408501526060840152608083019190915260a082015260c00190565b60006060820185835260206060818501528186518084526080860191508288019350845b81811015615d6f57615d5d8551615eda565b83529383019391830191600101615d4b565b505084810360408601528551808252908201925081860190845b818110156129c957615d9b8351615eda565b85529383019391830191600101615d89565b9485526020850193909352604084019190915260608301526001600160a01b0316608082015260a00190565b93845260ff9290921660208401526040830152606082015260800190565b6020810160038310615e0557fe5b91905290565b6000602080835283518082850152825b81811015615e3757858101830151858201604001528201615e1b565b81811115615e485783604083870101525b50601f01601f1916929092016040019392505050565b6000838252604060208301526125bc6040830184615b5f565b918252602082015260400190565b60ff91909116815260200190565b60405181810167ffffffffffffffff81118282101715615eb257600080fd5b604052919050565b600067ffffffffffffffff821115615ed0578081fd5b5060209081020190565b6001600160a01b031690565b6001600160a01b0381168114610ac557600080fd5b60ff81168114610ac557600080fdfea2646970667358221220236b9cd4de477753ed1bf63960f570e6a121a417a1f035c8481730ea84e76f9464736f6c63430007010033",
  "linkReferences": {},
  "deployedLinkReferences": {}
}