{
  "_format": "hh-sol-artifact-1",
  "contractName": "BALTokenHolder",
  "sourceName": "contracts/BALTokenHolder.sol",
  "abi": [
    {
      "inputs": [
        {
          "internalType": "contract IBalancerToken",
          "name": "balancerToken",
          "type": "address"
        },
        {
          "internalType": "contract IVault",
          "name": "vault",
          "type": "address"
        },
        {
          "internalType": "string",
          "name": "name",
          "type": "string"
        }
      ],
      "stateMutability": "nonpayable",
      "type": "constructor"
    },
    {
      "inputs": [
        {
          "internalType": "bytes4",
          "name": "selector",
          "type": "bytes4"
        }
      ],
      "name": "getActionId",
      "outputs": [
        {
          "internalType": "bytes32",
          "name": "",
          "type": "bytes32"
        }
      ],
      "stateMutability": "view",
      "type": "function"
    },
    {
      "inputs": [],
      "name": "getAuthorizer",
      "outputs": [
        {
          "internalType": "contract IAuthorizer",
          "name": "",
          "type": "address"
        }
      ],
      "stateMutability": "view",
      "type": "function"
    },
    {
      "inputs": [],
      "name": "getBalancerToken",
      "outputs": [
        {
          "internalType": "contract IBalancerToken",
          "name": "",
          "type": "address"
        }
      ],
      "stateMutability": "view",
      "type": "function"
    },
    {
      "inputs": [],
      "name": "getName",
      "outputs": [
        {
          "internalType": "string",
          "name": "",
          "type": "string"
        }
      ],
      "stateMutability": "view",
      "type": "function"
    },
    {
      "inputs": [],
      "name": "getVault",
      "outputs": [
        {
          "internalType": "contract IVault",
          "name": "",
          "type": "address"
        }
      ],
      "stateMutability": "view",
      "type": "function"
    },
    {
      "inputs": [
        {
          "internalType": "contract IERC20",
          "name": "token",
          "type": "address"
        },
        {
          "internalType": "address",
          "name": "recipient",
          "type": "address"
        },
        {
          "internalType": "uint256",
          "name": "amount",
          "type": "uint256"
        }
      ],
      "name": "sweepTokens",
      "outputs": [],
      "stateMutability": "nonpayable",
      "type": "function"
    },
    {
      "inputs": [
        {
          "internalType": "address",
          "name": "recipient",
          "type": "address"
        },
        {
          "internalType": "uint256",
          "name": "amount",
          "type": "uint256"
        }
      ],
      "name": "withdrawFunds",
      "outputs": [],
      "stateMutability": "nonpayable",
      "type": "function"
    }
  ],
  "bytecode": "0x60e060405234801561001057600080fd5b50604051610ab7380380610ab78339818101604052606081101561003357600080fd5b8151602083015160408085018051915193959294830192918464010000000082111561005e57600080fd5b90830190602082018581111561007357600080fd5b825164010000000081118282018810171561008d57600080fd5b82525081516020918201929091019080838360005b838110156100ba5781810151838201526020016100a2565b50505050905090810190601f1680156100e75780820380516001836020036101000a031916815260200191505b50604052505030608052506001600160601b0319606083811b821660a05284901b1660c052805161011f906000906020840190610128565b505050506101bb565b828054600181600116156101000203166002900490600052602060002090601f016020900481019282601f1061016957805160ff1916838001178555610196565b82800160010185558215610196579182015b8281111561019657825182559160200191906001019061017b565b506101a29291506101a6565b5090565b5b808211156101a257600081556001016101a7565b60805160a05160601c60c05160601c6108c06101f76000398061033e52806104c3528061050752508061041f5250806102c952506108c06000f3fe608060405234801561001057600080fd5b506004361061007d5760003560e01c80638d928af81161005b5780638d928af814610195578063aaabadc5146101c6578063c0039699146101ce578063c1075329146101d65761007d565b806317d7de7c14610082578063851c1bb3146100ff5780638b6ca32c14610150575b600080fd5b61008a61020f565b6040805160208082528351818301528351919283929083019185019080838360005b838110156100c45781810151838201526020016100ac565b50505050905090810190601f1680156100f15780820380516001836020036101000a031916815260200191505b509250505060405180910390f35b61013e6004803603602081101561011557600080fd5b50357fffffffff00000000000000000000000000000000000000000000000000000000166102c3565b60408051918252519081900360200190f35b6101936004803603606081101561016657600080fd5b5073ffffffffffffffffffffffffffffffffffffffff813581169160208101359091169060400135610334565b005b61019d61041d565b6040805173ffffffffffffffffffffffffffffffffffffffff9092168252519081900360200190f35b61019d610441565b61019d6104c1565b610193600480360360408110156101ec57600080fd5b5073ffffffffffffffffffffffffffffffffffffffff81351690602001356104e5565b60008054604080516020601f60027fffffffffffffffffffffffffffffffffffffffffffffffffffffffffffffffff6101006001881615020190951694909404938401819004810282018101909252828152606093909290918301828280156102b95780601f1061028e576101008083540402835291602001916102b9565b820191906000526020600020905b81548152906001019060200180831161029c57829003601f168201915b5050505050905090565b604080517f00000000000000000000000000000000000000000000000000000000000000006020808301919091527fffffffff000000000000000000000000000000000000000000000000000000008416828401528251602481840301815260449092019092528051910120919050565b61033c610532565b7f000000000000000000000000000000000000000000000000000000000000000073ffffffffffffffffffffffffffffffffffffffff168373ffffffffffffffffffffffffffffffffffffffff1614156103f757604080517f08c379a000000000000000000000000000000000000000000000000000000000815260206004820152601060248201527f43616e6e6f742073776565702042414c00000000000000000000000000000000604482015290519081900360640190fd5b61041873ffffffffffffffffffffffffffffffffffffffff8416838361057b565b505050565b7f000000000000000000000000000000000000000000000000000000000000000090565b600061044b61041d565b73ffffffffffffffffffffffffffffffffffffffff1663aaabadc56040518163ffffffff1660e01b815260040160206040518083038186803b15801561049057600080fd5b505afa1580156104a4573d6000803e3d6000fd5b505050506040513d60208110156104ba57600080fd5b5051905090565b7f000000000000000000000000000000000000000000000000000000000000000090565b6104ed610532565b61052e73ffffffffffffffffffffffffffffffffffffffff7f000000000000000000000000000000000000000000000000000000000000000016838361057b565b5050565b60006105616000357fffffffff00000000000000000000000000000000000000000000000000000000166102c3565b90506105786105708233610608565b6101916106d1565b50565b6040805173ffffffffffffffffffffffffffffffffffffffff8416602482015260448082018490528251808303909101815260649091019091526020810180517bffffffffffffffffffffffffffffffffffffffffffffffffffffffff167fa9059cbb000000000000000000000000000000000000000000000000000000001790526104189084906106df565b6000610612610441565b73ffffffffffffffffffffffffffffffffffffffff16639be2a8848484306040518463ffffffff1660e01b8152600401808481526020018373ffffffffffffffffffffffffffffffffffffffff1681526020018273ffffffffffffffffffffffffffffffffffffffff168152602001935050505060206040518083038186803b15801561069e57600080fd5b505afa1580156106b2573d6000803e3d6000fd5b505050506040513d60208110156106c857600080fd5b50519392505050565b8161052e5761052e816107fb565b600060608373ffffffffffffffffffffffffffffffffffffffff16836040518082805190602001908083835b6020831061074857805182527fffffffffffffffffffffffffffffffffffffffffffffffffffffffffffffffe0909201916020918201910161070b565b6001836020036101000a0380198251168184511680821785525050505050509050019150506000604051808303816000865af19150503d80600081146107aa576040519150601f19603f3d011682016040523d82523d6000602084013e6107af565b606091505b509150915060008214156107c7573d6000803e3d6000fd5b6107f58151600014806107ed57508180602001905160208110156107ea57600080fd5b50515b6101a26106d1565b50505050565b7f08c379a000000000000000000000000000000000000000000000000000000000600090815260206004526007602452600a808304818106603090810160081b83860601918390049283060160101b016642414c230000300160c81b604452610578917f42414c0000000000000000000000000000000000000000000000000000000000906242414c90606490fdfea2646970667358221220f2c02bdbb5f04e83b582c1b13c58ba12ac179bd1ab8766ea3391fa7db67948cc64736f6c63430007010033",
  "linkReferences": {},
  "deployedLinkReferences": {}
}